{
  "_format": "hh-sol-artifact-1",
  "contractName": "EnterpriseModule",
  "sourceName": "contracts/modules/EnterpriseModule.sol",
  "abi": [
    {
      "inputs": [
        {
          "internalType": "contract IModuleRegistry",
          "name": "_registry",
          "type": "address"
        },
        {
          "internalType": "contract IGuardianStorage",
          "name": "_guardianStorage",
          "type": "address"
        },
        {
          "internalType": "contract ITransferStorage",
          "name": "_userWhitelist",
          "type": "address"
        },
        {
          "internalType": "contract IAuthoriser",
          "name": "_authoriser",
          "type": "address"
        },
        {
          "internalType": "uint256",
          "name": "_securityPeriod",
          "type": "uint256"
        },
        {
          "internalType": "uint256",
          "name": "_securityWindow",
          "type": "uint256"
        },
        {
          "internalType": "uint256",
          "name": "_recoveryPeriod",
          "type": "uint256"
        },
        {
          "internalType": "uint256",
          "name": "_lockPeriod",
          "type": "uint256"
        }
      ],
      "stateMutability": "nonpayable",
      "type": "constructor"
    },
    {
      "inputs": [],
      "name": "InvalidShortString",
      "type": "error"
    },
    {
      "inputs": [
        {
          "internalType": "string",
          "name": "str",
          "type": "string"
        }
      ],
      "name": "StringTooLong",
      "type": "error"
    },
    {
      "anonymous": false,
      "inputs": [
        {
          "indexed": true,
          "internalType": "address",
          "name": "wallet",
          "type": "address"
        },
        {
          "indexed": true,
          "internalType": "address",
          "name": "target",
          "type": "address"
        },
        {
          "indexed": false,
          "internalType": "uint64",
          "name": "whitelistAfter",
          "type": "uint64"
        }
      ],
      "name": "AddedToWhitelist",
      "type": "event"
    },
    {
      "anonymous": false,
      "inputs": [],
      "name": "EIP712DomainChanged",
      "type": "event"
    },
    {
      "anonymous": false,
      "inputs": [
        {
          "indexed": true,
          "internalType": "address",
          "name": "wallet",
          "type": "address"
        },
        {
          "indexed": true,
          "internalType": "address",
          "name": "guardian",
          "type": "address"
        }
      ],
      "name": "GuardianAdded",
      "type": "event"
    },
    {
      "anonymous": false,
      "inputs": [
        {
          "indexed": true,
          "internalType": "address",
          "name": "wallet",
          "type": "address"
        },
        {
          "indexed": true,
          "internalType": "address",
          "name": "guardian",
          "type": "address"
        }
      ],
      "name": "GuardianAdditionCancelled",
      "type": "event"
    },
    {
      "anonymous": false,
      "inputs": [
        {
          "indexed": true,
          "internalType": "address",
          "name": "wallet",
          "type": "address"
        },
        {
          "indexed": true,
          "internalType": "address",
          "name": "guardian",
          "type": "address"
        },
        {
          "indexed": false,
          "internalType": "uint256",
          "name": "executeAfter",
          "type": "uint256"
        }
      ],
      "name": "GuardianAdditionRequested",
      "type": "event"
    },
    {
      "anonymous": false,
      "inputs": [
        {
          "indexed": true,
          "internalType": "address",
          "name": "wallet",
          "type": "address"
        },
        {
          "indexed": true,
          "internalType": "address",
          "name": "guardian",
          "type": "address"
        }
      ],
      "name": "GuardianRevokationCancelled",
      "type": "event"
    },
    {
      "anonymous": false,
      "inputs": [
        {
          "indexed": true,
          "internalType": "address",
          "name": "wallet",
          "type": "address"
        },
        {
          "indexed": true,
          "internalType": "address",
          "name": "guardian",
          "type": "address"
        },
        {
          "indexed": false,
          "internalType": "uint256",
          "name": "executeAfter",
          "type": "uint256"
        }
      ],
      "name": "GuardianRevokationRequested",
      "type": "event"
    },
    {
      "anonymous": false,
      "inputs": [
        {
          "indexed": true,
          "internalType": "address",
          "name": "wallet",
          "type": "address"
        },
        {
          "indexed": true,
          "internalType": "address",
          "name": "guardian",
          "type": "address"
        }
      ],
      "name": "GuardianRevoked",
      "type": "event"
    },
    {
      "anonymous": false,
      "inputs": [
        {
          "indexed": true,
          "internalType": "address",
          "name": "wallet",
          "type": "address"
        },
        {
          "indexed": false,
          "internalType": "bool",
          "name": "success",
          "type": "bool"
        },
        {
          "indexed": false,
          "internalType": "uint256",
          "name": "value",
          "type": "uint256"
        },
        {
          "indexed": false,
          "internalType": "string",
          "name": "reason",
          "type": "string"
        }
      ],
      "name": "InvokeWalletResult",
      "type": "event"
    },
    {
      "anonymous": false,
      "inputs": [
        {
          "indexed": true,
          "internalType": "address",
          "name": "wallet",
          "type": "address"
        },
        {
          "indexed": false,
          "internalType": "uint64",
          "name": "releaseAfter",
          "type": "uint64"
        }
      ],
      "name": "Locked",
      "type": "event"
    },
    {
      "anonymous": false,
      "inputs": [
        {
          "indexed": false,
          "internalType": "bytes32",
          "name": "name",
          "type": "bytes32"
        }
      ],
      "name": "ModuleCreated",
      "type": "event"
    },
    {
      "anonymous": false,
      "inputs": [
        {
          "indexed": true,
          "internalType": "address",
          "name": "wallet",
          "type": "address"
        },
        {
          "indexed": true,
          "internalType": "address",
          "name": "_newOwner",
          "type": "address"
        }
      ],
      "name": "OwnershipTransfered",
      "type": "event"
    },
    {
      "anonymous": false,
      "inputs": [
        {
          "indexed": true,
          "internalType": "address",
          "name": "wallet",
          "type": "address"
        },
        {
          "indexed": true,
          "internalType": "address",
          "name": "_recovery",
          "type": "address"
        }
      ],
      "name": "RecoveryCanceled",
      "type": "event"
    },
    {
      "anonymous": false,
      "inputs": [
        {
          "indexed": true,
          "internalType": "address",
          "name": "wallet",
          "type": "address"
        },
        {
          "indexed": true,
          "internalType": "address",
          "name": "_recovery",
          "type": "address"
        },
        {
          "indexed": false,
          "internalType": "uint64",
          "name": "executeAfter",
          "type": "uint64"
        }
      ],
      "name": "RecoveryExecuted",
      "type": "event"
    },
    {
      "anonymous": false,
      "inputs": [
        {
          "indexed": true,
          "internalType": "address",
          "name": "wallet",
          "type": "address"
        },
        {
          "indexed": true,
          "internalType": "address",
          "name": "_recovery",
          "type": "address"
        }
      ],
      "name": "RecoveryFinalized",
      "type": "event"
    },
    {
      "anonymous": false,
      "inputs": [
        {
          "indexed": true,
          "internalType": "address",
          "name": "wallet",
          "type": "address"
        },
        {
          "indexed": true,
          "internalType": "address",
          "name": "refundAddress",
          "type": "address"
        },
        {
          "indexed": false,
          "internalType": "address",
          "name": "refundToken",
          "type": "address"
        },
        {
          "indexed": false,
          "internalType": "uint256",
          "name": "refundAmount",
          "type": "uint256"
        }
      ],
      "name": "Refund",
      "type": "event"
    },
    {
      "anonymous": false,
      "inputs": [
        {
          "indexed": true,
          "internalType": "address",
          "name": "wallet",
          "type": "address"
        },
        {
          "indexed": true,
          "internalType": "address",
          "name": "target",
          "type": "address"
        }
      ],
      "name": "RemovedFromWhitelist",
      "type": "event"
    },
    {
      "anonymous": false,
      "inputs": [
        {
          "indexed": true,
          "internalType": "address",
          "name": "wallet",
          "type": "address"
        },
        {
          "indexed": false,
          "internalType": "address",
          "name": "sessionKey",
          "type": "address"
        }
      ],
      "name": "SessionCleared",
      "type": "event"
    },
    {
      "anonymous": false,
      "inputs": [
        {
          "indexed": true,
          "internalType": "address",
          "name": "wallet",
          "type": "address"
        },
        {
          "indexed": false,
          "internalType": "address",
          "name": "sessionKey",
          "type": "address"
        },
        {
          "indexed": false,
          "internalType": "uint64",
          "name": "expires",
          "type": "uint64"
        }
      ],
      "name": "SessionCreated",
      "type": "event"
    },
    {
      "anonymous": false,
      "inputs": [
        {
          "indexed": true,
          "internalType": "address",
          "name": "wallet",
          "type": "address"
        },
        {
          "indexed": true,
          "internalType": "bool",
          "name": "success",
          "type": "bool"
        },
        {
          "indexed": false,
          "internalType": "bytes",
          "name": "returnData",
          "type": "bytes"
        },
        {
          "indexed": false,
          "internalType": "bytes32",
          "name": "signedHash",
          "type": "bytes32"
        }
      ],
      "name": "TransactionExecuted",
      "type": "event"
    },
    {
      "anonymous": false,
      "inputs": [
        {
          "indexed": true,
          "internalType": "address",
          "name": "wallet",
          "type": "address"
        }
      ],
      "name": "Unlocked",
      "type": "event"
    },
    {
      "anonymous": false,
      "inputs": [
        {
          "indexed": true,
          "internalType": "address",
          "name": "wallet",
          "type": "address"
        },
        {
          "indexed": true,
          "internalType": "address",
          "name": "_newImplementation",
          "type": "address"
        }
      ],
      "name": "WalletUpgraded",
      "type": "event"
    },
    {
      "stateMutability": "nonpayable",
      "type": "fallback"
    },
    {
      "inputs": [
        {
          "internalType": "string",
          "name": "text",
          "type": "string"
        }
      ],
      "name": "Error",
      "outputs": [
        {
          "internalType": "string",
          "name": "",
          "type": "string"
        }
      ],
      "stateMutability": "pure",
      "type": "function"
    },
    {
      "inputs": [],
      "name": "NAME",
      "outputs": [
        {
          "internalType": "bytes32",
          "name": "",
          "type": "bytes32"
        }
      ],
      "stateMutability": "view",
      "type": "function"
    },
    {
      "inputs": [
        {
          "internalType": "uint256",
          "name": "code",
          "type": "uint256"
        }
      ],
      "name": "Panic",
      "outputs": [
        {
          "internalType": "uint256",
          "name": "",
          "type": "uint256"
        }
      ],
      "stateMutability": "pure",
      "type": "function"
    },
    {
      "inputs": [
        {
          "internalType": "address",
          "name": "_wallet",
          "type": "address"
        },
        {
          "internalType": "address",
          "name": "_guardian",
          "type": "address"
        }
      ],
      "name": "addGuardian",
      "outputs": [],
      "stateMutability": "nonpayable",
      "type": "function"
    },
    {
      "inputs": [
        {
          "internalType": "address",
          "name": "_wallet",
          "type": "address"
        },
        {
          "internalType": "address",
          "name": "_module",
          "type": "address"
        }
      ],
      "name": "addModule",
      "outputs": [],
      "stateMutability": "nonpayable",
      "type": "function"
    },
    {
      "inputs": [
        {
          "internalType": "address",
          "name": "_wallet",
          "type": "address"
        },
        {
          "internalType": "address",
          "name": "_target",
          "type": "address"
        }
      ],
      "name": "addToWhitelist",
      "outputs": [],
      "stateMutability": "nonpayable",
      "type": "function"
    },
    {
      "inputs": [
        {
          "internalType": "address",
          "name": "_wallet",
          "type": "address"
        },
        {
          "internalType": "address",
          "name": "_guardian",
          "type": "address"
        }
      ],
      "name": "cancelGuardianAddition",
      "outputs": [],
      "stateMutability": "nonpayable",
      "type": "function"
    },
    {
      "inputs": [
        {
          "internalType": "address",
          "name": "_wallet",
          "type": "address"
        },
        {
          "internalType": "address",
          "name": "_guardian",
          "type": "address"
        }
      ],
      "name": "cancelGuardianRevokation",
      "outputs": [],
      "stateMutability": "nonpayable",
      "type": "function"
    },
    {
      "inputs": [
        {
          "internalType": "address",
          "name": "_wallet",
          "type": "address"
        }
      ],
      "name": "cancelRecovery",
      "outputs": [],
      "stateMutability": "nonpayable",
      "type": "function"
    },
    {
      "inputs": [
        {
          "internalType": "address",
          "name": "_wallet",
          "type": "address"
        }
      ],
      "name": "clearSession",
      "outputs": [],
      "stateMutability": "nonpayable",
      "type": "function"
    },
    {
      "inputs": [
        {
          "internalType": "address",
          "name": "_wallet",
          "type": "address"
        },
        {
          "internalType": "address",
          "name": "_guardian",
          "type": "address"
        }
      ],
      "name": "confirmGuardianAddition",
      "outputs": [],
      "stateMutability": "nonpayable",
      "type": "function"
    },
    {
      "inputs": [
        {
          "internalType": "address",
          "name": "_wallet",
          "type": "address"
        },
        {
          "internalType": "address",
          "name": "_guardian",
          "type": "address"
        }
      ],
      "name": "confirmGuardianRevokation",
      "outputs": [],
      "stateMutability": "nonpayable",
      "type": "function"
    },
    {
      "inputs": [],
      "name": "eip712Domain",
      "outputs": [
        {
          "internalType": "bytes1",
          "name": "fields",
          "type": "bytes1"
        },
        {
          "internalType": "string",
          "name": "name",
          "type": "string"
        },
        {
          "internalType": "string",
          "name": "version",
          "type": "string"
        },
        {
          "internalType": "uint256",
          "name": "chainId",
          "type": "uint256"
        },
        {
          "internalType": "address",
          "name": "verifyingContract",
          "type": "address"
        },
        {
          "internalType": "bytes32",
          "name": "salt",
          "type": "bytes32"
        },
        {
          "internalType": "uint256[]",
          "name": "extensions",
          "type": "uint256[]"
        }
      ],
      "stateMutability": "view",
      "type": "function"
    },
    {
      "inputs": [
        {
          "internalType": "address",
          "name": "_wallet",
          "type": "address"
        },
        {
          "internalType": "bytes",
          "name": "_data",
          "type": "bytes"
        },
        {
          "internalType": "uint256",
          "name": "_nonce",
          "type": "uint256"
        },
        {
          "internalType": "uint256",
          "name": "_deadline",
          "type": "uint256"
        },
        {
          "internalType": "bytes",
          "name": "_signatures",
          "type": "bytes"
        }
      ],
      "name": "execute",
      "outputs": [
        {
          "internalType": "bool",
          "name": "",
          "type": "bool"
        }
      ],
      "stateMutability": "nonpayable",
      "type": "function"
    },
    {
      "inputs": [
        {
          "internalType": "address",
          "name": "_wallet",
          "type": "address"
        },
        {
          "internalType": "address",
          "name": "_recovery",
          "type": "address"
        }
      ],
      "name": "executeRecovery",
      "outputs": [],
      "stateMutability": "nonpayable",
      "type": "function"
    },
    {
      "inputs": [
        {
          "internalType": "address",
          "name": "_wallet",
          "type": "address"
        }
      ],
      "name": "finalizeRecovery",
      "outputs": [],
      "stateMutability": "nonpayable",
      "type": "function"
    },
    {
      "inputs": [
        {
          "internalType": "address",
          "name": "_wallet",
          "type": "address"
        }
      ],
      "name": "getGuardians",
      "outputs": [
        {
          "internalType": "address[]",
          "name": "_guardians",
          "type": "address[]"
        }
      ],
      "stateMutability": "view",
      "type": "function"
    },
    {
      "inputs": [
        {
          "internalType": "address",
          "name": "_wallet",
          "type": "address"
        }
      ],
      "name": "getLock",
      "outputs": [
        {
          "internalType": "uint64",
          "name": "_releaseAfter",
          "type": "uint64"
        }
      ],
      "stateMutability": "view",
      "type": "function"
    },
    {
      "inputs": [
        {
          "internalType": "address",
          "name": "_wallet",
          "type": "address"
        }
      ],
      "name": "getRecovery",
      "outputs": [
        {
          "internalType": "address",
          "name": "_address",
          "type": "address"
        },
        {
          "internalType": "uint64",
          "name": "_executeAfter",
          "type": "uint64"
        },
        {
          "internalType": "uint32",
          "name": "_guardianCount",
          "type": "uint32"
        }
      ],
      "stateMutability": "view",
      "type": "function"
    },
    {
      "inputs": [
        {
          "internalType": "address",
          "name": "_wallet",
          "type": "address"
        },
        {
          "internalType": "bytes",
          "name": "_data",
          "type": "bytes"
        }
      ],
      "name": "getRequiredSignatures",
      "outputs": [
        {
          "internalType": "uint256",
          "name": "",
          "type": "uint256"
        },
        {
          "internalType": "enum BaseModule.OwnerSignature",
          "name": "",
          "type": "uint8"
        }
      ],
      "stateMutability": "view",
      "type": "function"
    },
    {
      "inputs": [
        {
          "internalType": "address",
          "name": "_wallet",
          "type": "address"
        }
      ],
      "name": "getSession",
      "outputs": [
        {
          "internalType": "address",
          "name": "key",
          "type": "address"
        },
        {
          "internalType": "uint64",
          "name": "expires",
          "type": "uint64"
        }
      ],
      "stateMutability": "view",
      "type": "function"
    },
    {
      "inputs": [
        {
          "internalType": "address",
          "name": "_wallet",
          "type": "address"
        }
      ],
      "name": "guardianCount",
      "outputs": [
        {
          "internalType": "uint256",
          "name": "_count",
          "type": "uint256"
        }
      ],
      "stateMutability": "view",
      "type": "function"
    },
    {
      "inputs": [
        {
          "internalType": "address",
          "name": "_wallet",
          "type": "address"
        }
      ],
      "name": "init",
      "outputs": [],
      "stateMutability": "nonpayable",
      "type": "function"
    },
    {
      "inputs": [
        {
          "internalType": "address",
          "name": "_wallet",
          "type": "address"
        },
        {
          "internalType": "bytes32",
          "name": "_signHash",
          "type": "bytes32"
        }
      ],
      "name": "isExecutedTx",
      "outputs": [
        {
          "internalType": "bool",
          "name": "executed",
          "type": "bool"
        }
      ],
      "stateMutability": "view",
      "type": "function"
    },
    {
      "inputs": [
        {
          "internalType": "address",
          "name": "_wallet",
          "type": "address"
        },
        {
          "internalType": "address",
          "name": "_guardian",
          "type": "address"
        }
      ],
      "name": "isGuardian",
      "outputs": [
        {
          "internalType": "bool",
          "name": "_isGuardian",
          "type": "bool"
        }
      ],
      "stateMutability": "view",
      "type": "function"
    },
    {
      "inputs": [
        {
          "internalType": "address",
          "name": "_wallet",
          "type": "address"
        }
      ],
      "name": "isLocked",
      "outputs": [
        {
          "internalType": "bool",
          "name": "",
          "type": "bool"
        }
      ],
      "stateMutability": "view",
      "type": "function"
    },
    {
      "inputs": [],
      "name": "isSignatureModule",
      "outputs": [
        {
          "internalType": "bool",
          "name": "",
          "type": "bool"
        }
      ],
      "stateMutability": "pure",
      "type": "function"
    },
    {
      "inputs": [
        {
          "internalType": "bytes32",
          "name": "_msgHash",
          "type": "bytes32"
        },
        {
          "internalType": "bytes",
          "name": "_signature",
          "type": "bytes"
        }
      ],
      "name": "isValidSignature",
      "outputs": [
        {
          "internalType": "bytes4",
          "name": "",
          "type": "bytes4"
        }
      ],
      "stateMutability": "view",
      "type": "function"
    },
    {
      "inputs": [
        {
          "components": [
            {
              "internalType": "address",
              "name": "sender",
              "type": "address"
            },
            {
              "internalType": "uint256",
              "name": "nonce",
              "type": "uint256"
            },
            {
              "internalType": "bytes",
              "name": "initCode",
              "type": "bytes"
            },
            {
              "internalType": "bytes",
              "name": "callData",
              "type": "bytes"
            },
            {
              "internalType": "uint256",
              "name": "callGasLimit",
              "type": "uint256"
            },
            {
              "internalType": "uint256",
              "name": "verificationGasLimit",
              "type": "uint256"
            },
            {
              "internalType": "uint256",
              "name": "preVerificationGas",
              "type": "uint256"
            },
            {
              "internalType": "uint256",
              "name": "maxFeePerGas",
              "type": "uint256"
            },
            {
              "internalType": "uint256",
              "name": "maxPriorityFeePerGas",
              "type": "uint256"
            },
            {
              "internalType": "bytes",
              "name": "paymasterAndData",
              "type": "bytes"
            },
            {
              "internalType": "bytes",
              "name": "signature",
              "type": "bytes"
            }
          ],
          "internalType": "struct UserOperation",
          "name": "_userOp",
          "type": "tuple"
        },
        {
          "internalType": "bytes32",
          "name": "_userOpHash",
          "type": "bytes32"
        }
      ],
      "name": "isValidSignature",
      "outputs": [
        {
          "internalType": "uint256",
          "name": "validationData",
          "type": "uint256"
        }
      ],
      "stateMutability": "view",
      "type": "function"
    },
    {
      "inputs": [
        {
          "internalType": "address",
          "name": "_wallet",
          "type": "address"
        },
        {
          "internalType": "address",
          "name": "_target",
          "type": "address"
        }
      ],
      "name": "isWhitelisted",
      "outputs": [
        {
          "internalType": "bool",
          "name": "_isWhitelisted",
          "type": "bool"
        }
      ],
      "stateMutability": "view",
      "type": "function"
    },
    {
      "inputs": [
        {
          "internalType": "address",
          "name": "_wallet",
          "type": "address"
        }
      ],
      "name": "lock",
      "outputs": [],
      "stateMutability": "nonpayable",
      "type": "function"
    },
    {
      "inputs": [
        {
          "internalType": "address",
          "name": "_wallet",
          "type": "address"
        },
        {
          "components": [
            {
              "internalType": "address",
              "name": "to",
              "type": "address"
            },
            {
              "internalType": "uint256",
              "name": "value",
              "type": "uint256"
            },
            {
              "internalType": "bytes",
              "name": "data",
              "type": "bytes"
            }
          ],
          "internalType": "struct EnterpriseTransactionManager.Call[]",
          "name": "_transactions",
          "type": "tuple[]"
        }
      ],
      "name": "multiCall",
      "outputs": [
        {
          "internalType": "bytes[]",
          "name": "",
          "type": "bytes[]"
        }
      ],
      "stateMutability": "nonpayable",
      "type": "function"
    },
    {
      "inputs": [
        {
          "internalType": "address",
          "name": "_wallet",
          "type": "address"
        },
        {
          "components": [
            {
              "internalType": "address",
              "name": "to",
              "type": "address"
            },
            {
              "internalType": "uint256",
              "name": "value",
              "type": "uint256"
            },
            {
              "internalType": "bytes",
              "name": "data",
              "type": "bytes"
            }
          ],
          "internalType": "struct EnterpriseTransactionManager.Call[]",
          "name": "_transactions",
          "type": "tuple[]"
        }
      ],
      "name": "multiCallNoRevert",
      "outputs": [
        {
          "internalType": "bytes[]",
          "name": "",
          "type": "bytes[]"
        }
      ],
      "stateMutability": "nonpayable",
      "type": "function"
    },
    {
      "inputs": [
        {
          "internalType": "address",
          "name": "_wallet",
          "type": "address"
        },
        {
          "components": [
            {
              "internalType": "address",
              "name": "to",
              "type": "address"
            },
            {
              "internalType": "uint256",
              "name": "value",
              "type": "uint256"
            },
            {
              "internalType": "bytes",
              "name": "data",
              "type": "bytes"
            }
          ],
          "internalType": "struct EnterpriseTransactionManager.Call[]",
          "name": "_transactions",
          "type": "tuple[]"
        }
      ],
      "name": "multiCallWithGuardians",
      "outputs": [
        {
          "internalType": "bytes[]",
          "name": "",
          "type": "bytes[]"
        }
      ],
      "stateMutability": "nonpayable",
      "type": "function"
    },
    {
      "inputs": [
        {
          "internalType": "address",
          "name": "_wallet",
          "type": "address"
        },
        {
          "components": [
            {
              "internalType": "address",
              "name": "to",
              "type": "address"
            },
            {
              "internalType": "uint256",
              "name": "value",
              "type": "uint256"
            },
            {
              "internalType": "bytes",
              "name": "data",
              "type": "bytes"
            }
          ],
          "internalType": "struct EnterpriseTransactionManager.Call[]",
          "name": "_transactions",
          "type": "tuple[]"
        },
        {
          "internalType": "address",
          "name": "_sessionUser",
          "type": "address"
        },
        {
          "internalType": "uint64",
          "name": "_duration",
          "type": "uint64"
        }
      ],
      "name": "multiCallWithGuardiansAndStartSession",
      "outputs": [
        {
          "internalType": "bytes[]",
          "name": "",
          "type": "bytes[]"
        }
      ],
      "stateMutability": "nonpayable",
      "type": "function"
    },
    {
      "inputs": [
        {
          "internalType": "address",
          "name": "_wallet",
          "type": "address"
        },
        {
          "components": [
            {
              "internalType": "address",
              "name": "to",
              "type": "address"
            },
            {
              "internalType": "uint256",
              "name": "value",
              "type": "uint256"
            },
            {
              "internalType": "bytes",
              "name": "data",
              "type": "bytes"
            }
          ],
          "internalType": "struct EnterpriseTransactionManager.Call[]",
          "name": "_transactions",
          "type": "tuple[]"
        }
      ],
      "name": "multiCallWithSession",
      "outputs": [
        {
          "internalType": "bytes[]",
          "name": "",
          "type": "bytes[]"
        }
      ],
      "stateMutability": "nonpayable",
      "type": "function"
    },
    {
      "inputs": [
        {
          "internalType": "address",
          "name": "_token",
          "type": "address"
        }
      ],
      "name": "recoverToken",
      "outputs": [],
      "stateMutability": "nonpayable",
      "type": "function"
    },
    {
      "inputs": [
        {
          "internalType": "address",
          "name": "_wallet",
          "type": "address"
        },
        {
          "internalType": "address",
          "name": "_target",
          "type": "address"
        }
      ],
      "name": "removeFromWhitelist",
      "outputs": [],
      "stateMutability": "nonpayable",
      "type": "function"
    },
    {
      "inputs": [
        {
          "internalType": "address",
          "name": "_wallet",
          "type": "address"
        },
        {
          "internalType": "address",
          "name": "_guardian",
          "type": "address"
        }
      ],
      "name": "revokeGuardian",
      "outputs": [],
      "stateMutability": "nonpayable",
      "type": "function"
    },
    {
      "inputs": [
        {
          "internalType": "bytes4",
          "name": "_methodId",
          "type": "bytes4"
        }
      ],
      "name": "supportsStaticCall",
      "outputs": [
        {
          "internalType": "bool",
          "name": "_isSupported",
          "type": "bool"
        }
      ],
      "stateMutability": "pure",
      "type": "function"
    },
    {
      "inputs": [
        {
          "internalType": "address",
          "name": "_wallet",
          "type": "address"
        },
        {
          "internalType": "address",
          "name": "_newOwner",
          "type": "address"
        }
      ],
      "name": "transferOwnership",
      "outputs": [],
      "stateMutability": "nonpayable",
      "type": "function"
    },
    {
      "inputs": [
        {
          "internalType": "address",
          "name": "_wallet",
          "type": "address"
        }
      ],
      "name": "unlock",
      "outputs": [],
      "stateMutability": "nonpayable",
      "type": "function"
    },
    {
      "inputs": [
        {
          "internalType": "address",
          "name": "_wallet",
          "type": "address"
        },
        {
          "internalType": "address",
          "name": "_newImplementation",
          "type": "address"
        }
      ],
      "name": "upgradeWallet",
      "outputs": [],
      "stateMutability": "nonpayable",
      "type": "function"
    }
  ],
  "bytecode": "0x6102806040523480156200001257600080fd5b5060405162006b4338038062006b4383398101604081905262000035916200039c565b83828585846040518060400160405280600c81526020016b52656c617965724b6e6f627360a01b81525080604051806040016040528060018152602001603160f81b8152508f8f8f8f6f456e74657270726973654d6f64756c6560801b846001600160a01b03166080816001600160a01b031681525050836001600160a01b031660a0816001600160a01b031681525050826001600160a01b031660c0816001600160a01b031681525050816001600160a01b031660e0816001600160a01b0316815250507f3019c8fc80239e3dff8f781212ae2004839c2cb61d6c70acd279ac65392145df816040516200012c91815260200190565b60405180910390a1505050505062000154600283620002ed60201b620038bc1790919060201c565b6101a05262000171816003620002ed602090811b620038bc17901c565b6101c052815160208084019190912061016052815190820120610180524661012052620002026101605161018051604080517f8b73c3c69bb8fe3d512ecc4cf759cc79239f7b179b0ffacaa9a75d522b39400f60208201529081019290925260608201524660808201523060a082015260009060c00160405160208183030381529060405280519060200120905090565b61010052505030610140525083811015620002645760405162461bcd60e51b815260206004820152601860248201527f534d3a20696e736563757265206c6f636b20706572696f64000000000000000060448201526064015b60405180910390fd5b6200027082846200042b565b841015620002c15760405162461bcd60e51b815260206004820152601d60248201527f534d3a20696e73656375726520736563757269747920706572696f647300000060448201526064016200025b565b6101e0939093526102009290925261024091909152610220526102605250620006339650505050505050565b60006020835110156200030d5762000305836200033d565b905062000337565b8262000324836200038060201b620003181760201c565b90620003319082620004f2565b5060ff90505b92915050565b600080829050601f815111156200036b578260405163305a27a960e01b81526004016200025b9190620005be565b805162000378826200060e565b179392505050565b90565b6001600160a01b03811681146200039957600080fd5b50565b600080600080600080600080610100898b031215620003ba57600080fd5b8851620003c78162000383565b60208a0151909850620003da8162000383565b60408a0151909750620003ed8162000383565b60608a0151909650620004008162000383565b60808a015160a08b015160c08c015160e0909c01519a9d999c50979a91999098919650945092505050565b808201808211156200033757634e487b7160e01b600052601160045260246000fd5b634e487b7160e01b600052604160045260246000fd5b600181811c908216806200047857607f821691505b6020821081036200049957634e487b7160e01b600052602260045260246000fd5b50919050565b601f821115620004ed57600081815260208120601f850160051c81016020861015620004c85750805b601f850160051c820191505b81811015620004e957828155600101620004d4565b5050505b505050565b81516001600160401b038111156200050e576200050e6200044d565b62000526816200051f845462000463565b846200049f565b602080601f8311600181146200055e5760008415620005455750858301515b600019600386901b1c1916600185901b178555620004e9565b600085815260208120601f198616915b828110156200058f578886015182559484019460019091019084016200056e565b5085821015620005ae5787850151600019600388901b60f8161c191681555b5050505050600190811b01905550565b600060208083528351808285015260005b81811015620005ed57858101830151858201604001528201620005cf565b506000604082860101526040601f19601f8301168501019250505092915050565b80516020808301519190811015620004995760001960209190910360031b1b16919050565b60805160a05160c05160e05161010051610120516101405161016051610180516101a0516101c0516101e051610200516102205161024051610260516163d76200076c60003960006119d8015260008181610a420152818161161d015281816120c80152613232015260008181610abb01528181610b23015281816132ab0152613313015260008181612dd90152818161376c01526137ce01526000612c8301526000612615015260006125ea01526000614ee501526000614ebd01526000614e1801526000614e4201526000614e6c01526000505060008181612e89015261402d0152600081816116b70152818161177e0152818161216201528181612ced0152818161355e0152818161366f01528181613f5001526147260152600081816118c201528181611ac901526127f801526163d76000f3fe608060405234801561001057600080fd5b50600436106102695760003560e01c806370135f5211610151578063b0ba4da0116100c3578063d4bfea4811610087578063d4bfea481461072c578063d4ee97341461073f578063f143ddba14610752578063f18858ab14610765578063f435f5a714610785578063f8d3277d1461079857610269565b8063b0ba4da0146106cd578063b6b35272146106e0578063ba821088146106f3578063c684521014610706578063c90db4471461071957610269565b80639769c3fe116101155780639769c3fe146105e75780639add38d5146106675780639be65a601461067a578063a3f4df7e1461068d578063a5efb235146106a7578063a6eb0690146106ba57610269565b806370135f52146105385780637d1c2e781461054b57806384b0196e1461055e578063873bd184146105795780638c8e13b91461058057610269565b80634a4fbeec116101ea5780635a1db8c4116101ae5780635a1db8c41461048857806360c0fdc01461049b57806366dd7111146104d45780636b9db4e6146104e75780636d435421146105125780636ff6ec7c1461052557610269565b80634a4fbeec146104205780634b3ef054146104335780634e487b71146104465780635040fb7614610462578063575182431461047557610269565b806325b509341161023157806325b50934146103a35780632960739b146103c65780632f6c493c146103d9578063315a7af3146103ec5780633b73d67f146103ff57610269565b806308c379a01461030a5780631626ba7e1461033157806319ab453c1461035d5780631d97d8cc146103705780632437b75c14610383575b60006102ab6000368080601f0160208091040260200160405190810160405280939291908181526020018383808284376000920191909152506107ab92505050565b90506001600160e01b03198116630a85bd0160e11b14806102dc57506001600160e01b0319811663f23a6e6160e01b145b806102f757506001600160e01b0319811663bc197c8160e01b145b156103085760046000803760206000f35b005b61031b61031836600461566b565b90565b6040516103289190615703565b60405180910390f35b61034461033f366004615716565b61080c565b6040516001600160e01b03199091168152602001610328565b61030861036b366004615785565b6108e5565b61030861037e3660046157a2565b61094b565b61039661039136600461581f565b610b61565b60405161032891906158a5565b6103b66103b1366004615907565b610bca565b6040519015158152602001610328565b6103086103d43660046157a2565b610c51565b6103086103e7366004615785565b610d98565b6103086103fa366004615785565b610f05565b61041261040d366004615972565b6110c9565b6040516103289291906159dc565b6103b661042e366004615785565b611502565b6103086104413660046157a2565b61150d565b610454610318366004615a0e565b604051908152602001610328565b610454610470366004615785565b61175c565b6103086104833660046157a2565b6117eb565b6103086104963660046157a2565b611a53565b6103b66104a9366004615a27565b6001600160a01b03919091166000908152600460209081526040808320938352929052205460ff1690565b6103966104e2366004615a53565b611be8565b6104fa6104f5366004615785565b611e12565b6040516001600160401b039091168152602001610328565b6103086105203660046157a2565b611e4d565b610396610533366004615a53565b611f35565b6103086105463660046157a2565b611f91565b6103b6610559366004615a9a565b612208565b6105666125dc565b6040516103289796959493929190615b2f565b60016103b6565b6105c061058e366004615785565b6001600160a01b0390811660009081526020819052604090205490811691600160a01b9091046001600160401b031690565b604080516001600160a01b0390931683526001600160401b03909116602083015201610328565b6106346105f5366004615785565b6001600160a01b0390811660009081526005602052604090205490811691600160a01b82046001600160401b031691600160e01b900463ffffffff1690565b604080516001600160a01b0390941684526001600160401b03909216602084015263ffffffff1690820152606001610328565b610454610675366004615bc5565b612665565b610308610688366004615785565b612776565b6104546f456e74657270726973654d6f64756c6560801b81565b6103966106b5366004615a53565b61287d565b6103086106c83660046157a2565b612a9d565b6103086106db3660046157a2565b612be4565b6103b66106ee3660046157a2565b612e5d565b610308610701366004615785565b612f0d565b6103086107143660046157a2565b612fbe565b610308610727366004615785565b613352565b61030861073a3660046157a2565b613456565b6103b661074d3660046157a2565b613534565b610396610760366004615a53565b6135d2565b610778610773366004615785565b61364d565b6040516103289190615c01565b610308610793366004615785565b6136e0565b6103086107a63660046157a2565b613813565b60006004825110156108045760405162461bcd60e51b815260206004820152601d60248201527f5574696c733a20496e76616c69642066756e6374696f6e50726566697800000060448201526064015b60405180910390fd5b506020015190565b6000815160411461085f5760405162461bcd60e51b815260206004820152601c60248201527f544d3a20696e76616c6964207369676e6174757265206c656e6774680000000060448201526064016107fb565b600061086d848460006138ed565b90506108793382613a22565b6108ba5760405162461bcd60e51b81526020600482015260126024820152712a269d1024b73b30b634b21039b4b3b732b960711b60448201526064016107fb565b7f1626ba7e356f5979dd355a3d2bfb43e80420a480c3b854edce286a82d74968699150505b92915050565b80336001600160a01b0382161461093e5760405162461bcd60e51b815260206004820152601960248201527f424d3a2063616c6c6572206d7573742062652077616c6c65740000000000000060448201526064016107fb565b61094782613aa1565b5050565b81303314806109625750336001600160a01b038216145b61097e5760405162461bcd60e51b81526004016107fb90615c4e565b6109888383613534565b6109d45760405162461bcd60e51b815260206004820152601d60248201527f534d3a206d757374206265206578697374696e6720677561726469616e00000060448201526064016107fb565b600083836040516020016109e9929190615c85565b60408051601f1981840301815291815281516020928301206001600160a01b0387166000908152600684528281208282529384905291909120549092501580610a6a5750600082815260208290526040902054610a67907f000000000000000000000000000000000000000000000000000000000000000090615cd0565b42115b610ab65760405162461bcd60e51b815260206004820152601c60248201527f534d3a206475706c69636174652070656e64696e67207265766f6b650000000060448201526064016107fb565b610ae07f000000000000000000000000000000000000000000000000000000000000000042615cd0565b6000838152602083905260409020556001600160a01b038085169086167f9746f6868f544595794833da53250bd19e72334733336cfd5dd6fbc5f6a6ac42610b487f000000000000000000000000000000000000000000000000000000000000000042615cd0565b6040519081526020015b60405180910390a35050505050565b6060303314610b825760405162461bcd60e51b81526004016107fb90615ce3565b85610b8c81613b0a565b15610ba95760405162461bcd60e51b81526004016107fb90615d0f565b610bb4878585613b33565b610bbf878787613ca0565b979650505050505050565b60006001600160e01b03198216630b135d3f60e11b1480610bfb57506001600160e01b03198216630a85bd0160e11b145b80610c1657506001600160e01b031982166301ffc9a760e01b145b80610c3157506001600160e01b0319821663f23a6e6160e01b145b806108df57506001600160e01b0319821663bc197c8160e01b1492915050565b8130331480610c685750336001600160a01b038216145b610c845760405162461bcd60e51b81526004016107fb90615c4e565b82610c8e81613b0a565b15610cab5760405162461bcd60e51b81526004016107fb90615d0f565b60008484604051602001610cc0929190615c85565b60408051601f1981840301815291815281516020928301206001600160a01b038816600090815260068452828120828252938490529190912054909250610d495760405162461bcd60e51b815260206004820152601a60248201527f534d3a20756e6b6e6f776e2070656e64696e67207265766f6b6500000000000060448201526064016107fb565b600082815260208290526040808220829055516001600160a01b0380881692908916917fc0b205956d5e27c296695de329b5a014584a4f51824b1725a0eefc1174d6dbd59190a3505050505050565b8030331480610dac5750610dac8133613534565b610df45760405162461bcd60e51b815260206004820152601960248201527829a69d1036bab9ba1031329033bab0b93234b0b717b9b2b63360391b60448201526064016107fb565b81610dfe81613b0a565b610e4a5760405162461bcd60e51b815260206004820152601960248201527f424d3a2077616c6c6574206d757374206265206c6f636b65640000000000000060448201526064016107fb565b6001600160a01b038316600090815260016020526040902054600160401b900460e01b6001600160e01b03191663f435f5a760e01b14610ec05760405162461bcd60e51b8152602060048201526011602482015270534d3a2063616e6e6f7420756e6c6f636b60781b60448201526064016107fb565b610ecc83600080613e88565b6040516001600160a01b038416907f7e6adfec7e3f286831a0200a754127c171a2da564078722cb97704741bbdb0ea90600090a2505050565b6001600160a01b0381166000908152600560205260409020548190600160a01b90046001600160401b0316610f765760405162461bcd60e51b8152602060048201526017602482015276534d3a206e6f206f6e676f696e67207265636f7665727960481b60448201526064016107fb565b6001600160a01b038216600090815260056020526040902080546001600160401b03600160a01b90910481164290911611610ff35760405162461bcd60e51b815260206004820152601b60248201527f534d3a206f6e676f696e67207265636f7665727920706572696f64000000000060448201526064016107fb565b80546001600160a01b038481166000908152600560205260408120551661101984613f03565b6040516313af403560e01b81526001600160a01b0382811660048301528516906313af403590602401600060405180830381600087803b15801561105c57600080fd5b505af1158015611070573d6000803e3d6000fd5b505050506110838460008060e01b613e88565b806001600160a01b0316846001600160a01b03167fd8667de85dae2d56d76e700d16de53d21ac2ce4d5549cb0bf51c55fdc37f0bc160405160405180910390a350505050565b600080600061110d85858080601f0160208091040260200160405190810160405280939291908181526020018383808284376000920191909152506107ab92505050565b90506001600160e01b0319811663a5efb23560e01b148061113e57506001600160e01b031981166366dd711160e01b145b8061115957506001600160e01b03198116635751824360e01b145b8061117457506001600160e01b0319811663f8d3277d60e01b145b8061118f57506001600160e01b03198116631750421160e31b145b156111be576001600160a01b03861633036111b15760008092509250506114fa565b60018092509250506114fa565b63240244e160e21b6001600160e01b0319821601611202576001600160a01b03861633036111f4576000600492509250506114fa565b6001600492509250506114fa565b63027a2d9360e51b6001600160e01b031982160161128457600061122587613f2a565b9050600081116112775760405162461bcd60e51b815260206004820152601e60248201527f414d3a206e6f20677561726469616e7320736574206f6e2077616c6c6574000060448201526064016107fb565b9250600391506114fa9050565b6336f24bb960e01b6001600160e01b0319821601611315576001600160a01b0386166000908152600560205260408120546112de906112d190600160e01b900463ffffffff166001615d3a565b63ffffffff166002613fbe565b90506001600160a01b0387163303611308576112fb600182615d57565b60039350935050506114fa565b9250600291506114fa9050565b6001600160e01b03198116630c68452160e41b148061134457506001600160e01b03198116630765f63360e21b145b8061135f57506001600160e01b03198116630a6eb06960e41b145b8061137a57506001600160e01b03198116632960739b60e01b145b8061139557506001600160e01b03198116636d43542160e01b145b806113b057506001600160e01b031981166316876e3160e21b145b806113cb57506001600160e01b03198116631a97fd4960e31b145b806113e657506001600160e01b031981166378a1eedd60e11b145b8061140157506001600160e01b0319811663090dedd760e21b145b1561141f57600061141187613f2a565b9350600392506114fa915050565b6001600160e01b0319811663315a7af360e01b148061144e57506001600160e01b03198116633809afa960e11b145b8061146957506001600160e01b031981166312cfbc1560e21b145b1561147b5760008092509250506114fa565b6001600160e01b0319811663f435f5a760e01b14806114aa57506001600160e01b03198116630bdb124f60e21b145b156114bd576001600392509250506114fa565b60405162461bcd60e51b815260206004820152601260248201527114d34e881d5b9adb9bdddb881b595d1a1bd960721b60448201526064016107fb565b935093915050565b60006108df82613b0a565b60008282604051602001611522929190615c85565b60408051601f1981840301815291815281516020928301206001600160a01b0386166000908152600684528281208282529384905291909120549092506115ab5760405162461bcd60e51b815260206004820152601a60248201527f534d3a20756e6b6e6f776e2070656e64696e67207265766f6b6500000000000060448201526064016107fb565b60008281526020829052604090205442116116085760405162461bcd60e51b815260206004820152601b60248201527f534d3a2070656e64696e67207265766f6b65206e6f74206f766572000000000060448201526064016107fb565b600082815260208290526040902054611642907f000000000000000000000000000000000000000000000000000000000000000090615cd0565b42106116905760405162461bcd60e51b815260206004820152601a60248201527f534d3a2070656e64696e67207265766f6b65206578706972656400000000000060448201526064016107fb565b604051630765f63360e21b81526001600160a01b03858116600483015284811660248301527f00000000000000000000000000000000000000000000000000000000000000001690631d97d8cc90604401600060405180830381600087803b1580156116fb57600080fd5b505af115801561170f573d6000803e3d6000fd5b50506040516001600160a01b038087169350871691507f548f10dcba266544123ad8cf8284f25c4baa659cba25dbdf16a06ea11235de9b90600090a3600091825260205260408120555050565b6040516328207dbb60e11b81526001600160a01b0382811660048301526000917f000000000000000000000000000000000000000000000000000000000000000090911690635040fb7690602401602060405180830381865afa1580156117c7573d6000803e3d6000fd5b505050506040513d601f19601f820116820180604052508101906108df9190615d6a565b81303314806117ff57506117ff8133613a22565b61181b5760405162461bcd60e51b81526004016107fb90615d83565b8261182581613b0a565b156118425760405162461bcd60e51b81526004016107fb90615d0f565b836001600160a01b0316836001600160a01b0316036118a35760405162461bcd60e51b815260206004820152601b60248201527f544d3a2043616e6e6f742077686974656c6973742077616c6c6574000000000060448201526064016107fb565b604051630bcd4ebb60e01b81526001600160a01b0384811660048301527f00000000000000000000000000000000000000000000000000000000000000001690630bcd4ebb90602401602060405180830381865afa158015611909573d6000803e3d6000fd5b505050506040513d601f19601f8201168201806040525081019061192d9190615dba565b1561197a5760405162461bcd60e51b815260206004820152601b60248201527f544d3a2043616e6e6f742077686974656c697374206d6f64756c65000000000060448201526064016107fb565b6119848484612e5d565b156119d15760405162461bcd60e51b815260206004820152601e60248201527f544d3a2074617267657420616c72656164792077686974656c6973746564000060448201526064016107fb565b60006119fd7f000000000000000000000000000000000000000000000000000000000000000042615cd0565b9050611a0a858583613fff565b6040516001600160401b03821681526001600160a01b0380861691908716907f1f57f9641d3e8733ed672fef5ac85464bd7215ef2f21e83428e8408248b13dcd90602001610b52565b8130331480611a675750611a678133613a22565b611a835760405162461bcd60e51b81526004016107fb90615d83565b82611a8d81613b0a565b15611aaa5760405162461bcd60e51b81526004016107fb90615d0f565b604051630bcd4ebb60e01b81526001600160a01b0384811660048301527f00000000000000000000000000000000000000000000000000000000000000001690630bcd4ebb90602401602060405180830381865afa158015611b10573d6000803e3d6000fd5b505050506040513d601f19601f82011682018060405250810190611b349190615dba565b611b805760405162461bcd60e51b815260206004820152601c60248201527f414d3a206d6f64756c65206973206e6f7420726567697374657265640000000060448201526064016107fb565b604051631f17732d60e01b81526001600160a01b03848116600483015260016024830152851690631f17732d90604401600060405180830381600087803b158015611bca57600080fd5b505af1158015611bde573d6000803e3d6000fd5b5050505050505050565b6060303314611c095760405162461bcd60e51b81526004016107fb90615ce3565b83611c1381613b0a565b15611c305760405162461bcd60e51b81526004016107fb90615d0f565b6000836001600160401b03811115611c4a57611c4a6155c0565b604051908082528060200260200182016040528015611c7d57816020015b6060815260200190600190039081611c685790505b50905060005b84811015611e085730868683818110611c9e57611c9e615ddc565b9050602002810190611cb09190615df2565b611cbe906020810190615785565b6001600160a01b031603611d0e5760405162461bcd60e51b815260206004820152601760248201527615134e8818d85b1b081b9bdd08185d5d1a1bdc9a5cd959604a1b60448201526064016107fb565b611dd887878784818110611d2457611d24615ddc565b9050602002810190611d369190615df2565b611d44906020810190615785565b888885818110611d5657611d56615ddc565b9050602002810190611d689190615df2565b60200135898986818110611d7e57611d7e615ddc565b9050602002810190611d909190615df2565b611d9e906040810190615e12565b8080601f01602080910402602001604051908101604052809392919081815260200183838082843760009201919091525061408e92505050565b828281518110611dea57611dea615ddc565b60200260200101819052508080611e0090615e58565b915050611c83565b5095945050505050565b6000611e1d82613b0a565b611e285760006108df565b506001600160a01b03166000908152600160205260409020546001600160401b031690565b303314611e6c5760405162461bcd60e51b81526004016107fb90615ce3565b81611e7681613b0a565b15611e935760405162461bcd60e51b81526004016107fb90615d0f565b611e9d83836144cc565b6040516313af403560e01b81526001600160a01b0383811660048301528416906313af403590602401600060405180830381600087803b158015611ee057600080fd5b505af1158015611ef4573d6000803e3d6000fd5b50506040516001600160a01b038086169350861691507f0d18b5fd22306e373229b9439188228edca81207d1667f604daf6cef8aa3ee6790600090a3505050565b6060303314611f565760405162461bcd60e51b81526004016107fb90615ce3565b83611f6081613b0a565b15611f7d5760405162461bcd60e51b81526004016107fb90615d0f565b611f88858585613ca0565b95945050505050565b81611f9b81613b0a565b15611fb85760405162461bcd60e51b81526004016107fb90615d0f565b60008383604051602001611fcd929190615e71565b60408051601f1981840301815291815281516020928301206001600160a01b0387166000908152600684528281208282529384905291909120549092506120565760405162461bcd60e51b815260206004820152601c60248201527f534d3a20756e6b6e6f776e2070656e64696e67206164646974696f6e0000000060448201526064016107fb565b60008281526020829052604090205442116120b35760405162461bcd60e51b815260206004820152601d60248201527f534d3a2070656e64696e67206164646974696f6e206e6f74206f76657200000060448201526064016107fb565b6000828152602082905260409020546120ed907f000000000000000000000000000000000000000000000000000000000000000090615cd0565b421061213b5760405162461bcd60e51b815260206004820152601c60248201527f534d3a2070656e64696e67206164646974696f6e20657870697265640000000060448201526064016107fb565b604051630c68452160e41b81526001600160a01b03868116600483015285811660248301527f0000000000000000000000000000000000000000000000000000000000000000169063c684521090604401600060405180830381600087803b1580156121a657600080fd5b505af11580156121ba573d6000803e3d6000fd5b50506040516001600160a01b038088169350881691507fbc3292102fa77e083913064b282926717cdfaede4d35f553d66366c0a3da755a90600090a360009182526020526040812055505050565b6000612215888888614579565b6122615760405162461bcd60e51b815260206004820152601e60248201527f524d3a20546172676574206f66205f6461746120213d205f77616c6c6574000060448201526064016107fb565b61226a88613b0a565b156122b75760405162461bcd60e51b815260206004820152601860248201527f524d3a204c6f636b65642077616c6c657420726566756e64000000000000000060448201526064016107fb565b600080600060606122c98c8c8c6110c9565b9094509250831515806122ed575060008360048111156122eb576122eb6159c6565b145b6123395760405162461bcd60e51b815260206004820152601f60248201527f524d3a2057726f6e67207369676e617475726520726571756972656d656e740060448201526064016107fb565b6123786040518060400160405280601a81526020017f524d3a2072657175697265645369676e6174757265733a202573000000000000815250856145fa565b85612384856041615ea4565b146123d15760405162461bcd60e51b815260206004820152601e60248201527f524d3a2057726f6e67206e756d626572206f66207369676e617475726573000060448201526064016107fb565b60007fbf1af91af6bb21cb6f3df695a3f72929c8cc95124bb13aad4c9d2ff670a214318d8d8d604051612405929190615ebb565b6040519081900381206124479392918e908e906020019485526001600160a01b0393909316602085015260408401919091526060830152608082015260a00190565b604051602081830303815290604052805190602001209050600061246a8261463f565b90506004856004811115612480576124806159c6565b036124d55761248e8e61466c565b6124d05760405162461bcd60e51b815260206004820152601360248201527229269d1024b73b30b634b21039b2b9b9b4b7b760691b60448201526064016107fb565b612527565b6124e28e828b8b896146cc565b6125275760405162461bcd60e51b8152602060048201526016602482015275524d3a20496e76616c6964207369676e61747572657360501b60448201526064016107fb565b6040513090612539908f908f90615ebb565b6000604051808303816000865af19150503d8060008114612576576040519150601f19603f3d011682016040523d82523d6000602084013e61257b565b606091505b5080945081955050508315158e6001600160a01b03167f7da4525a280527268ba2e963ee6c1b18f43c9507bcb1d2560f652ab17c76e90a85846040516125c2929190615ecb565b60405180910390a350919c9b505050505050505050505050565b6000606080828080836126107f00000000000000000000000000000000000000000000000000000000000000006002614a20565b61263b7f00000000000000000000000000000000000000000000000000000000000000006003614a20565b60408051600080825260208201909252600f60f81b9b939a50919850469750309650945092509050565b7f19457468657265756d205369676e6564204d6573736167653a0a3332000000006000908152601c829052603c81206000336001600160a01b0316638da5cb5b6040518163ffffffff1660e01b8152600401602060405180830381865afa1580156126d4573d6000803e3d6000fd5b505050506040513d601f19601f820116820180604052508101906126f89190615eed565b905061274861270b610140870187615e12565b8080601f0160208091040260200160405190810160405280939291908181526020018383808284376000920191909152508693925050614ac49050565b6001600160a01b0316816001600160a01b03161461276b576001925050506108df565b506000949350505050565b6040516370a0823160e01b81523060048201526000906001600160a01b038316906370a0823190602401602060405180830381865afa1580156127bd573d6000803e3d6000fd5b505050506040513d601f19601f820116820180604052508101906127e19190615d6a565b60405163a9059cbb60e01b81526001600160a01b037f000000000000000000000000000000000000000000000000000000000000000081166004830152602482018390529192509083169063a9059cbb906044016020604051808303816000875af1158015612854573d6000803e3d6000fd5b505050506040513d601f19601f820116820180604052508101906128789190615dba565b505050565b606030331461289e5760405162461bcd60e51b81526004016107fb90615ce3565b836128a881613b0a565b156128c55760405162461bcd60e51b81526004016107fb90615d0f565b6000836001600160401b038111156128df576128df6155c0565b60405190808252806020026020018201604052801561291257816020015b60608152602001906001900390816128fd5790505b50905060005b84811015611e08573086868381811061293357612933615ddc565b90506020028101906129459190615df2565b612953906020810190615785565b6001600160a01b0316036129a35760405162461bcd60e51b815260206004820152601760248201527615134e8818d85b1b081b9bdd08185d5d1a1bdc9a5cd959604a1b60448201526064016107fb565b612a6d878787848181106129b9576129b9615ddc565b90506020028101906129cb9190615df2565b6129d9906020810190615785565b8888858181106129eb576129eb615ddc565b90506020028101906129fd9190615df2565b60200135898986818110612a1357612a13615ddc565b9050602002810190612a259190615df2565b612a33906040810190615e12565b8080601f016020809104026020016040519081016040528093929190818152602001838380828437600092019190915250614ae892505050565b828281518110612a7f57612a7f615ddc565b60200260200101819052508080612a9590615e58565b915050612918565b8130331480612ab45750336001600160a01b038216145b612ad05760405162461bcd60e51b81526004016107fb90615c4e565b82612ada81613b0a565b15612af75760405162461bcd60e51b81526004016107fb90615d0f565b60008484604051602001612b0c929190615e71565b60408051601f1981840301815291815281516020928301206001600160a01b038816600090815260068452828120828252938490529190912054909250612b955760405162461bcd60e51b815260206004820152601c60248201527f534d3a20756e6b6e6f776e2070656e64696e67206164646974696f6e0000000060448201526064016107fb565b600082815260208290526040808220829055516001600160a01b0380881692908916917faa13b27c23e9e3f3d5f3861a53b7a2931e019170a6a19ed64942e26a1dd5987a9190a3505050505050565b303314612c035760405162461bcd60e51b81526004016107fb90615ce3565b6001600160a01b0382166000908152600560205260409020548290600160a01b90046001600160401b031615612c725760405162461bcd60e51b8152602060048201526014602482015273534d3a206f6e676f696e67207265636f7665727960601b60448201526064016107fb565b612c7c83836144cc565b6000612ca87f000000000000000000000000000000000000000000000000000000000000000042615cd0565b604080516060810182526001600160a01b0380871682526001600160401b038416602083015282516328207dbb60e11b815288821660048201529394509092918301917f000000000000000000000000000000000000000000000000000000000000000090911690635040fb7690602401602060405180830381865afa158015612d36573d6000803e3d6000fd5b505050506040513d601f19601f82011682018060405250810190612d5a9190615d6a565b63ffffffff9081169091526001600160a01b0380871660009081526005602090815260409182902085518154928701519690930151909416600160e01b026001600160e01b036001600160401b03909616600160a01b026001600160e01b031990921692909316919091171792909216919091179055612e0b84612dfe7f000000000000000000000000000000000000000000000000000000000000000042615cd0565b630585d26d60e51b613e88565b6040516001600160401b03821681526001600160a01b0380851691908616907f5f59bfd9baba55ae30bb440923cbbe30987d50e12a4e9134ffac3fd9afc3526d9060200160405180910390a350505050565b6040516309fa507560e11b81526001600160a01b038381166004830152828116602483015260009182917f000000000000000000000000000000000000000000000000000000000000000016906313f4a0ea90604401602060405180830381865afa158015612ed0573d6000803e3d6000fd5b505050506040513d601f19601f82011682018060405250810190612ef49190615d6a565b9050600081118015612f0557504281105b949350505050565b8030331480612f215750612f218133613a22565b612f3d5760405162461bcd60e51b81526004016107fb90615d83565b81612f4781613b0a565b15612f645760405162461bcd60e51b81526004016107fb90615d0f565b6001600160a01b038381166000818152602081815260409182902054915191909316815290917feb290a597820eccc6b8b31f942bd97c633d5138f4d849751f770f3cb3900e57a910160405180910390a261287883613f03565b8130331480612fd55750336001600160a01b038216145b612ff15760405162461bcd60e51b81526004016107fb90615c4e565b82612ffb81613b0a565b156130185760405162461bcd60e51b81526004016107fb90615d0f565b6130446040518060400160405280600b81526020016a30b23223bab0b93234b0b760a91b815250614c13565b61304e8484613a22565b1561309b5760405162461bcd60e51b815260206004820152601c60248201527f534d3a20677561726469616e2063616e6e6f74206265206f776e65720000000060448201526064016107fb565b6130a58484613534565b156130eb5760405162461bcd60e51b815260206004820152601660248201527529a69d10323ab83634b1b0ba329033bab0b93234b0b760511b60448201526064016107fb565b60408051600481526024810182526020810180516001600160e01b0316638da5cb5b60e01b17905290516000916001600160a01b038616916161a89161313091615f0a565b60006040518083038160008787f1925050503d806000811461316e576040519150601f19603f3d011682016040523d82523d6000602084013e613173565b606091505b50509050806131c45760405162461bcd60e51b815260206004820152601d60248201527f534d3a206d75737420626520454f412f417267656e742077616c6c657400000060448201526064016107fb565b600085856040516020016131d9929190615e71565b60408051601f1981840301815291815281516020928301206001600160a01b038916600090815260068452828120828252938490529190912054909250158061325a5750600082815260208290526040902054613257907f000000000000000000000000000000000000000000000000000000000000000090615cd0565b42115b6132a65760405162461bcd60e51b815260206004820152601e60248201527f534d3a206475706c69636174652070656e64696e67206164646974696f6e000060448201526064016107fb565b6132d07f000000000000000000000000000000000000000000000000000000000000000042615cd0565b6000838152602083905260409020556001600160a01b038087169088167fe4166e4bc55a182bd13d933553241bb3441b91d15fbc74c5c752f96965563bde6133387f000000000000000000000000000000000000000000000000000000000000000042615cd0565b60405190815260200160405180910390a350505050505050565b3033146133715760405162461bcd60e51b81526004016107fb90615ce3565b6001600160a01b0381166000908152600560205260409020548190600160a01b90046001600160401b03166133e25760405162461bcd60e51b8152602060048201526017602482015276534d3a206e6f206f6e676f696e67207265636f7665727960481b60448201526064016107fb565b6001600160a01b0380831660009081526005602052604081208054908290559091169061341190849080613e88565b806001600160a01b0316836001600160a01b03167fc45926607303da71dbeffd2ed5c6b00f581982586b697655d19ae4c4d558f25960405160405180910390a3505050565b3033146134755760405162461bcd60e51b81526004016107fb90615ce3565b8161347f81613b0a565b1561349c5760405162461bcd60e51b81526004016107fb90615d0f565b604051631b2ce7f360e11b81526001600160a01b038381166004830152841690633659cfe690602401600060405180830381600087803b1580156134df57600080fd5b505af11580156134f3573d6000803e3d6000fd5b50506040516001600160a01b038086169350861691507f5c92b3979a73cef77d1416cc6817a9094d4fd8d62e4d93189c8e2b06c5c5919790600090a3505050565b60405163353ba5cd60e21b81526001600160a01b03838116600483015282811660248301526000917f00000000000000000000000000000000000000000000000000000000000000009091169063d4ee973490604401602060405180830381865afa1580156135a7573d6000803e3d6000fd5b505050506040513d601f19601f820116820180604052508101906135cb9190615dba565b9392505050565b60603033146135f35760405162461bcd60e51b81526004016107fb90615ce3565b836135fd81613b0a565b1561361a5760405162461bcd60e51b81526004016107fb90615d0f565b613644604051806040016040528060098152602001681b5d5b1d1a50d85b1b60ba1b815250614c13565b611f7d83614c59565b60405163f18858ab60e01b81526001600160a01b0382811660048301526060917f00000000000000000000000000000000000000000000000000000000000000009091169063f18858ab90602401600060405180830381865afa1580156136b8573d6000803e3d6000fd5b505050506040513d6000823e601f3d908101601f191682016040526108df9190810190615f1c565b80303314806136f457506136f48133613534565b61373c5760405162461bcd60e51b815260206004820152601960248201527829a69d1036bab9ba1031329033bab0b93234b0b717b9b2b63360391b60448201526064016107fb565b8161374681613b0a565b156137635760405162461bcd60e51b81526004016107fb90615d0f565b61379e836137917f000000000000000000000000000000000000000000000000000000000000000042615cd0565b63f435f5a760e01b613e88565b6001600160a01b0383167f6395bace6e0acbe4f22761b149d3cc2e88c7dde6bf4d8481825eef404cf989a16137f37f000000000000000000000000000000000000000000000000000000000000000042615cd0565b6040516001600160401b03909116815260200160405180910390a2505050565b813033148061382757506138278133613a22565b6138435760405162461bcd60e51b81526004016107fb90615d83565b8261384d81613b0a565b1561386a5760405162461bcd60e51b81526004016107fb90615d0f565b61387684846000613fff565b826001600160a01b0316846001600160a01b03167fd288ab5da2e1f37cf384a1565a3f905ad289b092fbdd31950dbbfef148c04f8860405160405180910390a350505050565b60006020835110156138d8576138d183614c9e565b90506108df565b816138e38482616055565b5060ff90506108df565b6041808202830160208101516040820151919092015160009260ff9190911691601b83148061391f57508260ff16601c145b61396b5760405162461bcd60e51b815260206004820152601f60248201527f5574696c733a2062616420762076616c756520696e207369676e61747572650060448201526064016107fb565b604080516000808252602082018084528a905260ff861692820192909252606081018490526080810183905260019060a0016020604051602081039080840390855afa1580156139bf573d6000803e3d6000fd5b5050604051601f1901519150506001600160a01b038116610bbf5760405162461bcd60e51b815260206004820152601b60248201527f5574696c733a2065637265636f7665722072657475726e65642030000000000060448201526064016107fb565b6000816001600160a01b0316836001600160a01b0316638da5cb5b6040518163ffffffff1660e01b8152600401602060405180830381865afa158015613a6c573d6000803e3d6000fd5b505050506040513d601f19601f82011682018060405250810190613a909190615eed565b6001600160a01b0316149392505050565b6040516309ed185960e11b8152306004820152630b135d3f60e11b60248201526001600160a01b038216906313da30b290604401600060405180830381600087803b158015613aef57600080fd5b505af1158015613b03573d6000803e3d6000fd5b5050505050565b6001600160a01b03166000908152600160205260409020546001600160401b0342811691161190565b6001600160a01b038216613b895760405162461bcd60e51b815260206004820152601860248201527f544d3a20496e76616c69642073657373696f6e2075736572000000000000000060448201526064016107fb565b6000816001600160401b031611613be25760405162461bcd60e51b815260206004820152601c60248201527f544d3a20496e76616c69642073657373696f6e206475726174696f6e0000000060448201526064016107fb565b6000613bff613bfa6001600160401b03841642615cd0565b614cdc565b6040805180820182526001600160a01b038681168083526001600160401b0385811660208086018281528c86166000818152808452899020975188549251909516600160a01b026001600160e01b031990921694909616939093179290921790945584519182528101929092529293507f2ecea11087d1dc1431b517cbb5a559a9e33e58a1afeaac288f782c1c8bed8b8a910160405180910390a250505050565b60606000826001600160401b03811115613cbc57613cbc6155c0565b604051908082528060200260200182016040528015613cef57816020015b6060815260200190600190039081613cda5790505b509050613cfb83614c59565b60005b83811015613e7f57613d40858583818110613d1b57613d1b615ddc565b9050602002810190613d2d9190615df2565b613d3b906020810190615785565b614d48565b613daf858583818110613d5557613d55615ddc565b9050602002810190613d679190615df2565b613d75906040810190615e12565b8080601f016020809104026020016040519081016040528093929190818152602001838380828437600092019190915250614d9092505050565b613ddf858583818110613dc457613dc4615ddc565b9050602002810190613dd69190615df2565b60200135614c59565b613e4f86868684818110613df557613df5615ddc565b9050602002810190613e079190615df2565b613e15906020810190615785565b878785818110613e2757613e27615ddc565b9050602002810190613e399190615df2565b60200135888886818110612a1357612a13615ddc565b828281518110613e6157613e61615ddc565b60200260200101819052508080613e7790615e58565b915050613cfe565b50949350505050565b6040518060400160405280613e9c84614cdc565b6001600160401b0390811682526001600160e01b03199093166020918201526001600160a01b039094166000908152600185526040902081518154929095015160e01c600160401b026001600160601b031990921694909216939093179290921790915550565b6001600160a01b0316600090815260208190526040902080546001600160e01b0319169055565b6040516328207dbb60e11b81526001600160a01b0382811660048301526000916108df917f00000000000000000000000000000000000000000000000000000000000000001690635040fb7690602401602060405180830381865afa158015613f97573d6000803e3d6000fd5b505050506040513d601f19601f82011682018060405250810190613fbb9190615d6a565b60025b600080613fcb838561612a565b9050613fd7838561613e565b600003613fe55790506108df565b613ff0816001615cd0565b9150506108df565b5092915050565b604051631017f7cd60e31b81526001600160a01b0384811660048301528381166024830152604482018390527f000000000000000000000000000000000000000000000000000000000000000016906380bfbe6890606401600060405180830381600087803b15801561407157600080fd5b505af1158015614085573d6000803e3d6000fd5b50505050505050565b60606000856001600160a01b03168585856040516024016140b193929190616152565b60408051601f198184030181529181526020820180516001600160e01b03166347b7819960e11b179052516140e69190615f0a565b6000604051808303816000865af19150503d8060008114614123576040519150601f19603f3d011682016040523d82523d6000602084013e614128565b606091505b509250905062461bcd60e51b634e487b7160e01b82801561414a575060008451115b156141ee578380602001905181019061416391906161a9565b9350876001600160a01b03167fa5f660a9554be6c508927b46fe0ee63c8795cf61dcb9f1b05b1084f6707e1c226001886040516141e1929190911515825260208201526060604082018190526019908201527f424d3a2077616c6c657420696e766f6b65207375636365737300000000000000608082015260a00190565b60405180910390a26144c1565b8351156144205760606001600160e01b0319831661420b866161f1565b6001600160e01b031916036142b5576000306001600160a01b0316866040516142349190615f0a565b6000604051808303816000865af19150503d8060008114614271576040519150601f19603f3d011682016040523d82523d6000602084013e614276565b606091505b509150508080602001905181019061428e91906161a9565b60405160200161429e9190616228565b6040516020818303038152906040529150506143b7565b6001600160e01b031982166142c9866161f1565b6001600160e01b03191603614381576000306001600160a01b0316866040516142f29190615f0a565b6000604051808303816000865af19150503d806000811461432f576040519150601f19603f3d011682016040523d82523d6000602084013e614334565b606091505b5091505060008180602001905181019061434e9190615d6a565b905061435981614dd3565b604051602001614369919061625f565b604051602081830303815290604052925050506143b7565b5060408051808201909152601e81527f556e61626c6520746f206465636f64652072657665727420726561736f6e000060208201525b886001600160a01b03167fa5f660a9554be6c508927b46fe0ee63c8795cf61dcb9f1b05b1084f6707e1c22600089846040516020016143f69190616293565b60408051601f19818403018152908290526144129392916162d8565b60405180910390a2506144c1565b826144c157876001600160a01b03167fa5f660a9554be6c508927b46fe0ee63c8795cf61dcb9f1b05b1084f6707e1c226000886040516144b892919091151582526020820152606060408201819052602e908201527f424d3a2077616c6c657420696e766f6b65206661696c656420776974686f757460808201526d103932bb32b93a103932b0b9b7b760911b60a082015260c00190565b60405180910390a25b505050949350505050565b6001600160a01b0381166145225760405162461bcd60e51b815260206004820152601c60248201527f534d3a206e6577206f776e65722063616e6e6f74206265206e756c6c0000000060448201526064016107fb565b61452c8282613534565b156109475760405162461bcd60e51b815260206004820181905260248201527f534d3a206e6577206f776e65722063616e6e6f7420626520677561726469616e60448201526064016107fb565b600060248210156145c55760405162461bcd60e51b815260206004820152601660248201527514934e88125b9d985b1a590819185d1855d85b1b195d60521b60448201526064016107fb565b60006145d483600481876162f9565b8101906145e19190615785565b6001600160a01b03908116908616149150509392505050565b6109478282604051602401614610929190615ecb565b60408051601f198184030181529190526020810180516001600160e01b0316632d839cb360e21b179052614dea565b60006108df61464c614e0b565b8360405161190160f01b8152600281019290925260228201526042902090565b6001600160a01b038181166000818152602081815260408083208151808301909252549485168152600160a01b9094046001600160401b0316908401529190331480156135cb57504281602001516001600160401b031610159392505050565b60008281036146dd57506001611f88565b6000606060018460048111156146f5576146f56159c6565b1415806147025750604185115b156147985760405163f18858ab60e01b81526001600160a01b0389811660048301527f0000000000000000000000000000000000000000000000000000000000000000169063f18858ab90602401600060405180830381865afa15801561476d573d6000803e3d6000fd5b505050506040513d6000823e601f3d908101601f191682016040526147959190810190615f1c565b90505b6001600160a01b03881660009081526004602090815260408083208a845290915290205460ff16156148205760405162461bcd60e51b815260206004820152602b60248201527f524d3a2076616c69646174655369676e6174757265733a20747820616c72656160448201526a191e48195e1958dd5d195960aa1b60648201526084016107fb565b60005b61482e60418761612a565b811015614a1157604080516041808252608082019092526000916020820181803683370190505090508760418302016041816020840137508160000361493a5760006148dc8b6001600160a01b0316638da5cb5b6040518163ffffffff1660e01b8152600401602060405180830381865afa1580156148b1573d6000803e3d6000fd5b505050506040513d601f19601f820116820180604052508101906148d59190615eed565b8b84614f3b565b905060018760048111156148f2576148f26159c6565b036149125780156149045750506149ff565b600095505050505050611f88565b6002876004811115614926576149266159c6565b036149385780156149385750506149ff565b505b6000805b84518110156149e85761496b85828151811061495c5761495c615ddc565b60200260200101518c85614f3b565b156149d657856001600160a01b031685828151811061498c5761498c615ddc565b60200260200101516001600160a01b0316116149b15760009650505050505050611f88565b8481815181106149c3576149c3615ddc565b60200260200101519550600191506149e8565b806149e081615e58565b91505061493e565b50806149fc57600095505050505050611f88565b50505b80614a0981615e58565b915050614823565b50600198975050505050505050565b606060ff8314614a33576138d183614fd0565b818054614a3f90615fcd565b80601f0160208091040260200160405190810160405280929190818152602001828054614a6b90615fcd565b8015614ab85780601f10614a8d57610100808354040283529160200191614ab8565b820191906000526020600020905b815481529060010190602001808311614a9b57829003601f168201915b505050505090506108df565b6000806000614ad3858561500f565b91509150614ae081615054565b509392505050565b60606000856001600160a01b0316858585604051602401614b0b93929190616152565b60408051601f198184030181529181526020820180516001600160e01b03166347b7819960e11b17905251614b409190615f0a565b6000604051808303816000865af19150503d8060008114614b7d576040519150601f19603f3d011682016040523d82523d6000602084013e614b82565b606091505b5092509050808015614b95575060008251115b15614bb55781806020019051810190614bae91906161a9565b9150613e7f565b815115614bc6573d6000803e3d6000fd5b80613e7f5760405162461bcd60e51b815260206004820152601a60248201527f424d3a2077616c6c657420696e766f6b6520726576657274656400000000000060448201526064016107fb565b614c5681604051602401614c279190615703565b60408051601f198184030181529190526020810180516001600160e01b031663104c13eb60e21b179052614dea565b50565b614c5681604051602401614c6f91815260200190565b60408051601f198184030181529190526020810180516001600160e01b031663f82c50f160e01b179052614dea565b600080829050601f81511115614cc9578260405163305a27a960e01b81526004016107fb9190615703565b8051614cd482616323565b179392505050565b60006001600160401b03821115614d445760405162461bcd60e51b815260206004820152602660248201527f53616665436173743a2076616c756520646f65736e27742066697420696e203660448201526534206269747360d01b60648201526084016107fb565b5090565b6040516001600160a01b0382166024820152614c569060440160408051601f198184030181529190526020810180516001600160e01b031663161765e160e11b179052614dea565b614c5681604051602401614da49190615703565b60408051601f198184030181529190526020810180516001600160e01b03166305f3bfab60e11b179052614dea565b60606108df82614de28461519e565b600101615208565b60006a636f6e736f6c652e6c6f679050600080835160208501845afa505050565b6000306001600160a01b037f000000000000000000000000000000000000000000000000000000000000000016148015614e6457507f000000000000000000000000000000000000000000000000000000000000000046145b15614e8e57507f000000000000000000000000000000000000000000000000000000000000000090565b614f36604080517f8b73c3c69bb8fe3d512ecc4cf759cc79239f7b179b0ffacaa9a75d522b39400f60208201527f0000000000000000000000000000000000000000000000000000000000000000918101919091527f000000000000000000000000000000000000000000000000000000000000000060608201524660808201523060a082015260009060c00160405160208183030381529060405280519060200120905090565b905090565b6000806000614f4a858561500f565b91509150614f8360405180604001604052806013815260200172697356616c69645369676e61747572654e6f7760681b815250836153a3565b6000816004811115614f9757614f976159c6565b148015614fb55750856001600160a01b0316826001600160a01b0316145b80614fc65750614fc68686866153e8565b9695505050505050565b60606000614fdd836154d4565b604080516020808252818301909252919250600091906020820181803683375050509182525060208101929092525090565b60008082516041036150455760208301516040840151606085015160001a615039878285856154fc565b9450945050505061504d565b506000905060025b9250929050565b6000816004811115615068576150686159c6565b036150705750565b6001816004811115615084576150846159c6565b036150d15760405162461bcd60e51b815260206004820152601860248201527f45434453413a20696e76616c6964207369676e6174757265000000000000000060448201526064016107fb565b60028160048111156150e5576150e56159c6565b036151325760405162461bcd60e51b815260206004820152601f60248201527f45434453413a20696e76616c6964207369676e6174757265206c656e6774680060448201526064016107fb565b6003816004811115615146576151466159c6565b03614c565760405162461bcd60e51b815260206004820152602260248201527f45434453413a20696e76616c6964207369676e6174757265202773272076616c604482015261756560f01b60648201526084016107fb565b600080608083901c156151b65760809290921c916010015b604083901c156151cb5760409290921c916008015b602083901c156151e05760209290921c916004015b601083901c156151f55760109290921c916002015b600883901c156108df5760010192915050565b60606000615217836002615ea4565b615222906002615cd0565b6001600160401b03811115615239576152396155c0565b6040519080825280601f01601f191660200182016040528015615263576020820181803683370190505b509050600360fc1b8160008151811061527e5761527e615ddc565b60200101906001600160f81b031916908160001a905350600f60fb1b816001815181106152ad576152ad615ddc565b60200101906001600160f81b031916908160001a90535060006152d1846002615ea4565b6152dc906001615cd0565b90505b6001811115615354576f181899199a1a9b1b9c1cb0b131b232b360811b85600f166010811061531057615310615ddc565b1a60f81b82828151811061532657615326615ddc565b60200101906001600160f81b031916908160001a90535060049490941c9361534d81616347565b90506152df565b5083156135cb5760405162461bcd60e51b815260206004820181905260248201527f537472696e67733a20686578206c656e67746820696e73756666696369656e7460448201526064016107fb565b61094782826040516024016153b992919061635e565b60408051601f198184030181529190526020810180516001600160e01b031663319af33360e01b179052614dea565b6000806000856001600160a01b0316631626ba7e60e01b8686604051602401615412929190616388565b60408051601f198184030181529181526020820180516001600160e01b03166001600160e01b03199094169390931790925290516154509190615f0a565b600060405180830381855afa9150503d806000811461548b576040519150601f19603f3d011682016040523d82523d6000602084013e615490565b606091505b50915091508180156154a457506020815110155b8015614fc657508051630b135d3f60e11b906154c99083016020908101908401615d6a565b149695505050505050565b600060ff8216601f8111156108df57604051632cd44ac360e21b815260040160405180910390fd5b6000807f7fffffffffffffffffffffffffffffff5d576e7357a4501ddfe92f46681b20a083111561553357506000905060036155b7565b6040805160008082526020820180845289905260ff881692820192909252606081018690526080810185905260019060a0016020604051602081039080840390855afa158015615587573d6000803e3d6000fd5b5050604051601f1901519150506001600160a01b0381166155b0576000600192509250506155b7565b9150600090505b94509492505050565b634e487b7160e01b600052604160045260246000fd5b604051601f8201601f191681016001600160401b03811182821017156155fe576155fe6155c0565b604052919050565b60006001600160401b0382111561561f5761561f6155c0565b50601f01601f191660200190565b600061564061563b84615606565b6155d6565b905082815283838301111561565457600080fd5b828260208301376000602084830101529392505050565b60006020828403121561567d57600080fd5b81356001600160401b0381111561569357600080fd5b8201601f810184136156a457600080fd5b612f058482356020840161562d565b60005b838110156156ce5781810151838201526020016156b6565b50506000910152565b600081518084526156ef8160208601602086016156b3565b601f01601f19169290920160200192915050565b6020815260006135cb60208301846156d7565b6000806040838503121561572957600080fd5b8235915060208301356001600160401b0381111561574657600080fd5b8301601f8101851361575757600080fd5b6157668582356020840161562d565b9150509250929050565b6001600160a01b0381168114614c5657600080fd5b60006020828403121561579757600080fd5b81356135cb81615770565b600080604083850312156157b557600080fd5b82356157c081615770565b915060208301356157d081615770565b809150509250929050565b60008083601f8401126157ed57600080fd5b5081356001600160401b0381111561580457600080fd5b6020830191508360208260051b850101111561504d57600080fd5b60008060008060006080868803121561583757600080fd5b853561584281615770565b945060208601356001600160401b038082111561585e57600080fd5b61586a89838a016157db565b90965094506040880135915061587f82615770565b909250606087013590808216821461589657600080fd5b50809150509295509295909350565b6000602080830181845280855180835260408601915060408160051b870101925083870160005b828110156158fa57603f198886030184526158e88583516156d7565b945092850192908501906001016158cc565b5092979650505050505050565b60006020828403121561591957600080fd5b81356001600160e01b0319811681146135cb57600080fd5b60008083601f84011261594357600080fd5b5081356001600160401b0381111561595a57600080fd5b60208301915083602082850101111561504d57600080fd5b60008060006040848603121561598757600080fd5b833561599281615770565b925060208401356001600160401b038111156159ad57600080fd5b6159b986828701615931565b9497909650939450505050565b634e487b7160e01b600052602160045260246000fd5b8281526040810160058310615a0157634e487b7160e01b600052602160045260246000fd5b8260208301529392505050565b600060208284031215615a2057600080fd5b5035919050565b60008060408385031215615a3a57600080fd5b8235615a4581615770565b946020939093013593505050565b600080600060408486031215615a6857600080fd5b8335615a7381615770565b925060208401356001600160401b03811115615a8e57600080fd5b6159b9868287016157db565b600080600080600080600060a0888a031215615ab557600080fd5b8735615ac081615770565b965060208801356001600160401b0380821115615adc57600080fd5b615ae88b838c01615931565b909850965060408a0135955060608a0135945060808a0135915080821115615b0f57600080fd5b50615b1c8a828b01615931565b989b979a50959850939692959293505050565b60ff60f81b881681526000602060e081840152615b4f60e084018a6156d7565b8381036040850152615b61818a6156d7565b606085018990526001600160a01b038816608086015260a0850187905284810360c0860152855180825283870192509083019060005b81811015615bb357835183529284019291840191600101615b97565b50909c9b505050505050505050505050565b60008060408385031215615bd857600080fd5b82356001600160401b03811115615bee57600080fd5b83016101608186031215615a4557600080fd5b6020808252825182820181905260009190848201906040850190845b81811015615c425783516001600160a01b031683529284019291840191600101615c1d565b50909695505050505050565b60208082526017908201527f424d3a206d7573742062652077616c6c65742f73656c66000000000000000000604082015260600190565b6001600160601b0319606093841b811682529190921b166014820152693932bb37b5b0ba34b7b760b11b602882015260320190565b634e487b7160e01b600052601160045260246000fd5b808201808211156108df576108df615cba565b602080825260129082015271424d3a206d757374206265206d6f64756c6560701b604082015260600190565b60208082526011908201527010934e881dd85b1b195d081b1bd8dad959607a1b604082015260600190565b63ffffffff818116838216019080821115613ff857613ff8615cba565b818103818111156108df576108df615cba565b600060208284031215615d7c57600080fd5b5051919050565b6020808252601d908201527f424d3a206d7573742062652077616c6c6574206f776e65722f73656c66000000604082015260600190565b600060208284031215615dcc57600080fd5b815180151581146135cb57600080fd5b634e487b7160e01b600052603260045260246000fd5b60008235605e19833603018112615e0857600080fd5b9190910192915050565b6000808335601e19843603018112615e2957600080fd5b8301803591506001600160401b03821115615e4357600080fd5b60200191503681900382131561504d57600080fd5b600060018201615e6a57615e6a615cba565b5060010190565b6001600160601b0319606093841b811682529190921b1660148201526730b23234ba34b7b760c11b602882015260300190565b80820281158282048414176108df576108df615cba565b8183823760009101908152919050565b604081526000615ede60408301856156d7565b90508260208301529392505050565b600060208284031215615eff57600080fd5b81516135cb81615770565b60008251615e088184602087016156b3565b60006020808385031215615f2f57600080fd5b82516001600160401b0380821115615f4657600080fd5b818501915085601f830112615f5a57600080fd5b815181811115615f6c57615f6c6155c0565b8060051b9150615f7d8483016155d6565b8181529183018401918481019088841115615f9757600080fd5b938501935b83851015615fc15784519250615fb183615770565b8282529385019390850190615f9c565b98975050505050505050565b600181811c90821680615fe157607f821691505b60208210810361600157634e487b7160e01b600052602260045260246000fd5b50919050565b601f82111561287857600081815260208120601f850160051c8101602086101561602e5750805b601f850160051c820191505b8181101561604d5782815560010161603a565b505050505050565b81516001600160401b0381111561606e5761606e6155c0565b6160828161607c8454615fcd565b84616007565b602080601f8311600181146160b7576000841561609f5750858301515b600019600386901b1c1916600185901b17855561604d565b600085815260208120601f198616915b828110156160e6578886015182559484019460019091019084016160c7565b50858210156161045787850151600019600388901b60f8161c191681555b5050505050600190811b01905550565b634e487b7160e01b600052601260045260246000fd5b60008261613957616139616114565b500490565b60008261614d5761614d616114565b500690565b60018060a01b0384168152826020820152606060408201526000611f8860608301846156d7565b600061618761563b84615606565b905082815283838301111561619b57600080fd5b6135cb8360208301846156b3565b6000602082840312156161bb57600080fd5b81516001600160401b038111156161d157600080fd5b8201601f810184136161e257600080fd5b612f0584825160208401616179565b805160208201516001600160e01b031980821692919060048310156162205780818460040360031b1b83161693505b505050919050565b6e03932bb32b93a103932b0b9b7b71d1608d1b81526000825161625281600f8501602087016156b3565b91909101600f0192915050565b6b03830b734b19031b7b2329d160a51b81526000825161628681600c8501602087016156b3565b91909101600c0192915050565b7f424d3a2077616c6c657420696e766f6b65206661696c656420776974682000008152600082516162cb81601e8501602087016156b3565b91909101601e0192915050565b8315158152826020820152606060408201526000611f8860608301846156d7565b6000808585111561630957600080fd5b8386111561631657600080fd5b5050820193919092039150565b805160208083015191908110156160015760001960209190910360031b1b16919050565b60008161635657616356615cba565b506000190190565b60408152600061637160408301856156d7565b905060018060a01b03831660208301529392505050565b828152604060208201526000612f0560408301846156d756fea2646970667358221220508da5a6dff7a8c44186b5e454ec5d5f8522d2e413460e5c23411ed0bfbd692f64736f6c63430008120033",
  "linkReferences": {},
  "deployedLinkReferences": {}
}