{
  "_format": "hh-sol-artifact-1",
  "contractName": "EntryPoint",
  "sourceName": "contracts/core/EntryPoint.sol",
  "abi": [
    {
      "inputs": [
        {
          "internalType": "uint256",
          "name": "preOpGas",
          "type": "uint256"
        },
        {
          "internalType": "uint256",
          "name": "paid",
          "type": "uint256"
        },
        {
          "internalType": "uint48",
          "name": "validAfter",
          "type": "uint48"
        },
        {
          "internalType": "uint48",
          "name": "validUntil",
          "type": "uint48"
        },
        {
          "internalType": "bool",
          "name": "targetSuccess",
          "type": "bool"
        },
        {
          "internalType": "bytes",
          "name": "targetResult",
          "type": "bytes"
        }
      ],
      "name": "ExecutionResult",
      "type": "error"
    },
    {
      "inputs": [
        {
          "internalType": "uint256",
          "name": "opIndex",
          "type": "uint256"
        },
        {
          "internalType": "string",
          "name": "reason",
          "type": "string"
        }
      ],
      "name": "FailedOp",
      "type": "error"
    },
    {
      "inputs": [
        {
          "internalType": "address",
          "name": "sender",
          "type": "address"
        }
      ],
      "name": "SenderAddressResult",
      "type": "error"
    },
    {
      "inputs": [
        {
          "internalType": "address",
          "name": "aggregator",
          "type": "address"
        }
      ],
      "name": "SignatureValidationFailed",
      "type": "error"
    },
    {
      "inputs": [
        {
          "components": [
            {
              "internalType": "uint256",
              "name": "preOpGas",
              "type": "uint256"
            },
            {
              "internalType": "uint256",
              "name": "prefund",
              "type": "uint256"
            },
            {
              "internalType": "bool",
              "name": "sigFailed",
              "type": "bool"
            },
            {
              "internalType": "uint48",
              "name": "validAfter",
              "type": "uint48"
            },
            {
              "internalType": "uint48",
              "name": "validUntil",
              "type": "uint48"
            },
            {
              "internalType": "bytes",
              "name": "paymasterContext",
              "type": "bytes"
            }
          ],
          "internalType": "struct IEntryPoint.ReturnInfo",
          "name": "returnInfo",
          "type": "tuple"
        },
        {
          "components": [
            {
              "internalType": "uint256",
              "name": "stake",
              "type": "uint256"
            },
            {
              "internalType": "uint256",
              "name": "unstakeDelaySec",
              "type": "uint256"
            }
          ],
          "internalType": "struct IStakeManager.StakeInfo",
          "name": "senderInfo",
          "type": "tuple"
        },
        {
          "components": [
            {
              "internalType": "uint256",
              "name": "stake",
              "type": "uint256"
            },
            {
              "internalType": "uint256",
              "name": "unstakeDelaySec",
              "type": "uint256"
            }
          ],
          "internalType": "struct IStakeManager.StakeInfo",
          "name": "factoryInfo",
          "type": "tuple"
        },
        {
          "components": [
            {
              "internalType": "uint256",
              "name": "stake",
              "type": "uint256"
            },
            {
              "internalType": "uint256",
              "name": "unstakeDelaySec",
              "type": "uint256"
            }
          ],
          "internalType": "struct IStakeManager.StakeInfo",
          "name": "paymasterInfo",
          "type": "tuple"
        }
      ],
      "name": "ValidationResult",
      "type": "error"
    },
    {
      "inputs": [
        {
          "components": [
            {
              "internalType": "uint256",
              "name": "preOpGas",
              "type": "uint256"
            },
            {
              "internalType": "uint256",
              "name": "prefund",
              "type": "uint256"
            },
            {
              "internalType": "bool",
              "name": "sigFailed",
              "type": "bool"
            },
            {
              "internalType": "uint48",
              "name": "validAfter",
              "type": "uint48"
            },
            {
              "internalType": "uint48",
              "name": "validUntil",
              "type": "uint48"
            },
            {
              "internalType": "bytes",
              "name": "paymasterContext",
              "type": "bytes"
            }
          ],
          "internalType": "struct IEntryPoint.ReturnInfo",
          "name": "returnInfo",
          "type": "tuple"
        },
        {
          "components": [
            {
              "internalType": "uint256",
              "name": "stake",
              "type": "uint256"
            },
            {
              "internalType": "uint256",
              "name": "unstakeDelaySec",
              "type": "uint256"
            }
          ],
          "internalType": "struct IStakeManager.StakeInfo",
          "name": "senderInfo",
          "type": "tuple"
        },
        {
          "components": [
            {
              "internalType": "uint256",
              "name": "stake",
              "type": "uint256"
            },
            {
              "internalType": "uint256",
              "name": "unstakeDelaySec",
              "type": "uint256"
            }
          ],
          "internalType": "struct IStakeManager.StakeInfo",
          "name": "factoryInfo",
          "type": "tuple"
        },
        {
          "components": [
            {
              "internalType": "uint256",
              "name": "stake",
              "type": "uint256"
            },
            {
              "internalType": "uint256",
              "name": "unstakeDelaySec",
              "type": "uint256"
            }
          ],
          "internalType": "struct IStakeManager.StakeInfo",
          "name": "paymasterInfo",
          "type": "tuple"
        },
        {
          "components": [
            {
              "internalType": "address",
              "name": "aggregator",
              "type": "address"
            },
            {
              "components": [
                {
                  "internalType": "uint256",
                  "name": "stake",
                  "type": "uint256"
                },
                {
                  "internalType": "uint256",
                  "name": "unstakeDelaySec",
                  "type": "uint256"
                }
              ],
              "internalType": "struct IStakeManager.StakeInfo",
              "name": "stakeInfo",
              "type": "tuple"
            }
          ],
          "internalType": "struct IEntryPoint.AggregatorStakeInfo",
          "name": "aggregatorInfo",
          "type": "tuple"
        }
      ],
      "name": "ValidationResultWithAggregation",
      "type": "error"
    },
    {
      "anonymous": false,
      "inputs": [
        {
          "indexed": true,
          "internalType": "bytes32",
          "name": "userOpHash",
          "type": "bytes32"
        },
        {
          "indexed": true,
          "internalType": "address",
          "name": "sender",
          "type": "address"
        },
        {
          "indexed": false,
          "internalType": "address",
          "name": "factory",
          "type": "address"
        },
        {
          "indexed": false,
          "internalType": "address",
          "name": "paymaster",
          "type": "address"
        }
      ],
      "name": "AccountDeployed",
      "type": "event"
    },
    {
      "anonymous": false,
      "inputs": [],
      "name": "BeforeExecution",
      "type": "event"
    },
    {
      "anonymous": false,
      "inputs": [
        {
          "indexed": true,
          "internalType": "address",
          "name": "account",
          "type": "address"
        },
        {
          "indexed": false,
          "internalType": "uint256",
          "name": "totalDeposit",
          "type": "uint256"
        }
      ],
      "name": "Deposited",
      "type": "event"
    },
    {
      "anonymous": false,
      "inputs": [
        {
          "indexed": true,
          "internalType": "address",
          "name": "aggregator",
          "type": "address"
        }
      ],
      "name": "SignatureAggregatorChanged",
      "type": "event"
    },
    {
      "anonymous": false,
      "inputs": [
        {
          "indexed": true,
          "internalType": "address",
          "name": "account",
          "type": "address"
        },
        {
          "indexed": false,
          "internalType": "uint256",
          "name": "totalStaked",
          "type": "uint256"
        },
        {
          "indexed": false,
          "internalType": "uint256",
          "name": "unstakeDelaySec",
          "type": "uint256"
        }
      ],
      "name": "StakeLocked",
      "type": "event"
    },
    {
      "anonymous": false,
      "inputs": [
        {
          "indexed": true,
          "internalType": "address",
          "name": "account",
          "type": "address"
        },
        {
          "indexed": false,
          "internalType": "uint256",
          "name": "withdrawTime",
          "type": "uint256"
        }
      ],
      "name": "StakeUnlocked",
      "type": "event"
    },
    {
      "anonymous": false,
      "inputs": [
        {
          "indexed": true,
          "internalType": "address",
          "name": "account",
          "type": "address"
        },
        {
          "indexed": false,
          "internalType": "address",
          "name": "withdrawAddress",
          "type": "address"
        },
        {
          "indexed": false,
          "internalType": "uint256",
          "name": "amount",
          "type": "uint256"
        }
      ],
      "name": "StakeWithdrawn",
      "type": "event"
    },
    {
      "anonymous": false,
      "inputs": [
        {
          "indexed": true,
          "internalType": "bytes32",
          "name": "userOpHash",
          "type": "bytes32"
        },
        {
          "indexed": true,
          "internalType": "address",
          "name": "sender",
          "type": "address"
        },
        {
          "indexed": true,
          "internalType": "address",
          "name": "paymaster",
          "type": "address"
        },
        {
          "indexed": false,
          "internalType": "uint256",
          "name": "nonce",
          "type": "uint256"
        },
        {
          "indexed": false,
          "internalType": "bool",
          "name": "success",
          "type": "bool"
        },
        {
          "indexed": false,
          "internalType": "uint256",
          "name": "actualGasCost",
          "type": "uint256"
        },
        {
          "indexed": false,
          "internalType": "uint256",
          "name": "actualGasUsed",
          "type": "uint256"
        }
      ],
      "name": "UserOperationEvent",
      "type": "event"
    },
    {
      "anonymous": false,
      "inputs": [
        {
          "indexed": true,
          "internalType": "bytes32",
          "name": "userOpHash",
          "type": "bytes32"
        },
        {
          "indexed": true,
          "internalType": "address",
          "name": "sender",
          "type": "address"
        },
        {
          "indexed": false,
          "internalType": "uint256",
          "name": "nonce",
          "type": "uint256"
        },
        {
          "indexed": false,
          "internalType": "bytes",
          "name": "revertReason",
          "type": "bytes"
        }
      ],
      "name": "UserOperationRevertReason",
      "type": "event"
    },
    {
      "anonymous": false,
      "inputs": [
        {
          "indexed": true,
          "internalType": "address",
          "name": "account",
          "type": "address"
        },
        {
          "indexed": false,
          "internalType": "address",
          "name": "withdrawAddress",
          "type": "address"
        },
        {
          "indexed": false,
          "internalType": "uint256",
          "name": "amount",
          "type": "uint256"
        }
      ],
      "name": "Withdrawn",
      "type": "event"
    },
    {
      "inputs": [],
      "name": "SIG_VALIDATION_FAILED",
      "outputs": [
        {
          "internalType": "uint256",
          "name": "",
          "type": "uint256"
        }
      ],
      "stateMutability": "view",
      "type": "function"
    },
    {
      "inputs": [
        {
          "internalType": "bytes",
          "name": "initCode",
          "type": "bytes"
        },
        {
          "internalType": "address",
          "name": "sender",
          "type": "address"
        },
        {
          "internalType": "bytes",
          "name": "paymasterAndData",
          "type": "bytes"
        }
      ],
      "name": "_validateSenderAndPaymaster",
      "outputs": [],
      "stateMutability": "view",
      "type": "function"
    },
    {
      "inputs": [
        {
          "internalType": "uint32",
          "name": "unstakeDelaySec",
          "type": "uint32"
        }
      ],
      "name": "addStake",
      "outputs": [],
      "stateMutability": "payable",
      "type": "function"
    },
    {
      "inputs": [
        {
          "internalType": "address",
          "name": "account",
          "type": "address"
        }
      ],
      "name": "balanceOf",
      "outputs": [
        {
          "internalType": "uint256",
          "name": "",
          "type": "uint256"
        }
      ],
      "stateMutability": "view",
      "type": "function"
    },
    {
      "inputs": [
        {
          "internalType": "address",
          "name": "account",
          "type": "address"
        }
      ],
      "name": "depositTo",
      "outputs": [],
      "stateMutability": "payable",
      "type": "function"
    },
    {
      "inputs": [
        {
          "internalType": "address",
          "name": "",
          "type": "address"
        }
      ],
      "name": "deposits",
      "outputs": [
        {
          "internalType": "uint112",
          "name": "deposit",
          "type": "uint112"
        },
        {
          "internalType": "bool",
          "name": "staked",
          "type": "bool"
        },
        {
          "internalType": "uint112",
          "name": "stake",
          "type": "uint112"
        },
        {
          "internalType": "uint32",
          "name": "unstakeDelaySec",
          "type": "uint32"
        },
        {
          "internalType": "uint48",
          "name": "withdrawTime",
          "type": "uint48"
        }
      ],
      "stateMutability": "view",
      "type": "function"
    },
    {
      "inputs": [
        {
          "internalType": "address",
          "name": "account",
          "type": "address"
        }
      ],
      "name": "getDepositInfo",
      "outputs": [
        {
          "components": [
            {
              "internalType": "uint112",
              "name": "deposit",
              "type": "uint112"
            },
            {
              "internalType": "bool",
              "name": "staked",
              "type": "bool"
            },
            {
              "internalType": "uint112",
              "name": "stake",
              "type": "uint112"
            },
            {
              "internalType": "uint32",
              "name": "unstakeDelaySec",
              "type": "uint32"
            },
            {
              "internalType": "uint48",
              "name": "withdrawTime",
              "type": "uint48"
            }
          ],
          "internalType": "struct IStakeManager.DepositInfo",
          "name": "info",
          "type": "tuple"
        }
      ],
      "stateMutability": "view",
      "type": "function"
    },
    {
      "inputs": [
        {
          "internalType": "address",
          "name": "sender",
          "type": "address"
        },
        {
          "internalType": "uint192",
          "name": "key",
          "type": "uint192"
        }
      ],
      "name": "getNonce",
      "outputs": [
        {
          "internalType": "uint256",
          "name": "nonce",
          "type": "uint256"
        }
      ],
      "stateMutability": "view",
      "type": "function"
    },
    {
      "inputs": [
        {
          "internalType": "bytes",
          "name": "initCode",
          "type": "bytes"
        }
      ],
      "name": "getSenderAddress",
      "outputs": [],
      "stateMutability": "nonpayable",
      "type": "function"
    },
    {
      "inputs": [
        {
          "components": [
            {
              "internalType": "address",
              "name": "sender",
              "type": "address"
            },
            {
              "internalType": "uint256",
              "name": "nonce",
              "type": "uint256"
            },
            {
              "internalType": "bytes",
              "name": "initCode",
              "type": "bytes"
            },
            {
              "internalType": "bytes",
              "name": "callData",
              "type": "bytes"
            },
            {
              "internalType": "uint256",
              "name": "callGasLimit",
              "type": "uint256"
            },
            {
              "internalType": "uint256",
              "name": "verificationGasLimit",
              "type": "uint256"
            },
            {
              "internalType": "uint256",
              "name": "preVerificationGas",
              "type": "uint256"
            },
            {
              "internalType": "uint256",
              "name": "maxFeePerGas",
              "type": "uint256"
            },
            {
              "internalType": "uint256",
              "name": "maxPriorityFeePerGas",
              "type": "uint256"
            },
            {
              "internalType": "bytes",
              "name": "paymasterAndData",
              "type": "bytes"
            },
            {
              "internalType": "bytes",
              "name": "signature",
              "type": "bytes"
            }
          ],
          "internalType": "struct UserOperation",
          "name": "userOp",
          "type": "tuple"
        }
      ],
      "name": "getUserOpHash",
      "outputs": [
        {
          "internalType": "bytes32",
          "name": "",
          "type": "bytes32"
        }
      ],
      "stateMutability": "view",
      "type": "function"
    },
    {
      "inputs": [
        {
          "components": [
            {
              "components": [
                {
                  "internalType": "address",
                  "name": "sender",
                  "type": "address"
                },
                {
                  "internalType": "uint256",
                  "name": "nonce",
                  "type": "uint256"
                },
                {
                  "internalType": "bytes",
                  "name": "initCode",
                  "type": "bytes"
                },
                {
                  "internalType": "bytes",
                  "name": "callData",
                  "type": "bytes"
                },
                {
                  "internalType": "uint256",
                  "name": "callGasLimit",
                  "type": "uint256"
                },
                {
                  "internalType": "uint256",
                  "name": "verificationGasLimit",
                  "type": "uint256"
                },
                {
                  "internalType": "uint256",
                  "name": "preVerificationGas",
                  "type": "uint256"
                },
                {
                  "internalType": "uint256",
                  "name": "maxFeePerGas",
                  "type": "uint256"
                },
                {
                  "internalType": "uint256",
                  "name": "maxPriorityFeePerGas",
                  "type": "uint256"
                },
                {
                  "internalType": "bytes",
                  "name": "paymasterAndData",
                  "type": "bytes"
                },
                {
                  "internalType": "bytes",
                  "name": "signature",
                  "type": "bytes"
                }
              ],
              "internalType": "struct UserOperation[]",
              "name": "userOps",
              "type": "tuple[]"
            },
            {
              "internalType": "contract IAggregator",
              "name": "aggregator",
              "type": "address"
            },
            {
              "internalType": "bytes",
              "name": "signature",
              "type": "bytes"
            }
          ],
          "internalType": "struct IEntryPoint.UserOpsPerAggregator[]",
          "name": "opsPerAggregator",
          "type": "tuple[]"
        },
        {
          "internalType": "address payable",
          "name": "beneficiary",
          "type": "address"
        }
      ],
      "name": "handleAggregatedOps",
      "outputs": [],
      "stateMutability": "nonpayable",
      "type": "function"
    },
    {
      "inputs": [
        {
          "components": [
            {
              "internalType": "address",
              "name": "sender",
              "type": "address"
            },
            {
              "internalType": "uint256",
              "name": "nonce",
              "type": "uint256"
            },
            {
              "internalType": "bytes",
              "name": "initCode",
              "type": "bytes"
            },
            {
              "internalType": "bytes",
              "name": "callData",
              "type": "bytes"
            },
            {
              "internalType": "uint256",
              "name": "callGasLimit",
              "type": "uint256"
            },
            {
              "internalType": "uint256",
              "name": "verificationGasLimit",
              "type": "uint256"
            },
            {
              "internalType": "uint256",
              "name": "preVerificationGas",
              "type": "uint256"
            },
            {
              "internalType": "uint256",
              "name": "maxFeePerGas",
              "type": "uint256"
            },
            {
              "internalType": "uint256",
              "name": "maxPriorityFeePerGas",
              "type": "uint256"
            },
            {
              "internalType": "bytes",
              "name": "paymasterAndData",
              "type": "bytes"
            },
            {
              "internalType": "bytes",
              "name": "signature",
              "type": "bytes"
            }
          ],
          "internalType": "struct UserOperation[]",
          "name": "ops",
          "type": "tuple[]"
        },
        {
          "internalType": "address payable",
          "name": "beneficiary",
          "type": "address"
        }
      ],
      "name": "handleOps",
      "outputs": [],
      "stateMutability": "nonpayable",
      "type": "function"
    },
    {
      "inputs": [
        {
          "internalType": "uint192",
          "name": "key",
          "type": "uint192"
        }
      ],
      "name": "incrementNonce",
      "outputs": [],
      "stateMutability": "nonpayable",
      "type": "function"
    },
    {
      "inputs": [
        {
          "internalType": "bytes",
          "name": "callData",
          "type": "bytes"
        },
        {
          "components": [
            {
              "components": [
                {
                  "internalType": "address",
                  "name": "sender",
                  "type": "address"
                },
                {
                  "internalType": "uint256",
                  "name": "nonce",
                  "type": "uint256"
                },
                {
                  "internalType": "uint256",
                  "name": "callGasLimit",
                  "type": "uint256"
                },
                {
                  "internalType": "uint256",
                  "name": "verificationGasLimit",
                  "type": "uint256"
                },
                {
                  "internalType": "uint256",
                  "name": "preVerificationGas",
                  "type": "uint256"
                },
                {
                  "internalType": "address",
                  "name": "paymaster",
                  "type": "address"
                },
                {
                  "internalType": "uint256",
                  "name": "maxFeePerGas",
                  "type": "uint256"
                },
                {
                  "internalType": "uint256",
                  "name": "maxPriorityFeePerGas",
                  "type": "uint256"
                }
              ],
              "internalType": "struct EntryPoint.MemoryUserOp",
              "name": "mUserOp",
              "type": "tuple"
            },
            {
              "internalType": "bytes32",
              "name": "userOpHash",
              "type": "bytes32"
            },
            {
              "internalType": "uint256",
              "name": "prefund",
              "type": "uint256"
            },
            {
              "internalType": "uint256",
              "name": "contextOffset",
              "type": "uint256"
            },
            {
              "internalType": "uint256",
              "name": "preOpGas",
              "type": "uint256"
            }
          ],
          "internalType": "struct EntryPoint.UserOpInfo",
          "name": "opInfo",
          "type": "tuple"
        },
        {
          "internalType": "bytes",
          "name": "context",
          "type": "bytes"
        }
      ],
      "name": "innerHandleOp",
      "outputs": [
        {
          "internalType": "uint256",
          "name": "actualGasCost",
          "type": "uint256"
        }
      ],
      "stateMutability": "nonpayable",
      "type": "function"
    },
    {
      "inputs": [
        {
          "internalType": "address",
          "name": "",
          "type": "address"
        },
        {
          "internalType": "uint192",
          "name": "",
          "type": "uint192"
        }
      ],
      "name": "nonceSequenceNumber",
      "outputs": [
        {
          "internalType": "uint256",
          "name": "",
          "type": "uint256"
        }
      ],
      "stateMutability": "view",
      "type": "function"
    },
    {
      "inputs": [
        {
          "components": [
            {
              "internalType": "address",
              "name": "sender",
              "type": "address"
            },
            {
              "internalType": "uint256",
              "name": "nonce",
              "type": "uint256"
            },
            {
              "internalType": "bytes",
              "name": "initCode",
              "type": "bytes"
            },
            {
              "internalType": "bytes",
              "name": "callData",
              "type": "bytes"
            },
            {
              "internalType": "uint256",
              "name": "callGasLimit",
              "type": "uint256"
            },
            {
              "internalType": "uint256",
              "name": "verificationGasLimit",
              "type": "uint256"
            },
            {
              "internalType": "uint256",
              "name": "preVerificationGas",
              "type": "uint256"
            },
            {
              "internalType": "uint256",
              "name": "maxFeePerGas",
              "type": "uint256"
            },
            {
              "internalType": "uint256",
              "name": "maxPriorityFeePerGas",
              "type": "uint256"
            },
            {
              "internalType": "bytes",
              "name": "paymasterAndData",
              "type": "bytes"
            },
            {
              "internalType": "bytes",
              "name": "signature",
              "type": "bytes"
            }
          ],
          "internalType": "struct UserOperation",
          "name": "op",
          "type": "tuple"
        },
        {
          "internalType": "address",
          "name": "target",
          "type": "address"
        },
        {
          "internalType": "bytes",
          "name": "targetCallData",
          "type": "bytes"
        }
      ],
      "name": "simulateHandleOp",
      "outputs": [],
      "stateMutability": "nonpayable",
      "type": "function"
    },
    {
      "inputs": [
        {
          "components": [
            {
              "internalType": "address",
              "name": "sender",
              "type": "address"
            },
            {
              "internalType": "uint256",
              "name": "nonce",
              "type": "uint256"
            },
            {
              "internalType": "bytes",
              "name": "initCode",
              "type": "bytes"
            },
            {
              "internalType": "bytes",
              "name": "callData",
              "type": "bytes"
            },
            {
              "internalType": "uint256",
              "name": "callGasLimit",
              "type": "uint256"
            },
            {
              "internalType": "uint256",
              "name": "verificationGasLimit",
              "type": "uint256"
            },
            {
              "internalType": "uint256",
              "name": "preVerificationGas",
              "type": "uint256"
            },
            {
              "internalType": "uint256",
              "name": "maxFeePerGas",
              "type": "uint256"
            },
            {
              "internalType": "uint256",
              "name": "maxPriorityFeePerGas",
              "type": "uint256"
            },
            {
              "internalType": "bytes",
              "name": "paymasterAndData",
              "type": "bytes"
            },
            {
              "internalType": "bytes",
              "name": "signature",
              "type": "bytes"
            }
          ],
          "internalType": "struct UserOperation",
          "name": "userOp",
          "type": "tuple"
        }
      ],
      "name": "simulateValidation",
      "outputs": [],
      "stateMutability": "nonpayable",
      "type": "function"
    },
    {
      "inputs": [],
      "name": "unlockStake",
      "outputs": [],
      "stateMutability": "nonpayable",
      "type": "function"
    },
    {
      "inputs": [
        {
          "internalType": "address payable",
          "name": "withdrawAddress",
          "type": "address"
        }
      ],
      "name": "withdrawStake",
      "outputs": [],
      "stateMutability": "nonpayable",
      "type": "function"
    },
    {
      "inputs": [
        {
          "internalType": "address payable",
          "name": "withdrawAddress",
          "type": "address"
        },
        {
          "internalType": "uint256",
          "name": "withdrawAmount",
          "type": "uint256"
        }
      ],
      "name": "withdrawTo",
      "outputs": [],
      "stateMutability": "nonpayable",
      "type": "function"
    },
    {
      "stateMutability": "payable",
      "type": "receive"
    }
  ],
  "bytecode": "0x60a080604052346200008957600160025561022c8181016001600160401b038111838210176200007357829162005e6f833903906000f080156200006757608052604051615de090816200008f82396080518181816113e801528181613e9e01526141bf0152f35b6040513d6000823e3d90fd5b634e487b7160e01b600052604160045260246000fd5b600080fdfe60806040526004361015610023575b361561001957600080fd5b6100216155f9565b005b60003560e01c80630396cb60146101b35780630bd28e3b146101aa5780631b2e01b8146101a15780631d732756146101985780631fad948c1461018f578063205c28781461018657806335567e1a1461017d5780634b1d7cf5146101745780635287ce121461016b57806370a08231146101625780638f41ec5a14610159578063957122ab146101505780639b249f6914610147578063a61935311461013e578063b760faf914610135578063bb9fe6bf1461012c578063c23a5cea14610123578063d6383f941461011a578063ee219423146101115763fc7e286d0361000e5761010c611bd6565b61000e565b5061010c6119be565b5061010c611856565b5061010c6116bd565b5061010c61153f565b5061010c611500565b5061010c6114df565b5061010c611340565b5061010c61116d565b5061010c611132565b5061010c6110ad565b5061010c610f5d565b5061010c610c01565b5061010c610b3c565b5061010c61099d565b5061010c6108c3565b5061010c6106f0565b5061010c610467565b5061010c610385565b5060207ffffffffffffffffffffffffffffffffffffffffffffffffffffffffffffffffc3601126103595760043563ffffffff8116808203610359576103547fa5ae833d0bb1dcd632d98a8b70973e8516812898e19bf27b70071ebc8dc52c01916102716102413373ffffffffffffffffffffffffffffffffffffffff166000526000602052604060002090565b9161024d81151561575f565b61026a610261600185015463ffffffff1690565b63ffffffff1690565b11156157c4565b54926103366dffffffffffffffffffffffffffff946102f461029834888460781c166121de565b966102a4881515615829565b6102b08189111561588e565b6102d4816102bc610608565b941684906dffffffffffffffffffffffffffff169052565b6001602084015287166dffffffffffffffffffffffffffff166040830152565b63ffffffff83166060820152600060808201526103313373ffffffffffffffffffffffffffffffffffffffff166000526000602052604060002090565b6158f3565b6040805194855263ffffffff90911660208501523393918291820190565b0390a2005b600080fd5b6024359077ffffffffffffffffffffffffffffffffffffffffffffffff8216820361035957565b50346103595760207ffffffffffffffffffffffffffffffffffffffffffffffffffffffffffffffffc3601126103595760043577ffffffffffffffffffffffffffffffffffffffffffffffff81168103610359576104149033600052600160205260406000209077ffffffffffffffffffffffffffffffffffffffffffffffff16600052602052604060002090565b61041e815461249a565b9055005b73ffffffffffffffffffffffffffffffffffffffff81160361035957565b6024359061044d82610422565b565b60c4359061044d82610422565b359061044d82610422565b50346103595760407ffffffffffffffffffffffffffffffffffffffffffffffffffffffffffffffffc3601126103595760206104fc6004356104a881610422565b73ffffffffffffffffffffffffffffffffffffffff6104c561035e565b91166000526001835260406000209077ffffffffffffffffffffffffffffffffffffffffffffffff16600052602052604060002090565b54604051908152f35b507f4e487b7100000000000000000000000000000000000000000000000000000000600052604160045260246000fd5b60a0810190811067ffffffffffffffff82111761055157604052565b610559610505565b604052565b610100810190811067ffffffffffffffff82111761055157604052565b67ffffffffffffffff811161055157604052565b6060810190811067ffffffffffffffff82111761055157604052565b6040810190811067ffffffffffffffff82111761055157604052565b90601f7fffffffffffffffffffffffffffffffffffffffffffffffffffffffffffffffe0910116810190811067ffffffffffffffff82111761055157604052565b6040519061044d82610535565b6040519060c0820182811067ffffffffffffffff82111761055157604052565b6040519061044d826105ab565b7fffffffffffffffffffffffffffffffffffffffffffffffffffffffffffffffe0601f60209267ffffffffffffffff811161067e575b01160190565b610686610505565b610678565b92919261069782610642565b916106a560405193846105c7565b829481845281830111610359578281602093846000960137010152565b9181601f840112156103595782359167ffffffffffffffff8311610359576020838186019501011161035957565b5034610359576101c07ffffffffffffffffffffffffffffffffffffffffffffffffffffffffffffffffc3601126103595767ffffffffffffffff60043581811161035957366023820112156103595761075390369060248160040135910161068b565b907fffffffffffffffffffffffffffffffffffffffffffffffffffffffffffffffdc36016101808112610359576101006040519161079083610535565b12610359576040516107a18161055e565b6107a9610440565b815260443560208201526064356040820152608435606082015260a43560808201526107d361044f565b60a082015260e43560c08201526101043560e082015281526101243560208201526101443560408201526101643560608201526101843560808201526101a435918211610359576108479261082f6108379336906004016106c2565b9290916128ba565b6040519081529081906020820190565b0390f35b9060407ffffffffffffffffffffffffffffffffffffffffffffffffffffffffffffffffc8301126103595760043567ffffffffffffffff9283821161035957806023830112156103595781600401359384116103595760248460051b830101116103595760240191906024356108c081610422565b90565b5034610359576108d23661084b565b6108dd929192611e43565b6108e683611d36565b60005b84811061096657506000927fbb47ee3e183a558b1a2ff0874b079f3fc5478b7454eacf2bfc5af2ff5878f9728480a183915b8583106109365761092c8585611ee0565b6100216001600255565b90919360019061095c61094a878987611df5565b6109548886611dd3565b519088612348565b019401919061091b565b8061099461098d61097b600194869896611dd3565b51610987848a88611df5565b84613451565b9083612f39565b019290926108e9565b50346103595760407ffffffffffffffffffffffffffffffffffffffffffffffffffffffffffffffffc360112610359576004356109d981610422565b6024359060009133835282602052604083206dffffffffffffffffffffffffffff81541692838311610ade57848373ffffffffffffffffffffffffffffffffffffffff829593610a818496610a48610a358798610adb9c6121c9565b6dffffffffffffffffffffffffffff1690565b6dffffffffffffffffffffffffffff167fffffffffffffffffffffffffffffffffffff0000000000000000000000000000825416179055565b6040805173ffffffffffffffffffffffffffffffffffffffff831681526020810185905233917fd1c19fbcd4551a5edfb66d43d2e337c04837afda3482b42bdf569a8fccdae5fb91a2165af1610ad5611eb0565b50615c6a565b80f35b60646040517f08c379a000000000000000000000000000000000000000000000000000000000815260206004820152601960248201527f576974686472617720616d6f756e7420746f6f206c61726765000000000000006044820152fd5b50346103595760407ffffffffffffffffffffffffffffffffffffffffffffffffffffffffffffffffc360112610359576020600435610b7a81610422565b73ffffffffffffffffffffffffffffffffffffffff610b9761035e565b911660005260018252610bd28160406000209077ffffffffffffffffffffffffffffffffffffffffffffffff16600052602052604060002090565b547fffffffffffffffffffffffffffffffffffffffffffffffff00000000000000006040519260401b16178152f35b503461035957610c103661084b565b610c18611e43565b6000805b838210610dff57610c2d9150611d36565b7fbb47ee3e183a558b1a2ff0874b079f3fc5478b7454eacf2bfc5af2ff5878f972600080a16000805b848110610d6557505060008093815b818110610c9c5761092c868660007f575ff3acadd5ab348fe1855e217e0f3678f8d767d7494c9f9fefbee2e17cca4d8180a2611ee0565b610d00610caa82848a6124d4565b610cd5610cbc610cbc60208401612576565b73ffffffffffffffffffffffffffffffffffffffff1690565b7f575ff3acadd5ab348fe1855e217e0f3678f8d767d7494c9f9fefbee2e17cca4d600080a280612522565b906000915b808310610d1d57505050610d189061249a565b610c65565b90919497610d58610d52610d5e92610d4c8c8b610d4582610d3f8e8b8d611df5565b92611dd3565b5191612348565b906121de565b9961249a565b9561249a565b9190610d05565b610d708186886124d4565b6020610d88610d7f8380612522565b92909301612576565b9173ffffffffffffffffffffffffffffffffffffffff60009316905b828410610dbd5750505050610db89061249a565b610c56565b90919294610d5881610df285610deb610dd9610df7968d611dd3565b51610de58c8b8a611df5565b85613451565b908b613151565b61249a565b929190610da4565b610e0a8285876124d4565b90610e158280612522565b92610e25610cbc60208301612576565b9173ffffffffffffffffffffffffffffffffffffffff8316610e4a6001821415612580565b610e6b575b505050610e6591610e5f916121de565b9161249a565b90610c1c565b909592610e846040999693999895989788810190611fd1565b92908a3b156103595789938b918a5193849283927fe3563a4f00000000000000000000000000000000000000000000000000000000845260049e8f850193610ecb9461271a565b03815a93600094fa9081610f44575b50610f2e5786517f86a9f75000000000000000000000000000000000000000000000000000000000815273ffffffffffffffffffffffffffffffffffffffff8a16818a0190815281906020010390fd5b0390fd5b9497509295509093509181610e5f610e65610e4f565b80610f51610f579261057b565b80611127565b38610eda565b50346103595760207ffffffffffffffffffffffffffffffffffffffffffffffffffffffffffffffffc3601126103595761084773ffffffffffffffffffffffffffffffffffffffff600435610fb181610422565b608060409283928351610fc381610535565b60009381858093528260208201528287820152826060820152015216815280602052209061105265ffffffffffff6001835194610fff86610535565b80546dffffffffffffffffffffffffffff8082168852607082901c60ff161515602089015260789190911c1685870152015463ffffffff8116606086015260201c16608084019065ffffffffffff169052565b5191829182919091608065ffffffffffff8160a08401956dffffffffffffffffffffffffffff808251168652602082015115156020870152604082015116604086015263ffffffff6060820151166060860152015116910152565b50346103595760207ffffffffffffffffffffffffffffffffffffffffffffffffffffffffffffffffc3601126103595773ffffffffffffffffffffffffffffffffffffffff6004356110fe81610422565b16600052600060205260206dffffffffffffffffffffffffffff60406000205416604051908152f35b600091031261035957565b50346103595760007ffffffffffffffffffffffffffffffffffffffffffffffffffffffffffffffffc36011261035957602060405160018152f35b50346103595760607ffffffffffffffffffffffffffffffffffffffffffffffffffffffffffffffffc36011261035957600467ffffffffffffffff8135818111610359576111be90369084016106c2565b9050602435916111cd83610422565b604435908111610359576111e490369085016106c2565b929091159081611336575b506112cf57601482101561123f575b610f2a836040519182917f08c379a0000000000000000000000000000000000000000000000000000000008352820160409060208152600060208201520190565b61124f61125b9261125592612b91565b90612b9f565b60601c90565b3b156112685738806111fe565b610f2a906040519182917f08c379a0000000000000000000000000000000000000000000000000000000008352820160609060208152601b60208201527f41413330207061796d6173746572206e6f74206465706c6f796564000000000060408201520190565b610f2a836040519182917f08c379a0000000000000000000000000000000000000000000000000000000008352820160609060208152601960208201527f41413230206163636f756e74206e6f74206465706c6f7965640000000000000060408201520190565b90503b15386111ef565b50346103595760207ffffffffffffffffffffffffffffffffffffffffffffffffffffffffffffffffc3601126103595760043567ffffffffffffffff81116103595761139260249136906004016106c2565b906113c86040519283927f570e1a3600000000000000000000000000000000000000000000000000000000845260048401612d35565b0360208273ffffffffffffffffffffffffffffffffffffffff92816000857f0000000000000000000000000000000000000000000000000000000000000000165af191821561147a575b60009261144a575b50604051917f6ca7b806000000000000000000000000000000000000000000000000000000008352166004820152fd5b61146c91925060203d8111611473575b61146481836105c7565b810190612d20565b903861141a565b503d61145a565b61148261218c565b611412565b90816101609103126103595790565b60207ffffffffffffffffffffffffffffffffffffffffffffffffffffffffffffffffc820112610359576004359067ffffffffffffffff8211610359576108c091600401611487565b50346103595760206114f86114f336611496565b612a15565b604051908152f35b5060207ffffffffffffffffffffffffffffffffffffffffffffffffffffffffffffffffc3601126103595761002160043561153a81610422565b6156f3565b5034610359576000807ffffffffffffffffffffffffffffffffffffffffffffffffffffffffffffffffc3601126116ba573381528060205260408120600181019063ffffffff82541690811561165c576115f96115be611621936115b06115ab855460ff9060701c1690565b615a57565b65ffffffffffff4216615abc565b84547fffffffffffffffffffffffffffffffffffffffffffff000000000000ffffffff16602082901b69ffffffffffff000000001617909455565b7fffffffffffffffffffffffffffffffffff00ffffffffffffffffffffffffffff8154169055565b60405165ffffffffffff91909116815233907ffa9b3c14cc825c412c9ed81b3ba365a5b459439403f18829e572ed53a4180f0a90602090a280f35b60646040517f08c379a000000000000000000000000000000000000000000000000000000000815260206004820152600a60248201527f6e6f74207374616b6564000000000000000000000000000000000000000000006044820152fd5b80fd5b50346103595760207ffffffffffffffffffffffffffffffffffffffffffffffffffffffffffffffffc360112610359576004356116f981610422565b610adb73ffffffffffffffffffffffffffffffffffffffff61173b3373ffffffffffffffffffffffffffffffffffffffff166000526000602052604060002090565b926117f361175e610a3586546dffffffffffffffffffffffffffff9060781c1690565b9461176a861515615ad6565b6117cb600182016117a365ffffffffffff61178f835465ffffffffffff9060201c1690565b1661179b811515615b3b565b421015615ba0565b80547fffffffffffffffffffffffffffffffffffffffffffff00000000000000000000169055565b7fffffff0000000000000000000000000000ffffffffffffffffffffffffffffff8154169055565b6040805173ffffffffffffffffffffffffffffffffffffffff831681526020810186905233917fb7c918e0e249f999e965cafeb6c664271b3f4317d296461500e71da39f0cbda391a2600080809581948294165af1611850611eb0565b50615c05565b50346103595760607ffffffffffffffffffffffffffffffffffffffffffffffffffffffffffffffffc3601126103595767ffffffffffffffff600435818111610359576118a7903690600401611487565b602435916118b483610422565b604435908111610359576118cf610f2a9136906004016106c2565b6118d7611cb3565b6118e085612e34565b6118f36118ed8287613249565b90615482565b94611903826000924384526121eb565b96438252819360609573ffffffffffffffffffffffffffffffffffffffff831661198a575b5050505060800151936119576040611949602084015165ffffffffffff1690565b92015165ffffffffffff1690565b906040519687967f8b7ac980000000000000000000000000000000000000000000000000000000008852600488016127ea565b839550839496506119a460409492939451809481936127dc565b03925af19060806119b3611eb0565b929190388080611928565b5034610359576119cd36611496565b6119d5611cb3565b6119de82612e34565b6119e88183613249565b825160a00151919391611a159073ffffffffffffffffffffffffffffffffffffffff166155a4565b6155a4565b90611a39611a10855173ffffffffffffffffffffffffffffffffffffffff90511690565b94611a42612b59565b50611a71611a5560409586810190611fd1565b90600060148310611bce575061124f611a109261125592612b91565b91611a7b91615482565b805173ffffffffffffffffffffffffffffffffffffffff169073ffffffffffffffffffffffffffffffffffffffff821660018114916080880151978781015191886020820151611ad09065ffffffffffff1690565b91015165ffffffffffff16916060015192611ae9610615565b9a8b5260208b0152841515898b015265ffffffffffff1660608a015265ffffffffffff16608089015260a088015215159081611bc5575b50611b5a5750610f2a92519485947fe0cff05f00000000000000000000000000000000000000000000000000000000865260048601612cc6565b9190610f2a93611b69846155a4565b611b90611b74610635565b73ffffffffffffffffffffffffffffffffffffffff9096168652565b6020850152519586957ffaecb4e400000000000000000000000000000000000000000000000000000000875260048701612c34565b90501538611b20565b9150506155a4565b50346103595760207ffffffffffffffffffffffffffffffffffffffffffffffffffffffffffffffffc3601126103595773ffffffffffffffffffffffffffffffffffffffff600435611c2781610422565b16600052600060205260a0604060002065ffffffffffff60018254920154604051926dffffffffffffffffffffffffffff90818116855260ff8160701c161515602086015260781c16604084015263ffffffff8116606084015260201c166080820152f35b60209067ffffffffffffffff8111611ca6575b60051b0190565b611cae610505565b611c9f565b60405190611cc082610535565b604051608083610100830167ffffffffffffffff811184821017611d29575b60405260009283815283602082015283604082015283606082015283838201528360a08201528360c08201528360e082015281528260208201528260408201528260608201520152565b611d31610505565b611cdf565b90611d4082611c8c565b611d4d60405191826105c7565b8281527fffffffffffffffffffffffffffffffffffffffffffffffffffffffffffffffe0611d7b8294611c8c565b019060005b828110611d8c57505050565b602090611d97611cb3565b82828501015201611d80565b507f4e487b7100000000000000000000000000000000000000000000000000000000600052603260045260246000fd5b6020918151811015611de8575b60051b010190565b611df0611da3565b611de0565b9190811015611e36575b60051b810135907ffffffffffffffffffffffffffffffffffffffffffffffffffffffffffffffea181360301821215610359570190565b611e3e611da3565b611dff565b6002805414611e525760028055565b60646040517f08c379a000000000000000000000000000000000000000000000000000000000815260206004820152601f60248201527f5265656e7472616e637947756172643a207265656e7472616e742063616c6c006044820152fd5b3d15611edb573d90611ec182610642565b91611ecf60405193846105c7565b82523d6000602084013e565b606090565b73ffffffffffffffffffffffffffffffffffffffff168015611f7357600080809381935af1611f0d611eb0565b5015611f1557565b60646040517f08c379a000000000000000000000000000000000000000000000000000000000815260206004820152601f60248201527f41413931206661696c65642073656e6420746f2062656e6566696369617279006044820152fd5b60646040517f08c379a000000000000000000000000000000000000000000000000000000000815260206004820152601860248201527f4141393020696e76616c69642062656e656669636961727900000000000000006044820152fd5b9035907fffffffffffffffffffffffffffffffffffffffffffffffffffffffffffffffe181360301821215610359570180359067ffffffffffffffff82116103595760200191813603831361035957565b90816020910312610359575190565b601f82602094937fffffffffffffffffffffffffffffffffffffffffffffffffffffffffffffffe0938186528686013760008582860101520116010190565b60005b8381106120835750506000910152565b8181015183820152602001612073565b907fffffffffffffffffffffffffffffffffffffffffffffffffffffffffffffffe0601f6020936120cf81518092818752878088019101612070565b0116010190565b906120f06080916108c096946101c0808652850191612031565b9360e0815173ffffffffffffffffffffffffffffffffffffffff80825116602087015260208201516040870152604082015160608701526060820151858701528482015160a087015260a08201511660c086015260c081015182860152015161010084015260208101516101208401526040810151610140840152606081015161016084015201516101808201526101a0818403910152612093565b506040513d6000823e3d90fd5b507f4e487b7100000000000000000000000000000000000000000000000000000000600052601160045260246000fd5b919082039182116121d657565b61044d612199565b919082018092116121d657565b905a918160206122046060830151936060810190611fd1565b9061223d8560405195869485947f1d732756000000000000000000000000000000000000000000000000000000008652600486016120d6565b03816000305af160009181612318575b50612311575060206000803e7fdeaddead00000000000000000000000000000000000000000000000000000000600051146122a45761229e6122936108c0945a906121c9565b6080840151906121de565b91614b77565b6040517f220266b600000000000000000000000000000000000000000000000000000000815280610f2a600482016080906000815260406020820152600f60408201527f41413935206f7574206f6620676173000000000000000000000000000000000060608201520190565b9250505090565b61233a91925060203d8111612341575b61233281836105c7565b810190612022565b903861224d565b503d612328565b909291925a938060206123646060830151946060810190611fd1565b9061239d8660405195869485947f1d732756000000000000000000000000000000000000000000000000000000008652600486016120d6565b03816000305af16000918161247a575b50612473575060206000803e7fdeaddead0000000000000000000000000000000000000000000000000000000060005114612405576123ff6123f46108c095965a906121c9565b6080830151906121de565b92614e77565b610f2a836040519182917f220266b600000000000000000000000000000000000000000000000000000000835260048301608091815260406020820152600f60408201527f41413935206f7574206f6620676173000000000000000000000000000000000060608201520190565b9450505050565b61249391925060203d81116123415761233281836105c7565b90386123ad565b6001907fffffffffffffffffffffffffffffffffffffffffffffffffffffffffffffffff81146124c8570190565b6124d0612199565b0190565b9190811015612515575b60051b810135907fffffffffffffffffffffffffffffffffffffffffffffffffffffffffffffffa181360301821215610359570190565b61251d611da3565b6124de565b9035907fffffffffffffffffffffffffffffffffffffffffffffffffffffffffffffffe181360301821215610359570180359067ffffffffffffffff821161035957602001918160051b3603831361035957565b356108c081610422565b1561258757565b60646040517f08c379a000000000000000000000000000000000000000000000000000000000815260206004820152601760248201527f4141393620696e76616c69642061676772656761746f720000000000000000006044820152fd5b90357fffffffffffffffffffffffffffffffffffffffffffffffffffffffffffffffe18236030181121561035957016020813591019167ffffffffffffffff821161035957813603831361035957565b6108c091612660816126468461045c565b73ffffffffffffffffffffffffffffffffffffffff169052565b602082013560208201526126fb6126ac61269161268060408601866125e5565b610160806040880152860191612031565b61269e60608601866125e5565b908583036060870152612031565b6080840135608084015260a084013560a084015260c084013560c084015260e084013560e084015261010080850135908401526101206126ee818601866125e5565b9185840390860152612031565b9161270c61014091828101906125e5565b929091818503910152612031565b949391929083604087016040885252606086019360608160051b8801019482600090815b84831061275d575050505050508460206108c095968503910152612031565b9091929394977fffffffffffffffffffffffffffffffffffffffffffffffffffffffffffffffa08b820301855288357ffffffffffffffffffffffffffffffffffffffffffffffffffffffffffffffea1843603018112156127d857600191846127c69201612635565b9860209081019695019301919061273e565b8280fd5b908092918237016000815290565b9290936108c096959260c0958552602085015265ffffffffffff8092166040850152166060830152151560808201528160a08201520190612093565b1561282d57565b60646040517f08c379a000000000000000000000000000000000000000000000000000000000815260206004820152601760248201527f4141393220696e7465726e616c2063616c6c206f6e6c790000000000000000006044820152fd5b9060406108c092600081528160208201520190612093565b6040906108c0939281528160208201520190612093565b909291925a936128cb303314612826565b8151946040860151955a6113886060830151890101116129eb576108c0966000958051612912575b5050509061290c915a900360808401510194369161068b565b916150f7565b6129419161293d91612938855173ffffffffffffffffffffffffffffffffffffffff1690565b615cda565b1590565b61294d575b80806128f3565b61290c9291945061295c615cec565b908151612970575b50506001939091612946565b7f1c4fada7374c0a9ee8841fc38afe82932dc0f8e69012e927f061a8bae611a20173ffffffffffffffffffffffffffffffffffffffff6020870151926129e160206129cf835173ffffffffffffffffffffffffffffffffffffffff1690565b920151956040519384931696836128a3565b0390a33880612964565b7fdeaddead0000000000000000000000000000000000000000000000000000000060005260206000fd5b612a2b612a256040830183611fd1565b90615ccf565b90612a3c612a256060830183611fd1565b90612af2612a51612a25610120840184611fd1565b60405194859360208501956101008201359260e08301359260c08101359260a08201359260808301359273ffffffffffffffffffffffffffffffffffffffff60208201359135168c9693909a9998959261012098959273ffffffffffffffffffffffffffffffffffffffff6101408a019d168952602089015260408801526060870152608086015260a085015260c084015260e08301526101008201520152565b0391612b247fffffffffffffffffffffffffffffffffffffffffffffffffffffffffffffffe0938481018352826105c7565b51902060408051602081019283523091810191909152466060820152608092830181529091612b5390826105c7565b51902090565b604051906040820182811067ffffffffffffffff821117612b84575b60405260006020838281520152565b612b8c610505565b612b75565b906014116103595790601490565b7fffffffffffffffffffffffffffffffffffffffff0000000000000000000000009035818116939260148110612bd457505050565b60140360031b82901b16169150565b9060c060a06108c093805184526020810151602085015260408101511515604085015265ffffffffffff80606083015116606086015260808201511660808501520151918160a08201520190612093565b9294612c9561044d95612c83610100959998612c71612c5d602097610140808c528b0190612be3565b9b878a019060208091805184520151910152565b80516060890152602001516080880152565b805160a08701526020015160c0860152565b73ffffffffffffffffffffffffffffffffffffffff81511660e0850152015191019060208091805184520151910152565b612d0f61044d94612cfd612ce860a0959998969960e0865260e0860190612be3565b98602085019060208091805184520151910152565b80516060840152602001516080830152565b019060208091805184520151910152565b9081602091031261035957516108c081610422565b9160206108c0938181520191612031565b90612d7573ffffffffffffffffffffffffffffffffffffffff916108c097959694606085526060850191612031565b941660208201526040818503910152612031565b60009060033d11612d9657565b905060046000803e60005160e01c90565b600060443d106108c0576040517ffffffffffffffffffffffffffffffffffffffffffffffffffffffffffffffffc91823d016004833e815167ffffffffffffffff918282113d602484011117612e2357818401948551938411612e2b573d85010160208487010111612e2357506108c0929101602001906105c7565b949350505050565b50949350505050565b612e416040820182611fd1565b612e59612e4d84612576565b93610120810190611fd1565b9290303b1561035957600093612e9d9160405196879586957f957122ab00000000000000000000000000000000000000000000000000000000875260048701612d46565b0381305afa9081612f26575b5061044d576001612eb8612d89565b6308c379a014612ed1575b612ec957565b61044d61218c565b612ed9612da7565b80612ee5575b50612ec3565b80516000925015612edf57610f2a906040519182917f220266b60000000000000000000000000000000000000000000000000000000083526004830161288b565b80610f51612f339261057b565b38612ea9565b9190612f4490613188565b73ffffffffffffffffffffffffffffffffffffffff929183166130e35761307557612f6e90613188565b911661300757612f7b5750565b604080517f220266b600000000000000000000000000000000000000000000000000000000815260048101929092526024820152602160448201527f41413332207061796d61737465722065787069726564206f72206e6f7420647560648201527f6500000000000000000000000000000000000000000000000000000000000000608482015260a490fd5b610f2a826040519182917f220266b600000000000000000000000000000000000000000000000000000000835260048301608091815260406020820152601460408201527f41413334207369676e6174757265206572726f7200000000000000000000000060608201520190565b610f2a836040519182917f220266b600000000000000000000000000000000000000000000000000000000835260048301608091815260406020820152601760408201527f414132322065787069726564206f72206e6f742064756500000000000000000060608201520190565b610f2a846040519182917f220266b600000000000000000000000000000000000000000000000000000000835260048301608091815260406020820152601460408201527f41413234207369676e6174757265206572726f7200000000000000000000000060608201520190565b92919061315d90613188565b909273ffffffffffffffffffffffffffffffffffffffff808095169116036130e35761307557612f6e905b80156131db5761319790615427565b73ffffffffffffffffffffffffffffffffffffffff65ffffffffffff8060408401511642119081156131cb575b5091511691565b90506020830151164210386131c4565b50600090600090565b156131eb57565b60646040517f08c379a000000000000000000000000000000000000000000000000000000000815260206004820152601860248201527f41413934206761732076616c756573206f766572666c6f7700000000000000006044820152fd5b916000915a9381519061325c82826136bc565b61326581612a15565b60208401526132a36effffffffffffffffffffffffffffff60808401516060850151176040850151176101008401359060e0850135171711156131e4565b6132ac8261377e565b6132b781858461383f565b97906132e861293d6132dd875173ffffffffffffffffffffffffffffffffffffffff1690565b602088015190615534565b6133e4576132f543600052565b73ffffffffffffffffffffffffffffffffffffffff61332d60a0606097015173ffffffffffffffffffffffffffffffffffffffff1690565b166133ca575b505a810360a08401351061335d5760809360c092604087015260608601525a900391013501910152565b6040517f220266b600000000000000000000000000000000000000000000000000000000815280610f2a600482016080906000815260406020820152601e60408201527f41413430206f76657220766572696669636174696f6e4761734c696d6974000060608201520190565b909350816133db9297508584614565565b95909238613333565b6040517f220266b600000000000000000000000000000000000000000000000000000000815280610f2a600482016080906000815260406020820152601a60408201527f4141323520696e76616c6964206163636f756e74206e6f6e636500000000000060608201520190565b9290916000925a825161346481846136bc565b61346d83612a15565b60208501526134ab6effffffffffffffffffffffffffffff60808301516060840151176040840151176101008601359060e0870135171711156131e4565b6134b48161377e565b6134c08186868b613bab565b98906134f161293d6134e6865173ffffffffffffffffffffffffffffffffffffffff1690565b602087015190615534565b6135e9576134fe43600052565b73ffffffffffffffffffffffffffffffffffffffff61353660a0606096015173ffffffffffffffffffffffffffffffffffffffff1690565b166135ce575b505a840360a0860135106135685750604085015260608401526080919060c0905a900391013501910152565b604080517f220266b600000000000000000000000000000000000000000000000000000000815260048101929092526024820152601e60448201527f41413430206f76657220766572696669636174696f6e4761734c696d697400006064820152608490fd5b909250816135e09298508686856147f8565b9690913861353c565b610f2a826040519182917f220266b600000000000000000000000000000000000000000000000000000000835260048301608091815260406020820152601a60408201527f4141323520696e76616c6964206163636f756e74206e6f6e636500000000000060608201520190565b1561365e57565b60646040517f08c379a000000000000000000000000000000000000000000000000000000000815260206004820152601d60248201527f4141393320696e76616c6964207061796d6173746572416e64446174610000006044820152fd5b61372e906136e66136cc82612576565b73ffffffffffffffffffffffffffffffffffffffff168452565b602081013560208401526080810135604084015260a0810135606084015260c0810135608084015260e081013560c084015261010081013560e0840152610120810190611fd1565b9081156137735761375861125561124f8460a094613753601461044d99981015613657565b612b91565b73ffffffffffffffffffffffffffffffffffffffff16910152565b505060a06000910152565b60a081015173ffffffffffffffffffffffffffffffffffffffff16156137c05760c060035b60ff60408401519116606084015102016080830151019101510290565b60c060016137a3565b6137e160409295949395606083526060830190612635565b9460208201520152565b9061044d602f60405180947f414132332072657665727465643a200000000000000000000000000000000000602083015261382f8151809260208686019101612070565b810103600f8101855201836105c7565b916000926000925a9361390d602083519361386e855173ffffffffffffffffffffffffffffffffffffffff1690565b9561388661387f6040830183611fd1565b9084613e16565b60a086015173ffffffffffffffffffffffffffffffffffffffff16906138ab43600052565b85809373ffffffffffffffffffffffffffffffffffffffff809416159889613b43575b60600151908601516040517f3a871cdd0000000000000000000000000000000000000000000000000000000081529788968795869390600485016137c9565b03938a1690f1829181613b23575b50613b1a575060019061392c612d89565b6308c379a014613ac6575b50613a59575b61394a575b50505a900391565b6139749073ffffffffffffffffffffffffffffffffffffffff166000526000602052604060002090565b61398f610a3582546dffffffffffffffffffffffffffff1690565b8083116139ec576139e5926dffffffffffffffffffffffffffff9103166dffffffffffffffffffffffffffff167fffffffffffffffffffffffffffffffffffff0000000000000000000000000000825416179055565b3880613942565b6040517f220266b600000000000000000000000000000000000000000000000000000000815280610f2a600482016080906000815260406020820152601760408201527f41413231206469646e2774207061792070726566756e6400000000000000000060608201520190565b6040517f220266b600000000000000000000000000000000000000000000000000000000815280610f2a600482016080906000815260406020820152601660408201527f4141323320726576657274656420286f72204f4f47290000000000000000000060608201520190565b613ace612da7565b9081613ada5750613937565b610f2a91613ae891506137eb565b6040519182917f220266b60000000000000000000000000000000000000000000000000000000083526004830161288b565b955061393d9050565b613b3c91925060203d81116123415761233281836105c7565b903861391b565b9450613b89610a35613b758c73ffffffffffffffffffffffffffffffffffffffff166000526000602052604060002090565b546dffffffffffffffffffffffffffff1690565b8b811115613ba05750856060835b969150506138ce565b606087918d03613b97565b90926000936000935a94613bf46020835193613bdb855173ffffffffffffffffffffffffffffffffffffffff1690565b95613886613bec6040830183611fd1565b90848c614134565b03938a1690f1829181613df6575b50613ded5750600190613c13612d89565b6308c379a014613d97575b50613d29575b613c32575b5050505a900391565b613c5c9073ffffffffffffffffffffffffffffffffffffffff166000526000602052604060002090565b91613c78610a3584546dffffffffffffffffffffffffffff1690565b90818311613cc3575082547fffffffffffffffffffffffffffffffffffff0000000000000000000000000000169190036dffffffffffffffffffffffffffff16179055388080613c29565b604080517f220266b600000000000000000000000000000000000000000000000000000000815260048101929092526024820152601760448201527f41413231206469646e2774207061792070726566756e640000000000000000006064820152608490fd5b610f2a846040519182917f220266b600000000000000000000000000000000000000000000000000000000835260048301608091815260406020820152601660408201527f4141323320726576657274656420286f72204f4f47290000000000000000000060608201520190565b613d9f612da7565b9081613dab5750613c1e565b8691613db791506137eb565b90610f2a6040519283927f220266b6000000000000000000000000000000000000000000000000000000008452600484016128a3565b9650613c249050565b613e0f91925060203d81116123415761233281836105c7565b9038613c02565b909180613e2257505050565b81515173ffffffffffffffffffffffffffffffffffffffff1692833b6140c757606083510151604051907f570e1a3600000000000000000000000000000000000000000000000000000000825260208280613e81878760048401612d35565b0381600073ffffffffffffffffffffffffffffffffffffffff95867f00000000000000000000000000000000000000000000000000000000000000001690f19182156140ba575b60009261409a575b5080821695861561402d5716809503613fc0573b15613f535761125561124f7fd51a9c61267aa6196961883ecf5ff2da6619c37dac0fa92122513fb32c032d2d93613f1a93612b91565b602083810151935160a001516040805173ffffffffffffffffffffffffffffffffffffffff9485168152939091169183019190915290a3565b6040517f220266b600000000000000000000000000000000000000000000000000000000815280610f2a600482016080906000815260406020820152602060408201527f4141313520696e6974436f6465206d757374206372656174652073656e64657260608201520190565b6040517f220266b600000000000000000000000000000000000000000000000000000000815280610f2a600482016080906000815260406020820152602060408201527f4141313420696e6974436f6465206d7573742072657475726e2073656e64657260608201520190565b6040517f220266b600000000000000000000000000000000000000000000000000000000815280610f2a600482016080906000815260406020820152601b60408201527f4141313320696e6974436f6465206661696c6564206f72204f4f47000000000060608201520190565b6140b391925060203d81116114735761146481836105c7565b9038613ed0565b6140c261218c565b613ec8565b6040517f220266b600000000000000000000000000000000000000000000000000000000815280610f2a600482016080906000815260406020820152601f60408201527f414131302073656e64657220616c726561647920636f6e73747275637465640060608201520190565b92909181614143575b50505050565b82515173ffffffffffffffffffffffffffffffffffffffff1693843b6143eb57606084510151604051907f570e1a36000000000000000000000000000000000000000000000000000000008252602082806141a2888860048401612d35565b0381600073ffffffffffffffffffffffffffffffffffffffff95867f00000000000000000000000000000000000000000000000000000000000000001690f19182156143de575b6000926143be575b5080821696871561435057168096036142e2573b1561427c575061125561124f7fd51a9c61267aa6196961883ecf5ff2da6619c37dac0fa92122513fb32c032d2d9361423c93612b91565b602083810151935160a001516040805173ffffffffffffffffffffffffffffffffffffffff9485168152939091169183019190915290a33880808061413d565b604080517f220266b600000000000000000000000000000000000000000000000000000000815260048101929092526024820152602060448201527f4141313520696e6974436f6465206d757374206372656174652073656e6465726064820152608490fd5b610f2a826040519182917f220266b600000000000000000000000000000000000000000000000000000000835260048301608091815260406020820152602060408201527f4141313420696e6974436f6465206d7573742072657475726e2073656e64657260608201520190565b610f2a846040519182917f220266b600000000000000000000000000000000000000000000000000000000835260048301608091815260406020820152601b60408201527f4141313320696e6974436f6465206661696c6564206f72204f4f47000000000060608201520190565b6143d791925060203d81116114735761146481836105c7565b90386141f1565b6143e661218c565b6141e9565b604080517f220266b600000000000000000000000000000000000000000000000000000000815260048101929092526024820152601f60448201527f414131302073656e64657220616c726561647920636f6e7374727563746564006064820152608490fd5b1561445857565b60646040517f08c379a000000000000000000000000000000000000000000000000000000000815260206004820152601f60248201527f4141343120746f6f206c6974746c6520766572696669636174696f6e476173006044820152fd5b919060408382031261035957825167ffffffffffffffff81116103595783019080601f83011215610359578151916144ed83610642565b916144fb60405193846105c7565b838352602084830101116103595760209261451b91848085019101612070565b92015190565b9061044d602f60405180947f414133332072657665727465643a200000000000000000000000000000000000602083015261382f8151809260208686019101612070565b9391926060946000946000938051926145a460a08a86015195614589888811614451565b015173ffffffffffffffffffffffffffffffffffffffff1690565b916145cf8373ffffffffffffffffffffffffffffffffffffffff166000526000602052604060002090565b946145eb610a3587546dffffffffffffffffffffffffffff1690565b9685881061478b5773ffffffffffffffffffffffffffffffffffffffff60208a98946146618a966dffffffffffffffffffffffffffff8b61469a9e03166dffffffffffffffffffffffffffff167fffffffffffffffffffffffffffffffffffff0000000000000000000000000000825416179055565b015194604051998a98899788937ff465c77e000000000000000000000000000000000000000000000000000000008552600485016137c9565b0395169103f1908183918493614765575b5061475e5750506001906146bd612d89565b6308c379a01461473c575b506146cf57565b6040517f220266b600000000000000000000000000000000000000000000000000000000815280610f2a600482016080906000815260406020820152601660408201527f4141333320726576657274656420286f72204f4f47290000000000000000000060608201520190565b614744612da7565b908161475057506146c8565b610f2a91613ae89150614521565b9450925050565b90925061478491503d8085833e61477c81836105c7565b8101906144b6565b91386146ab565b6040517f220266b600000000000000000000000000000000000000000000000000000000815280610f2a600482016080906000815260406020820152601e60408201527f41413331207061796d6173746572206465706f73697420746f6f206c6f77000060608201520190565b91949293909360609560009560009382519061481f60a08b84015193614589848611614451565b9361484a8573ffffffffffffffffffffffffffffffffffffffff166000526000602052604060002090565b614865610a3582546dffffffffffffffffffffffffffff1690565b8781106149c0579273ffffffffffffffffffffffffffffffffffffffff60208a989693946146618a966dffffffffffffffffffffffffffff8d6148df9e9c9a03166dffffffffffffffffffffffffffff167fffffffffffffffffffffffffffffffffffff0000000000000000000000000000825416179055565b0395169103f19081839184936149a2575b5061499a575050600190614902612d89565b6308c379a01461497b575b506149155750565b604080517f220266b600000000000000000000000000000000000000000000000000000000815260048101929092526024820152601660448201527f4141333320726576657274656420286f72204f4f4729000000000000000000006064820152608490fd5b614983612da7565b908161498f575061490d565b613db7925050614521565b955093505050565b9092506149b991503d8085833e61477c81836105c7565b91386148f0565b610f2a8a6040519182917f220266b600000000000000000000000000000000000000000000000000000000835260048301608091815260406020820152601e60408201527f41413331207061796d6173746572206465706f73697420746f6f206c6f77000060608201520190565b60031115614a3857565b7f4e487b7100000000000000000000000000000000000000000000000000000000600052602160045260246000fd5b929190614a8560409160028652606060208701526060860190612093565b930152565b939291906003811015614a3857604091614a85918652606060208701526060860190612093565b9061044d603660405180947f4141353020706f73744f702072657665727465643a20000000000000000000006020830152614af58151809260208686019101612070565b81010360168101855201836105c7565b60405190614b12826105ab565b600d82527f61637475616c4761733a202573000000000000000000000000000000000000006020830152565b60405190614b4b826105ab565b600c82527f67617350726963653a20257300000000000000000000000000000000000000006020830152565b929190925a93600091805191614b8c836153e0565b9260a0810195614bb0875173ffffffffffffffffffffffffffffffffffffffff1690565b73ffffffffffffffffffffffffffffffffffffffff93908481169081614d3c57505050614bf1825173ffffffffffffffffffffffffffffffffffffffff1690565b985b5a90030193614c0985614c04614b05565b615d1b565b614c1581614c04614b3e565b840297604084019089825110614ccf577f49628fd1471006c1482da88028e9ce4dbb080b815c9b0344d39e5a8e6ec1419f94614c5a6020928c614cca95510390615602565b015194896020614c9c614c81865173ffffffffffffffffffffffffffffffffffffffff1690565b9a5173ffffffffffffffffffffffffffffffffffffffff1690565b9401519785604051968796169a16988590949392606092608083019683521515602083015260408201520152565b0390a4565b6040517f220266b600000000000000000000000000000000000000000000000000000000815280610f2a600482016080906000815260406020820152602060408201527f414135312070726566756e642062656c6f772061637475616c476173436f737460608201520190565b9a918051614d4c575b5050614bf3565b6060850151600099509091803b15614e73579189918983614d9f956040518097819682957fa9a234090000000000000000000000000000000000000000000000000000000084528c029060048401614a67565b0393f19081614e60575b50614e5b576001614db8612d89565b6308c379a014614e3c575b614dcf575b3880614d45565b6040517f220266b600000000000000000000000000000000000000000000000000000000815280610f2a600482016080906000815260406020820152601260408201527f4141353020706f73744f7020726576657274000000000000000000000000000060608201520190565b614e44612da7565b80614e4f5750614dc3565b613ae8610f2a91614ab1565b614dc8565b80610f51614e6d9261057b565b38614da9565b8980fd5b9392915a90600092805190614e8b826153e0565b9360a0830196614eaf885173ffffffffffffffffffffffffffffffffffffffff1690565b73ffffffffffffffffffffffffffffffffffffffff95908681169081614fbd57505050614ef0845173ffffffffffffffffffffffffffffffffffffffff1690565b915b5a90030194614f0386614c04614b05565b614f0f81614c04614b3e565b85029860408301908a825110614f5757507f49628fd1471006c1482da88028e9ce4dbb080b815c9b0344d39e5a8e6ec1419f949392614c5a614cca938c602094510390615602565b604080517f220266b600000000000000000000000000000000000000000000000000000000815260048101929092526024820152602060448201527f414135312070726566756e642062656c6f772061637475616c476173436f73746064820152608490fd5b93918051614fcd575b5050614ef2565b606087015160009a509091803b156150f357918a918a83615020956040518097819682957fa9a234090000000000000000000000000000000000000000000000000000000084528c029060048401614a67565b0393f190816150e0575b506150db576001615039612d89565b6308c379a0146150be575b615050575b3880614fc6565b610f2a8b6040519182917f220266b600000000000000000000000000000000000000000000000000000000835260048301608091815260406020820152601260408201527f4141353020706f73744f7020726576657274000000000000000000000000000060608201520190565b6150c6612da7565b806150d15750615044565b613db78d91614ab1565b615049565b80610f516150ed9261057b565b3861502a565b8a80fd5b909392915a94805191615109836153e0565b9260a081019561512d875173ffffffffffffffffffffffffffffffffffffffff1690565b73ffffffffffffffffffffffffffffffffffffffff93818516918261522d5750505061516d825173ffffffffffffffffffffffffffffffffffffffff1690565b985b5a9003019361518085614c04614b05565b61518c81614c04614b3e565b840297604084019089825110614ccf577f49628fd1471006c1482da88028e9ce4dbb080b815c9b0344d39e5a8e6ec1419f946151d16020928c614cca95510390615602565b6151da88614a2e565b015194896020615201614c81865173ffffffffffffffffffffffffffffffffffffffff1690565b940151604080519182529815602082015297880152606087015290821695909116939081906080820190565b9a91815161523d575b505061516f565b8784026152498a614a2e565b60028a146152d4576060860151823b156103595761529c93600080948d604051978896879586937fa9a2340900000000000000000000000000000000000000000000000000000000855260048501614a8a565b0393f180156152c7575b6152b4575b505b3880615236565b80610f516152c19261057b565b386152ab565b6152cf61218c565b6152a6565b6060860151823b156103595761531f93600080948d604051978896879586937fa9a2340900000000000000000000000000000000000000000000000000000000855260048501614a8a565b0393f190816153cd575b506153c8576001615338612d89565b6308c379a0146153b5575b156152ad576040517f220266b600000000000000000000000000000000000000000000000000000000815280610f2a600482016080906000815260406020820152601260408201527f4141353020706f73744f7020726576657274000000000000000000000000000060608201520190565b6153bd612da7565b80614e4f5750615343565b6152ad565b80610f516153da9261057b565b38615329565b60e060c0820151910151808214615404574801808210156153ff575090565b905090565b5090565b604051906154158261058f565b60006040838281528260208201520152565b61542f615408565b5065ffffffffffff808260a01c16801561547b575b604051926154518461058f565b73ffffffffffffffffffffffffffffffffffffffff8116845260d01c602084015216604082015290565b5080615444565b61549761549d91615491615408565b50615427565b91615427565b9073ffffffffffffffffffffffffffffffffffffffff9182825116928315615529575b65ffffffffffff928391826040816020850151169301511693836040816020840151169201511690808410615521575b50808511615519575b50604051956155078761058f565b16855216602084015216604082015290565b9350386154f9565b9250386154f0565b8151811693506154c0565b73ffffffffffffffffffffffffffffffffffffffff16600052600160205267ffffffffffffffff6155908260401c60406000209077ffffffffffffffffffffffffffffffffffffffffffffffff16600052602052604060002090565b9182549261559d8461249a565b9055161490565b9073ffffffffffffffffffffffffffffffffffffffff6155c2612b59565b9216600052600060205263ffffffff600160406000206dffffffffffffffffffffffffffff815460781c1685520154166020830152565b61044d336156f3565b73ffffffffffffffffffffffffffffffffffffffff16600052600060205260406000206dffffffffffffffffffffffffffff808254169283018093116156e6575b8083116156885761044d92166dffffffffffffffffffffffffffff167fffffffffffffffffffffffffffffffffffff0000000000000000000000000000825416179055565b60646040517f08c379a000000000000000000000000000000000000000000000000000000000815260206004820152601060248201527f6465706f736974206f766572666c6f77000000000000000000000000000000006044820152fd5b6156ee612199565b615643565b73ffffffffffffffffffffffffffffffffffffffff906157133482615602565b168060005260006020527f2da466a7b24304f47e87fa2e1e5a81b9831ce54fec19055ce277ca2f39ba42c460206dffffffffffffffffffffffffffff60406000205416604051908152a2565b1561576657565b60646040517f08c379a000000000000000000000000000000000000000000000000000000000815260206004820152601a60248201527f6d757374207370656369667920756e7374616b652064656c61790000000000006044820152fd5b156157cb57565b60646040517f08c379a000000000000000000000000000000000000000000000000000000000815260206004820152601c60248201527f63616e6e6f7420646563726561736520756e7374616b652074696d65000000006044820152fd5b1561583057565b60646040517f08c379a000000000000000000000000000000000000000000000000000000000815260206004820152601260248201527f6e6f207374616b652073706563696669656400000000000000000000000000006044820152fd5b1561589557565b60646040517f08c379a000000000000000000000000000000000000000000000000000000000815260206004820152600e60248201527f7374616b65206f766572666c6f770000000000000000000000000000000000006044820152fd5b9065ffffffffffff6080600161044d946159536dffffffffffffffffffffffffffff86511682906dffffffffffffffffffffffffffff167fffffffffffffffffffffffffffffffffffff0000000000000000000000000000825416179055565b602085015115156eff000000000000000000000000000082549160701b16807fffffffffffffffffffffffffffffffffff00ffffffffffffffffffffffffffff83161783557fffffff000000000000000000000000000000ffffffffffffffffffffffffffff7cffffffffffffffffffffffffffff000000000000000000000000000000604089015160781b16921617178155019263ffffffff6060820151167fffffffffffffffffffffffffffffffffffffffffffffffffffffffff000000008554161784550151167fffffffffffffffffffffffffffffffffffffffffffff000000000000ffffffff69ffffffffffff0000000083549260201b169116179055565b15615a5e57565b60646040517f08c379a000000000000000000000000000000000000000000000000000000000815260206004820152601160248201527f616c726561647920756e7374616b696e670000000000000000000000000000006044820152fd5b91909165ffffffffffff808094169116019182116121d657565b15615add57565b60646040517f08c379a000000000000000000000000000000000000000000000000000000000815260206004820152601460248201527f4e6f207374616b6520746f2077697468647261770000000000000000000000006044820152fd5b15615b4257565b60646040517f08c379a000000000000000000000000000000000000000000000000000000000815260206004820152601d60248201527f6d7573742063616c6c20756e6c6f636b5374616b6528292066697273740000006044820152fd5b15615ba757565b60646040517f08c379a000000000000000000000000000000000000000000000000000000000815260206004820152601b60248201527f5374616b65207769746864726177616c206973206e6f742064756500000000006044820152fd5b15615c0c57565b60646040517f08c379a000000000000000000000000000000000000000000000000000000000815260206004820152601860248201527f6661696c656420746f207769746864726177207374616b6500000000000000006044820152fd5b15615c7157565b60646040517f08c379a000000000000000000000000000000000000000000000000000000000815260206004820152601260248201527f6661696c656420746f20776974686472617700000000000000000000000000006044820152fd5b816040519182372090565b9060009283809360208451940192f190565b3d610800808211615d13575b50604051906020818301016040528082526000602083013e90565b905038615cf8565b600091908291615d976040518092615d6560208301957fb60e72cc000000000000000000000000000000000000000000000000000000008752604060248501526064840190612093565b906044830152037fffffffffffffffffffffffffffffffffffffffffffffffffffffffffffffffe081018352826105c7565b51906a636f6e736f6c652e6c6f675afa5056fea26469706673582212202f9874ae22d179b8c74d652e0a33ce734406ba34d7c84d2b8bd04eec2a38753e64736f6c634300081100336080806040523461001657610210908161001c8239f35b600080fdfe6080604052600436101561001257600080fd5b6000803560e01c63570e1a361461002857600080fd5b346100c95760207ffffffffffffffffffffffffffffffffffffffffffffffffffffffffffffffffc3601126100c95760043567ffffffffffffffff918282116100c957366023830112156100c95781600401359283116100c95736602484840101116100c9576100c561009e84602485016100fc565b60405173ffffffffffffffffffffffffffffffffffffffff90911681529081906020820190565b0390f35b80fd5b507f4e487b7100000000000000000000000000000000000000000000000000000000600052604160045260246000fd5b90806014116101bb5767ffffffffffffffff917fffffffffffffffffffffffffffffffffffffffffffffffffffffffffffffffec82018381116101cd575b604051937fffffffffffffffffffffffffffffffffffffffffffffffffffffffffffffffe0603f81600b8701160116850190858210908211176101c0575b604052808452602084019036848401116101bb576020946000600c819682946014880187378301015251923560601c5af19060005191156101b557565b60009150565b600080fd5b6101c86100cc565b610178565b6101d56100cc565b61013a56fea26469706673582212201927e80b76ab9b71c952137dd676621a9fdf520c25928815636594036eb1c40364736f6c63430008110033",
  "linkReferences": {},
  "deployedLinkReferences": {}
}