{
  "_format": "hh-sol-artifact-1",
  "contractName": "SharedStorageFactory",
  "sourceName": "contracts/samples/SharedStoreageFactory.sol",
  "abi": [
    {
      "inputs": [
        {
          "internalType": "contract IEntryPoint",
          "name": "_anEntryPoint",
          "type": "address"
        },
        {
          "internalType": "address",
          "name": "_guardianStorage",
          "type": "address"
        }
      ],
      "stateMutability": "nonpayable",
      "type": "constructor"
    },
    {
      "inputs": [],
      "name": "_entryPoint",
      "outputs": [
        {
          "internalType": "contract IEntryPoint",
          "name": "",
          "type": "address"
        }
      ],
      "stateMutability": "view",
      "type": "function"
    },
    {
      "inputs": [],
      "name": "accountImplementation",
      "outputs": [
        {
          "internalType": "contract SimpleAccount",
          "name": "",
          "type": "address"
        }
      ],
      "stateMutability": "view",
      "type": "function"
    },
    {
      "inputs": [
        {
          "internalType": "address",
          "name": "owner",
          "type": "address"
        },
        {
          "internalType": "bytes32",
          "name": "_guardianId",
          "type": "bytes32"
        },
        {
          "internalType": "address",
          "name": "_module",
          "type": "address"
        },
        {
          "internalType": "uint256",
          "name": "salt",
          "type": "uint256"
        }
      ],
      "name": "createAccount",
      "outputs": [
        {
          "internalType": "contract SimpleAccount",
          "name": "ret",
          "type": "address"
        }
      ],
      "stateMutability": "nonpayable",
      "type": "function"
    },
    {
      "inputs": [
        {
          "internalType": "address",
          "name": "owner",
          "type": "address"
        },
        {
          "internalType": "uint256",
          "name": "salt",
          "type": "uint256"
        },
        {
          "internalType": "bytes32",
          "name": "guardians",
          "type": "bytes32"
        },
        {
          "internalType": "address",
          "name": "_module",
          "type": "address"
        }
      ],
      "name": "getAddress",
      "outputs": [
        {
          "internalType": "address",
          "name": "",
          "type": "address"
        }
      ],
      "stateMutability": "view",
      "type": "function"
    },
    {
      "inputs": [],
      "name": "guardianStorage",
      "outputs": [
        {
          "internalType": "address",
          "name": "",
          "type": "address"
        }
      ],
      "stateMutability": "view",
      "type": "function"
    },
    {
      "inputs": [
        {
          "internalType": "contract SimpleAccount",
          "name": "_wallet",
          "type": "address"
        }
      ],
      "name": "init",
      "outputs": [],
      "stateMutability": "pure",
      "type": "function"
    }
  ],
  "bytecode": "0x60e060405234801561001057600080fd5b506040516134b93803806134b983398101604081905261002f916100a2565b6001600160a01b03821660c0526040516100489061007d565b604051809103906000f080158015610064573d6000803e3d6000fd5b506001600160a01b039081166080521660a052506100dc565b6124368061108383390190565b6001600160a01b038116811461009f57600080fd5b50565b600080604083850312156100b557600080fd5b82516100c08161008a565b60208401519092506100d18161008a565b809150509250929050565b60805160a05160c051610f5761012c6000396000818160e60152818161021601526104f6015260008181610125015261036701526000818160750152818161025601526105340152610f576000f3fe60806040523480156200001157600080fd5b50600436106200006a5760003560e01c806311464fbe146200006f57806319ab453c14620000b35780631e05e2c714620000c9578063b3080c2414620000e0578063bf3838691462000108578063d89784fc146200011f575b600080fd5b620000977f000000000000000000000000000000000000000000000000000000000000000081565b6040516001600160a01b03909116815260200160405180910390f35b620000c7620000c43660046200063c565b50565b005b62000097620000da3660046200065c565b62000147565b620000977f000000000000000000000000000000000000000000000000000000000000000081565b6200009762000119366004620006a9565b62000435565b620000977f000000000000000000000000000000000000000000000000000000000000000081565b604080516002808252606082018352600092839291906020830190803683370190505090508381600081518110620001835762000183620006f8565b60200260200101906001600160a01b031690816001600160a01b0316815250503081600181518110620001ba57620001ba620006f8565b60200260200101906001600160a01b031690816001600160a01b0316815250506000620001ea8785888862000435565b90506001600160a01b0381163b801562000209575091506200042d9050565b6040516001600160a01b037f000000000000000000000000000000000000000000000000000000000000000081166024830152808a166044830152606482018990528716608482015285907f00000000000000000000000000000000000000000000000000000000000000009060a40160408051601f198184030181529181526020820180516001600160e01b0316630a31ee5b60e41b17905251620002af9062000618565b620002bc92919062000734565b8190604051809103906000f5905080158015620002dd573d6000803e3d6000fd5b506040516369c450c960e01b81529094506001600160a01b038516906369c450c9906200030f90869060040162000778565b600060405180830381600087803b1580156200032a57600080fd5b505af11580156200033f573d6000803e3d6000fd5b505060405163be13ab2b60e01b81526001600160a01b038781166004830152602482018b90527f000000000000000000000000000000000000000000000000000000000000000016925063be13ab2b9150604401600060405180830381600087803b158015620003ae57600080fd5b505af1158015620003c3573d6000803e3d6000fd5b5050604051631f17732d60e01b8152306004820152600060248201526001600160a01b0387169250631f17732d9150604401600060405180830381600087803b1580156200041057600080fd5b505af115801562000425573d6000803e3d6000fd5b505050505050505b949350505050565b604080516002808252606082018352600092839291906020830190803683370190505090508281600081518110620004715762000471620006f8565b60200260200101906001600160a01b031690816001600160a01b0316815250503081600181518110620004a857620004a8620006f8565b6001600160a01b03909216602092830291909101820152604051620005ce91879190620004d790820162000618565b601f1982820381018352601f9091011660408190526001600160a01b037f000000000000000000000000000000000000000000000000000000000000000081166024830152808b16604483015260648201899052871660848201527f00000000000000000000000000000000000000000000000000000000000000009060a40160408051601f19818403018152918152602080830180516001600160e01b0316630a31ee5b60e41b1790529051620005929392910162000734565b60408051601f1981840301815290829052620005b29291602001620007c7565b60405160208183030381529060405280519060200120620005d8565b9695505050505050565b6000620005e7838330620005ee565b9392505050565b6000604051836040820152846020820152828152600b8101905060ff815360559020949350505050565b61072780620007fb83390190565b6001600160a01b0381168114620000c457600080fd5b6000602082840312156200064f57600080fd5b8135620005e78162000626565b600080600080608085870312156200067357600080fd5b8435620006808162000626565b9350602085013592506040850135620006998162000626565b9396929550929360600135925050565b60008060008060808587031215620006c057600080fd5b8435620006cd8162000626565b935060208501359250604085013591506060850135620006ed8162000626565b939692955090935050565b634e487b7160e01b600052603260045260246000fd5b60005b838110156200072b57818101518382015260200162000711565b50506000910152565b60018060a01b03831681526040602082015260008251806040840152620007638160608501602087016200070e565b601f01601f1916919091016060019392505050565b6020808252825182820181905260009190848201906040850190845b81811015620007bb5783516001600160a01b03168352928401929184019160010162000794565b50909695505050505050565b60008351620007db8184602088016200070e565b835190830190620007f18183602088016200070e565b0194935050505056fe608060405260405161072738038061072783398101604081905261002291610319565b61002e82826000610035565b5050610436565b61003e8361006b565b60008251118061004b5750805b156100665761006483836100ab60201b6100291760201c565b505b505050565b610074816100d7565b6040516001600160a01b038216907fbc7cd75a20ee27fd9adebab32041f755214dbc6bffa90cc0225b39da2e5c2d3b90600090a250565b60606100d08383604051806060016040528060278152602001610700602791396101a9565b9392505050565b6100ea8161022260201b6100551760201c565b6101515760405162461bcd60e51b815260206004820152602d60248201527f455243313936373a206e657720696d706c656d656e746174696f6e206973206e60448201526c1bdd08184818dbdb9d1c9858dd609a1b60648201526084015b60405180910390fd5b806101887f360894a13ba1a3210667c828492db98dca3e2076cc3735a920a3ca505d382bbc60001b61023160201b6100641760201c565b80546001600160a01b0319166001600160a01b039290921691909117905550565b6060600080856001600160a01b0316856040516101c691906103e7565b600060405180830381855af49150503d8060008114610201576040519150601f19603f3d011682016040523d82523d6000602084013e610206565b606091505b50909250905061021886838387610234565b9695505050505050565b6001600160a01b03163b151590565b90565b606083156102a357825160000361029c576001600160a01b0385163b61029c5760405162461bcd60e51b815260206004820152601d60248201527f416464726573733a2063616c6c20746f206e6f6e2d636f6e74726163740000006044820152606401610148565b50816102ad565b6102ad83836102b5565b949350505050565b8151156102c55781518083602001fd5b8060405162461bcd60e51b81526004016101489190610403565b634e487b7160e01b600052604160045260246000fd5b60005b838110156103105781810151838201526020016102f8565b50506000910152565b6000806040838503121561032c57600080fd5b82516001600160a01b038116811461034357600080fd5b60208401519092506001600160401b038082111561036057600080fd5b818501915085601f83011261037457600080fd5b815181811115610386576103866102df565b604051601f8201601f19908116603f011681019083821181831017156103ae576103ae6102df565b816040528281528860208487010111156103c757600080fd5b6103d88360208301602088016102f5565b80955050505050509250929050565b600082516103f98184602087016102f5565b9190910192915050565b60208152600082518060208401526104228160408501602087016102f5565b601f01601f19169190910160400192915050565b6102bb806104456000396000f3fe60806040523661001357610011610017565b005b6100115b610027610022610067565b61009f565b565b606061004e838360405180606001604052806027815260200161025f602791396100c3565b9392505050565b6001600160a01b03163b151590565b90565b600061009a7f360894a13ba1a3210667c828492db98dca3e2076cc3735a920a3ca505d382bbc546001600160a01b031690565b905090565b3660008037600080366000845af43d6000803e8080156100be573d6000f35b3d6000fd5b6060600080856001600160a01b0316856040516100e0919061020f565b600060405180830381855af49150503d806000811461011b576040519150601f19603f3d011682016040523d82523d6000602084013e610120565b606091505b50915091506101318683838761013b565b9695505050505050565b606083156101af5782516000036101a8576001600160a01b0385163b6101a85760405162461bcd60e51b815260206004820152601d60248201527f416464726573733a2063616c6c20746f206e6f6e2d636f6e747261637400000060448201526064015b60405180910390fd5b50816101b9565b6101b983836101c1565b949350505050565b8151156101d15781518083602001fd5b8060405162461bcd60e51b815260040161019f919061022b565b60005b838110156102065781810151838201526020016101ee565b50506000910152565b600082516102218184602087016101eb565b9190910192915050565b602081526000825180602084015261024a8160408501602087016101eb565b601f01601f1916919091016040019291505056fe416464726573733a206c6f772d6c6576656c2064656c65676174652063616c6c206661696c6564a264697066735822122047c96fd97037eafd7c208e77a83e655da1bdd54ad0afd7db9304b763d6aab8e564736f6c63430008120033416464726573733a206c6f772d6c6576656c2064656c65676174652063616c6c206661696c6564a264697066735822122064961f2c68d520e352e82ed9096bb98f28ff0438c74f72bd9c71b9624f8bb87b64736f6c6343000812003360a06040523060805234801561001457600080fd5b506080516123ea61004c6000396000818161091d0152818161095d01528181610ac501528181610b050152610b8b01526123ea6000f3fe6080604052600436106101395760003560e01c806369c450c9116100ab578063a31ee5b01161006f578063a31ee5b01461045f578063b0d691fe1461047f578063c399ec881461049d578063d087d288146104b2578063d6eb1bbf146104c7578063f7e80e98146104f757610140565b806369c450c91461039c5780636e474be7146103bc5780638d44ad62146103dc5780638da5cb5b1461040c5780638f6f03321461043257610140565b80633a871cdd116100fd5780633a871cdd146102fe5780634a58db191461032c5780634d44560d146103345780634f1ef2861461035457806352d1902d146103675780635f54892b1461037c57610140565b8063117159ca1461024157806313af40351461027e57806313da30b21461029e5780631f17732d146102be5780633659cfe6146102de57610140565b3661014057005b60006101576000356001600160e01b03191661050d565b90506001600160a01b0381166101ae57336001600160a01b0316347f606834f57405380c4fb88d1f4850326ad3885f014bab3b568dfbf7a041eef7386000366040516101a4929190611b92565b60405180910390a3005b6001600160a01b03811660009081526001602052604090205460ff1661021b5760405162461bcd60e51b815260206004820152601760248201527f42573a20756e617574686f7269736564206d6f64756c6500000000000000000060448201526064015b60405180910390fd5b3660008037600080366000845afa3d6000803e80801561023a573d6000f35b3d6000fd5b005b34801561024d57600080fd5b50600354610261906001600160a01b031681565b6040516001600160a01b0390911681526020015b60405180910390f35b34801561028a57600080fd5b5061023f610299366004611bcb565b6105ac565b3480156102aa57600080fd5b5061023f6102b9366004611c00565b610660565b3480156102ca57600080fd5b5061023f6102d9366004611c43565b6106fd565b3480156102ea57600080fd5b5061023f6102f9366004611bcb565b610913565b34801561030a57600080fd5b5061031e610319366004611c7c565b6109e9565b604051908152602001610275565b61023f610a0f565b34801561034057600080fd5b5061023f61034f366004611cd0565b610a7a565b61023f610362366004611d12565b610abb565b34801561037357600080fd5b5061031e610b7e565b34801561038857600080fd5b50610261610397366004611dd6565b61050d565b3480156103a857600080fd5b5061023f6103b7366004611df1565b610c31565b3480156103c857600080fd5b50600254610261906001600160a01b031681565b3480156103e857600080fd5b506103fc6103f7366004611eaf565b611040565b6040519015158152602001610275565b34801561041857600080fd5b50600054610261906201000090046001600160a01b031681565b34801561043e57600080fd5b5061045261044d366004611f45565b611236565b6040516102759190611ff1565b34801561046b57600080fd5b5061023f61047a366004612004565b611302565b34801561048b57600080fd5b506005546001600160a01b0316610261565b3480156104a957600080fd5b5061031e61148a565b3480156104be57600080fd5b5061031e61150e565b3480156104d357600080fd5b506103fc6104e2366004611bcb565b60016020526000908152604090205460ff1681565b34801561050357600080fd5b5061031e60045481565b6002546000906001600160a01b03168015801590610598575060405163096d424d60e21b81526001600160e01b0319841660048201526001600160a01b038216906325b5093490602401602060405180830381865afa158015610574573d6000803e3d6000fd5b505050506040513d601f19601f820116820180604052508101906105989190612057565b156105a35792915050565b50600092915050565b6001600160a01b0381166106025760405162461bcd60e51b815260206004820152601a60248201527f42573a20616464726573732063616e6e6f74206265206e756c6c0000000000006044820152606401610212565b6000805462010000600160b01b031916620100006001600160a01b038416908102919091179091556040519081527fa2ea9883a321a3e97b8266c2b078bfeec6d50c711ed71f874a90d500ae2eaf369060200160405180910390a150565b6002546001600160a01b038381169116146106f9576001600160a01b03821660009081526001602052604090205460ff166106dd5760405162461bcd60e51b815260206004820152601960248201527f42573a20756e617574686f72697a6564206578656375746f72000000000000006044820152606401610212565b600280546001600160a01b0319166001600160a01b0384161790555b5050565b6001600160a01b03821660009081526001602052604090205460ff161515811515146106f957816001600160a01b03167f8da3ff870ae294081392139550e167f1f31f277f22015ee22fbffdbd7758f4e182604051610760911515815260200190565b60405180910390a280151560010361088a57600160046000828254610785919061208a565b90915550506001600160a01b038216600081815260016020818152604092839020805460ff191690921790915581516321cef46160e21b8152915163873bd1849260048082019392918290030181865afa925050508015610803575060408051601f3d908101601f1916820190925261080091810190612057565b60015b1561082c57801561082a57600380546001600160a01b0319166001600160a01b0385161790555b505b60405163066ad14f60e21b81523060048201526001600160a01b038316906319ab453c906024015b600060405180830381600087803b15801561086e57600080fd5b505af1158015610882573d6000803e3d6000fd5b505050505050565b60016004600082825461089d919061209d565b90915550506004546108f15760405162461bcd60e51b815260206004820152601d60248201527f42573a2063616e6e6f742072656d6f7665206c617374206d6f64756c650000006044820152606401610212565b506001600160a01b03166000908152600160205260409020805460ff19169055565b6001600160a01b037f000000000000000000000000000000000000000000000000000000000000000016300361095b5760405162461bcd60e51b8152600401610212906120b0565b7f00000000000000000000000000000000000000000000000000000000000000006001600160a01b03166109a460008051602061236e833981519152546001600160a01b031690565b6001600160a01b0316146109ca5760405162461bcd60e51b8152600401610212906120fc565b604080516000808252602082019092526109e691839190611557565b50565b60006109f36116c7565b6109fd8484611723565b9050610a0882611797565b9392505050565b6005546001600160a01b031660405163b760faf960e01b81523060048201526001600160a01b03919091169063b760faf99034906024016000604051808303818588803b158015610a5f57600080fd5b505af1158015610a73573d6000803e3d6000fd5b5050505050565b610a826117e4565b60055460405163040b850f60e31b81526001600160a01b038481166004830152602482018490529091169063205c287890604401610854565b6001600160a01b037f0000000000000000000000000000000000000000000000000000000000000000163003610b035760405162461bcd60e51b8152600401610212906120b0565b7f00000000000000000000000000000000000000000000000000000000000000006001600160a01b0316610b4c60008051602061236e833981519152546001600160a01b031690565b6001600160a01b031614610b725760405162461bcd60e51b8152600401610212906120fc565b6106f982826001611557565b6000306001600160a01b037f00000000000000000000000000000000000000000000000000000000000000001614610c1e5760405162461bcd60e51b815260206004820152603860248201527f555550535570677261646561626c653a206d757374206e6f742062652063616c60448201527f6c6564207468726f7567682064656c656761746563616c6c00000000000000006064820152608401610212565b5060008051602061236e83398151915290565b60045415610c815760405162461bcd60e51b815260206004820152601e60248201527f42573a2077616c6c657420616c726561647920696e697469616c6973656400006044820152606401610212565b80610cc25760405162461bcd60e51b815260206004820152601160248201527042573a20656d707479206d6f64756c657360781b6044820152606401610212565b600481905560005b81811015610f905760016000848484818110610ce857610ce8612148565b9050602002016020810190610cfd9190611bcb565b6001600160a01b0316815260208101919091526040016000205460ff1615610d675760405162461bcd60e51b815260206004820152601b60248201527f42573a206d6f64756c6520697320616c726561647920616464656400000000006044820152606401610212565b6001806000858585818110610d7e57610d7e612148565b9050602002016020810190610d939190611bcb565b6001600160a01b031681526020810191909152604001600020805460ff1916911515919091179055828282818110610dcd57610dcd612148565b9050602002016020810190610de29190611bcb565b6001600160a01b031663873bd1846040518163ffffffff1660e01b8152600401602060405180830381865afa925050508015610e3b575060408051601f3d908101601f19168201909252610e3891810190612057565b60015b15610e90578015610e8e57838383818110610e5857610e58612148565b9050602002016020810190610e6d9190611bcb565b600380546001600160a01b0319166001600160a01b03929092169190911790555b505b828282818110610ea257610ea2612148565b9050602002016020810190610eb79190611bcb565b60405163066ad14f60e21b81523060048201526001600160a01b0391909116906319ab453c90602401600060405180830381600087803b158015610efa57600080fd5b505af1158015610f0e573d6000803e3d6000fd5b50505050828282818110610f2457610f24612148565b9050602002016020810190610f399190611bcb565b6001600160a01b03167f8da3ff870ae294081392139550e167f1f31f277f22015ee22fbffdbd7758f4e16001604051610f76911515815260200190565b60405180910390a280610f888161215e565b915050610cca565b506003546001600160a01b0316610fe95760405162461bcd60e51b815260206004820152601760248201527f42573a206e6f207369676e6174757265206d6f64756c650000000000000000006044820152606401610212565b47156106f95760006001600160a01b0316477f606834f57405380c4fb88d1f4850326ad3885f014bab3b568dfbf7a041eef73860405161103490602080825260009082015260400190565b60405180910390a35050565b600061106f6040518060400160405280600c81526020016b696e766f6b654d6f64756c6560a01b81525061183b565b60005b6109c481101561108e57806110868161215e565b915050611072565b506110bd6040518060400160405280600d81526020016c34b73b37b5b2a6b7b23ab6329960991b81525061183b565b6110c561187e565b60606110ef60405180604001604052806007815260200166696e766f6b653160c81b81525061183b565b886001600160a01b0316308989898989896040516024016111169796959493929190612177565b60408051601f198184030181529181526020820180516001600160e01b0316630fa385cf60e31b1790525161114b91906121c9565b6000604051808303816000865af19150503d8060008114611188576040519150601f19603f3d011682016040523d82523d6000602084013e61118d565b606091505b5060408051808201909152600781526634b73b37b5b29960c91b602082015291935091506111ba9061183b565b8180156111c8575060008151115b156111d3575061122b565b81611229576111e18161183b565b60405162461bcd60e51b815260206004820152601b60248201527f53413a206d6f64756c65206578656375746520726576657274656400000000006044820152606401610212565b505b979650505050505050565b60606000856001600160a01b03168585856040516112559291906121e5565b60006040518083038185875af1925050503d8060008114611292576040519150601f19603f3d011682016040523d82523d6000602084013e611297565b606091505b5092509050806112ab573d6000803e3d6000fd5b84866001600160a01b0316336001600160a01b03167f7d2476ab50663f025cff0be85655bcf355f62768615c0c478f3cd5293f80736587876040516112f1929190611b92565b60405180910390a450949350505050565b600054610100900460ff16158080156113225750600054600160ff909116105b8061133c5750303b15801561133c575060005460ff166001145b61139f5760405162461bcd60e51b815260206004820152602e60248201527f496e697469616c697a61626c653a20636f6e747261637420697320616c72656160448201526d191e481a5b9a5d1a585b1a5e995960921b6064820152608401610212565b6000805460ff1916600117905580156113c2576000805461ff0019166101001790555b600580546001600160a01b0319166001600160a01b038781169182179092556000805462010000600160b01b031916620100008885169081029190911790915560408051878152938616602085015290927f75d48f23bb755f9907f2e189296d80a3c7316d4278c441bdae7adbe9564e040c910160405180910390a38015610a73576000805461ff0019169055604051600181527f7f26b83ff96e1f2b6a682f133852f6798a09c465da95921460cefb38474024989060200160405180910390a15050505050565b600061149e6005546001600160a01b031690565b6040516370a0823160e01b81523060048201526001600160a01b0391909116906370a08231906024015b602060405180830381865afa1580156114e5573d6000803e3d6000fd5b505050506040513d601f19601f8201168201806040525081019061150991906121f5565b905090565b60006115226005546001600160a01b031690565b604051631aab3f0d60e11b8152306004820152600060248201526001600160a01b0391909116906335567e1a906044016114c8565b7f4910fdfa16fed3260ed0e7147f7cc6da11a60208b5b9406d12a635614ffd91435460ff161561158f5761158a836118f3565b505050565b826001600160a01b03166352d1902d6040518163ffffffff1660e01b8152600401602060405180830381865afa9250505080156115e9575060408051601f3d908101601f191682019092526115e6918101906121f5565b60015b61164c5760405162461bcd60e51b815260206004820152602e60248201527f45524331393637557067726164653a206e657720696d706c656d656e7461746960448201526d6f6e206973206e6f74205555505360901b6064820152608401610212565b60008051602061236e83398151915281146116bb5760405162461bcd60e51b815260206004820152602960248201527f45524331393637557067726164653a20756e737570706f727465642070726f786044820152681a58589b195555525160ba1b6064820152608401610212565b5061158a83838361198f565b6005546001600160a01b031633146117215760405162461bcd60e51b815260206004820152601c60248201527f6163636f756e743a206e6f742066726f6d20456e747279506f696e74000000006044820152606401610212565b565b600354604051639add38d560e01b81526000916001600160a01b031690639add38d5906117569086908690600401612254565b602060405180830381865afa158015611773573d6000803e3d6000fd5b505050506040513d601f19601f82011682018060405250810190610a0891906121f5565b80156109e657604051600090339060001990849084818181858888f193505050503d8060008114610a73576040519150601f19603f3d011682016040523d82523d6000602084013e610a73565b6000546201000090046001600160a01b031633148061180257503330145b6117215760405162461bcd60e51b815260206004820152600a60248201526937b7363c9037bbb732b960b11b6044820152606401610212565b6109e68160405160240161184f9190611ff1565b60408051601f198184030181529190526020810180516001600160e01b031663104c13eb60e21b1790526119ba565b6005546001600160a01b03163314806118a757506000546201000090046001600160a01b031633145b6117215760405162461bcd60e51b815260206004820181905260248201527f6163636f756e743a206e6f74204f776e6572206f7220456e747279506f696e746044820152606401610212565b6001600160a01b0381163b6119605760405162461bcd60e51b815260206004820152602d60248201527f455243313936373a206e657720696d706c656d656e746174696f6e206973206e60448201526c1bdd08184818dbdb9d1c9858dd609a1b6064820152608401610212565b60008051602061236e83398151915280546001600160a01b0319166001600160a01b0392909216919091179055565b611998836119db565b6000825111806119a55750805b1561158a576119b48383611a1b565b50505050565b60006a636f6e736f6c652e6c6f679050600080835160208501845afa505050565b6119e4816118f3565b6040516001600160a01b038216907fbc7cd75a20ee27fd9adebab32041f755214dbc6bffa90cc0225b39da2e5c2d3b90600090a250565b6060610a08838360405180606001604052806027815260200161238e60279139611a46565b92915050565b6060600080856001600160a01b031685604051611a6391906121c9565b600060405180830381855af49150503d8060008114611a9e576040519150601f19603f3d011682016040523d82523d6000602084013e611aa3565b606091505b5091509150611ab486838387611abe565b9695505050505050565b60608315611b2d578251600003611b26576001600160a01b0385163b611b265760405162461bcd60e51b815260206004820152601d60248201527f416464726573733a2063616c6c20746f206e6f6e2d636f6e74726163740000006044820152606401610212565b5081611b37565b611b378383611b3f565b949350505050565b815115611b4f5781518083602001fd5b8060405162461bcd60e51b81526004016102129190611ff1565b81835281816020850137506000828201602090810191909152601f909101601f19169091010190565b602081526000611b37602083018486611b69565b6001600160a01b03811681146109e657600080fd5b8035611bc681611ba6565b919050565b600060208284031215611bdd57600080fd5b8135610a0881611ba6565b80356001600160e01b031981168114611bc657600080fd5b60008060408385031215611c1357600080fd5b8235611c1e81611ba6565b9150611c2c60208401611be8565b90509250929050565b80151581146109e657600080fd5b60008060408385031215611c5657600080fd5b8235611c6181611ba6565b91506020830135611c7181611c35565b809150509250929050565b600080600060608486031215611c9157600080fd5b833567ffffffffffffffff811115611ca857600080fd5b84016101608187031215611cbb57600080fd5b95602085013595506040909401359392505050565b60008060408385031215611ce357600080fd5b8235611cee81611ba6565b946020939093013593505050565b634e487b7160e01b600052604160045260246000fd5b60008060408385031215611d2557600080fd5b8235611d3081611ba6565b9150602083013567ffffffffffffffff80821115611d4d57600080fd5b818501915085601f830112611d6157600080fd5b813581811115611d7357611d73611cfc565b604051601f8201601f19908116603f01168101908382118183101715611d9b57611d9b611cfc565b81604052828152886020848701011115611db457600080fd5b8260208601602083013760006020848301015280955050505050509250929050565b600060208284031215611de857600080fd5b610a0882611be8565b60008060208385031215611e0457600080fd5b823567ffffffffffffffff80821115611e1c57600080fd5b818501915085601f830112611e3057600080fd5b813581811115611e3f57600080fd5b8660208260051b8501011115611e5457600080fd5b60209290920196919550909350505050565b60008083601f840112611e7857600080fd5b50813567ffffffffffffffff811115611e9057600080fd5b602083019150836020828501011115611ea857600080fd5b9250929050565b600080600080600080600060a0888a031215611eca57600080fd5b8735611ed581611ba6565b9650602088013567ffffffffffffffff80821115611ef257600080fd5b611efe8b838c01611e66565b909850965060408a0135955060608a0135945060808a0135915080821115611f2557600080fd5b50611f328a828b01611e66565b989b979a50959850939692959293505050565b60008060008060608587031215611f5b57600080fd5b8435611f6681611ba6565b935060208501359250604085013567ffffffffffffffff811115611f8957600080fd5b611f9587828801611e66565b95989497509550505050565b60005b83811015611fbc578181015183820152602001611fa4565b50506000910152565b60008151808452611fdd816020860160208601611fa1565b601f01601f19169290920160200192915050565b602081526000610a086020830184611fc5565b6000806000806080858703121561201a57600080fd5b843561202581611ba6565b9350602085013561203581611ba6565b925060408501359150606085013561204c81611ba6565b939692955090935050565b60006020828403121561206957600080fd5b8151610a0881611c35565b634e487b7160e01b600052601160045260246000fd5b80820180821115611a4057611a40612074565b81810381811115611a4057611a40612074565b6020808252602c908201527f46756e6374696f6e206d7573742062652063616c6c6564207468726f7567682060408201526b19195b1959d85d1958d85b1b60a21b606082015260800190565b6020808252602c908201527f46756e6374696f6e206d7573742062652063616c6c6564207468726f7567682060408201526b6163746976652070726f787960a01b606082015260800190565b634e487b7160e01b600052603260045260246000fd5b60006001820161217057612170612074565b5060010190565b6001600160a01b038816815260a06020820181905260009061219c908301888a611b69565b86604084015285606084015282810360808401526121bb818587611b69565b9a9950505050505050505050565b600082516121db818460208701611fa1565b9190910192915050565b8183823760009101908152919050565b60006020828403121561220757600080fd5b5051919050565b6000808335601e1984360301811261222557600080fd5b830160208101925035905067ffffffffffffffff81111561224557600080fd5b803603821315611ea857600080fd5b604081526122756040820161226885611bbb565b6001600160a01b03169052565b60208301356060820152600061228e604085018561220e565b6101608060808601526122a66101a086018385611b69565b92506122b5606088018861220e565b9250603f19808786030160a08801526122cf858584611b69565b9450608089013560c088015260a089013560e0880152610100935060c089013584880152610120915060e089013582880152610140848a013581890152612318838b018b61220e565b95509250818887030184890152612330868685611b69565b955061233e818b018b61220e565b95509350508087860301610180880152505061235b838383611b69565b9350505050826020830152939250505056fe360894a13ba1a3210667c828492db98dca3e2076cc3735a920a3ca505d382bbc416464726573733a206c6f772d6c6576656c2064656c65676174652063616c6c206661696c6564a26469706673582212203b3b2b69bdc7942417863ceedcd1333ceb015259a1c65298b7ee195ed11f64e264736f6c63430008120033",
  "linkReferences": {},
  "deployedLinkReferences": {}
}