{
  "_format": "hh-sol-artifact-1",
  "contractName": "UsersModule",
  "sourceName": "contracts/modules/UsersModule.sol",
  "abi": [
    {
      "inputs": [
        {
          "internalType": "contract IModuleRegistry",
          "name": "_registry",
          "type": "address"
        },
        {
          "internalType": "contract IGuardianStorage",
          "name": "_guardianStorage",
          "type": "address"
        },
        {
          "internalType": "contract ITransferStorage",
          "name": "_userWhitelist",
          "type": "address"
        },
        {
          "internalType": "contract IAuthoriser",
          "name": "_authoriser",
          "type": "address"
        },
        {
          "internalType": "uint256",
          "name": "_securityPeriod",
          "type": "uint256"
        },
        {
          "internalType": "uint256",
          "name": "_securityWindow",
          "type": "uint256"
        },
        {
          "internalType": "uint256",
          "name": "_recoveryPeriod",
          "type": "uint256"
        },
        {
          "internalType": "uint256",
          "name": "_lockPeriod",
          "type": "uint256"
        }
      ],
      "stateMutability": "nonpayable",
      "type": "constructor"
    },
    {
      "inputs": [],
      "name": "InvalidShortString",
      "type": "error"
    },
    {
      "inputs": [
        {
          "internalType": "string",
          "name": "str",
          "type": "string"
        }
      ],
      "name": "StringTooLong",
      "type": "error"
    },
    {
      "anonymous": false,
      "inputs": [
        {
          "indexed": true,
          "internalType": "address",
          "name": "wallet",
          "type": "address"
        },
        {
          "indexed": true,
          "internalType": "address",
          "name": "target",
          "type": "address"
        },
        {
          "indexed": false,
          "internalType": "uint64",
          "name": "whitelistAfter",
          "type": "uint64"
        }
      ],
      "name": "AddedToWhitelist",
      "type": "event"
    },
    {
      "anonymous": false,
      "inputs": [],
      "name": "EIP712DomainChanged",
      "type": "event"
    },
    {
      "anonymous": false,
      "inputs": [
        {
          "indexed": true,
          "internalType": "address",
          "name": "wallet",
          "type": "address"
        },
        {
          "indexed": true,
          "internalType": "address",
          "name": "guardian",
          "type": "address"
        }
      ],
      "name": "GuardianAdded",
      "type": "event"
    },
    {
      "anonymous": false,
      "inputs": [
        {
          "indexed": true,
          "internalType": "address",
          "name": "wallet",
          "type": "address"
        },
        {
          "indexed": true,
          "internalType": "address",
          "name": "guardian",
          "type": "address"
        }
      ],
      "name": "GuardianAdditionCancelled",
      "type": "event"
    },
    {
      "anonymous": false,
      "inputs": [
        {
          "indexed": true,
          "internalType": "address",
          "name": "wallet",
          "type": "address"
        },
        {
          "indexed": true,
          "internalType": "address",
          "name": "guardian",
          "type": "address"
        },
        {
          "indexed": false,
          "internalType": "uint256",
          "name": "executeAfter",
          "type": "uint256"
        }
      ],
      "name": "GuardianAdditionRequested",
      "type": "event"
    },
    {
      "anonymous": false,
      "inputs": [
        {
          "indexed": true,
          "internalType": "address",
          "name": "wallet",
          "type": "address"
        },
        {
          "indexed": true,
          "internalType": "address",
          "name": "guardian",
          "type": "address"
        }
      ],
      "name": "GuardianRevokationCancelled",
      "type": "event"
    },
    {
      "anonymous": false,
      "inputs": [
        {
          "indexed": true,
          "internalType": "address",
          "name": "wallet",
          "type": "address"
        },
        {
          "indexed": true,
          "internalType": "address",
          "name": "guardian",
          "type": "address"
        },
        {
          "indexed": false,
          "internalType": "uint256",
          "name": "executeAfter",
          "type": "uint256"
        }
      ],
      "name": "GuardianRevokationRequested",
      "type": "event"
    },
    {
      "anonymous": false,
      "inputs": [
        {
          "indexed": true,
          "internalType": "address",
          "name": "wallet",
          "type": "address"
        },
        {
          "indexed": true,
          "internalType": "address",
          "name": "guardian",
          "type": "address"
        }
      ],
      "name": "GuardianRevoked",
      "type": "event"
    },
    {
      "anonymous": false,
      "inputs": [
        {
          "indexed": true,
          "internalType": "address",
          "name": "wallet",
          "type": "address"
        },
        {
          "indexed": false,
          "internalType": "uint64",
          "name": "releaseAfter",
          "type": "uint64"
        }
      ],
      "name": "Locked",
      "type": "event"
    },
    {
      "anonymous": false,
      "inputs": [
        {
          "indexed": false,
          "internalType": "bytes32",
          "name": "name",
          "type": "bytes32"
        }
      ],
      "name": "ModuleCreated",
      "type": "event"
    },
    {
      "anonymous": false,
      "inputs": [
        {
          "indexed": true,
          "internalType": "address",
          "name": "wallet",
          "type": "address"
        },
        {
          "indexed": true,
          "internalType": "address",
          "name": "_newOwner",
          "type": "address"
        }
      ],
      "name": "OwnershipTransfered",
      "type": "event"
    },
    {
      "anonymous": false,
      "inputs": [
        {
          "indexed": true,
          "internalType": "address",
          "name": "wallet",
          "type": "address"
        },
        {
          "indexed": true,
          "internalType": "address",
          "name": "_recovery",
          "type": "address"
        }
      ],
      "name": "RecoveryCanceled",
      "type": "event"
    },
    {
      "anonymous": false,
      "inputs": [
        {
          "indexed": true,
          "internalType": "address",
          "name": "wallet",
          "type": "address"
        },
        {
          "indexed": true,
          "internalType": "address",
          "name": "_recovery",
          "type": "address"
        },
        {
          "indexed": false,
          "internalType": "uint64",
          "name": "executeAfter",
          "type": "uint64"
        }
      ],
      "name": "RecoveryExecuted",
      "type": "event"
    },
    {
      "anonymous": false,
      "inputs": [
        {
          "indexed": true,
          "internalType": "address",
          "name": "wallet",
          "type": "address"
        },
        {
          "indexed": true,
          "internalType": "address",
          "name": "_recovery",
          "type": "address"
        }
      ],
      "name": "RecoveryFinalized",
      "type": "event"
    },
    {
      "anonymous": false,
      "inputs": [
        {
          "indexed": true,
          "internalType": "address",
          "name": "wallet",
          "type": "address"
        },
        {
          "indexed": true,
          "internalType": "address",
          "name": "refundAddress",
          "type": "address"
        },
        {
          "indexed": false,
          "internalType": "address",
          "name": "refundToken",
          "type": "address"
        },
        {
          "indexed": false,
          "internalType": "uint256",
          "name": "refundAmount",
          "type": "uint256"
        }
      ],
      "name": "Refund",
      "type": "event"
    },
    {
      "anonymous": false,
      "inputs": [
        {
          "indexed": true,
          "internalType": "address",
          "name": "wallet",
          "type": "address"
        },
        {
          "indexed": true,
          "internalType": "address",
          "name": "target",
          "type": "address"
        }
      ],
      "name": "RemovedFromWhitelist",
      "type": "event"
    },
    {
      "anonymous": false,
      "inputs": [
        {
          "indexed": true,
          "internalType": "address",
          "name": "wallet",
          "type": "address"
        },
        {
          "indexed": false,
          "internalType": "address",
          "name": "sessionKey",
          "type": "address"
        }
      ],
      "name": "SessionCleared",
      "type": "event"
    },
    {
      "anonymous": false,
      "inputs": [
        {
          "indexed": true,
          "internalType": "address",
          "name": "wallet",
          "type": "address"
        },
        {
          "indexed": false,
          "internalType": "address",
          "name": "sessionKey",
          "type": "address"
        },
        {
          "indexed": false,
          "internalType": "uint64",
          "name": "expires",
          "type": "uint64"
        }
      ],
      "name": "SessionCreated",
      "type": "event"
    },
    {
      "anonymous": false,
      "inputs": [
        {
          "indexed": true,
          "internalType": "address",
          "name": "wallet",
          "type": "address"
        },
        {
          "indexed": true,
          "internalType": "bool",
          "name": "success",
          "type": "bool"
        },
        {
          "indexed": false,
          "internalType": "bytes",
          "name": "returnData",
          "type": "bytes"
        },
        {
          "indexed": false,
          "internalType": "bytes32",
          "name": "signedHash",
          "type": "bytes32"
        }
      ],
      "name": "TransactionExecuted",
      "type": "event"
    },
    {
      "anonymous": false,
      "inputs": [
        {
          "indexed": true,
          "internalType": "address",
          "name": "wallet",
          "type": "address"
        }
      ],
      "name": "Unlocked",
      "type": "event"
    },
    {
      "anonymous": false,
      "inputs": [
        {
          "indexed": true,
          "internalType": "address",
          "name": "wallet",
          "type": "address"
        },
        {
          "indexed": true,
          "internalType": "address",
          "name": "_newImplementation",
          "type": "address"
        }
      ],
      "name": "WalletUpgraded",
      "type": "event"
    },
    {
      "stateMutability": "nonpayable",
      "type": "fallback"
    },
    {
      "inputs": [],
      "name": "NAME",
      "outputs": [
        {
          "internalType": "bytes32",
          "name": "",
          "type": "bytes32"
        }
      ],
      "stateMutability": "view",
      "type": "function"
    },
    {
      "inputs": [
        {
          "internalType": "address",
          "name": "_wallet",
          "type": "address"
        },
        {
          "internalType": "address",
          "name": "_guardian",
          "type": "address"
        }
      ],
      "name": "addGuardian",
      "outputs": [],
      "stateMutability": "nonpayable",
      "type": "function"
    },
    {
      "inputs": [
        {
          "internalType": "address",
          "name": "_wallet",
          "type": "address"
        },
        {
          "internalType": "address",
          "name": "_module",
          "type": "address"
        }
      ],
      "name": "addModule",
      "outputs": [],
      "stateMutability": "nonpayable",
      "type": "function"
    },
    {
      "inputs": [
        {
          "internalType": "address",
          "name": "_wallet",
          "type": "address"
        },
        {
          "internalType": "address",
          "name": "_target",
          "type": "address"
        }
      ],
      "name": "addToWhitelist",
      "outputs": [],
      "stateMutability": "nonpayable",
      "type": "function"
    },
    {
      "inputs": [
        {
          "internalType": "address",
          "name": "_wallet",
          "type": "address"
        },
        {
          "internalType": "address",
          "name": "_guardian",
          "type": "address"
        }
      ],
      "name": "cancelGuardianAddition",
      "outputs": [],
      "stateMutability": "nonpayable",
      "type": "function"
    },
    {
      "inputs": [
        {
          "internalType": "address",
          "name": "_wallet",
          "type": "address"
        },
        {
          "internalType": "address",
          "name": "_guardian",
          "type": "address"
        }
      ],
      "name": "cancelGuardianRevokation",
      "outputs": [],
      "stateMutability": "nonpayable",
      "type": "function"
    },
    {
      "inputs": [
        {
          "internalType": "address",
          "name": "_wallet",
          "type": "address"
        }
      ],
      "name": "cancelRecovery",
      "outputs": [],
      "stateMutability": "nonpayable",
      "type": "function"
    },
    {
      "inputs": [
        {
          "internalType": "address",
          "name": "_wallet",
          "type": "address"
        }
      ],
      "name": "clearSession",
      "outputs": [],
      "stateMutability": "nonpayable",
      "type": "function"
    },
    {
      "inputs": [
        {
          "internalType": "address",
          "name": "_wallet",
          "type": "address"
        },
        {
          "internalType": "address",
          "name": "_guardian",
          "type": "address"
        }
      ],
      "name": "confirmGuardianAddition",
      "outputs": [],
      "stateMutability": "nonpayable",
      "type": "function"
    },
    {
      "inputs": [
        {
          "internalType": "address",
          "name": "_wallet",
          "type": "address"
        },
        {
          "internalType": "address",
          "name": "_guardian",
          "type": "address"
        }
      ],
      "name": "confirmGuardianRevokation",
      "outputs": [],
      "stateMutability": "nonpayable",
      "type": "function"
    },
    {
      "inputs": [],
      "name": "eip712Domain",
      "outputs": [
        {
          "internalType": "bytes1",
          "name": "fields",
          "type": "bytes1"
        },
        {
          "internalType": "string",
          "name": "name",
          "type": "string"
        },
        {
          "internalType": "string",
          "name": "version",
          "type": "string"
        },
        {
          "internalType": "uint256",
          "name": "chainId",
          "type": "uint256"
        },
        {
          "internalType": "address",
          "name": "verifyingContract",
          "type": "address"
        },
        {
          "internalType": "bytes32",
          "name": "salt",
          "type": "bytes32"
        },
        {
          "internalType": "uint256[]",
          "name": "extensions",
          "type": "uint256[]"
        }
      ],
      "stateMutability": "view",
      "type": "function"
    },
    {
      "inputs": [
        {
          "internalType": "address",
          "name": "_wallet",
          "type": "address"
        },
        {
          "internalType": "bytes",
          "name": "_data",
          "type": "bytes"
        },
        {
          "internalType": "uint256",
          "name": "_nonce",
          "type": "uint256"
        },
        {
          "internalType": "uint256",
          "name": "_deadline",
          "type": "uint256"
        },
        {
          "internalType": "bytes",
          "name": "_signatures",
          "type": "bytes"
        }
      ],
      "name": "execute",
      "outputs": [
        {
          "internalType": "bool",
          "name": "",
          "type": "bool"
        }
      ],
      "stateMutability": "nonpayable",
      "type": "function"
    },
    {
      "inputs": [
        {
          "internalType": "address",
          "name": "_wallet",
          "type": "address"
        },
        {
          "internalType": "address",
          "name": "_recovery",
          "type": "address"
        }
      ],
      "name": "executeRecovery",
      "outputs": [],
      "stateMutability": "nonpayable",
      "type": "function"
    },
    {
      "inputs": [
        {
          "internalType": "address",
          "name": "_wallet",
          "type": "address"
        }
      ],
      "name": "finalizeRecovery",
      "outputs": [],
      "stateMutability": "nonpayable",
      "type": "function"
    },
    {
      "inputs": [
        {
          "internalType": "address",
          "name": "_wallet",
          "type": "address"
        }
      ],
      "name": "getGuardians",
      "outputs": [
        {
          "internalType": "address[]",
          "name": "_guardians",
          "type": "address[]"
        }
      ],
      "stateMutability": "view",
      "type": "function"
    },
    {
      "inputs": [
        {
          "internalType": "address",
          "name": "_wallet",
          "type": "address"
        }
      ],
      "name": "getLock",
      "outputs": [
        {
          "internalType": "uint64",
          "name": "_releaseAfter",
          "type": "uint64"
        }
      ],
      "stateMutability": "view",
      "type": "function"
    },
    {
      "inputs": [
        {
          "internalType": "address",
          "name": "_wallet",
          "type": "address"
        }
      ],
      "name": "getRecovery",
      "outputs": [
        {
          "internalType": "address",
          "name": "_address",
          "type": "address"
        },
        {
          "internalType": "uint64",
          "name": "_executeAfter",
          "type": "uint64"
        },
        {
          "internalType": "uint32",
          "name": "_guardianCount",
          "type": "uint32"
        }
      ],
      "stateMutability": "view",
      "type": "function"
    },
    {
      "inputs": [
        {
          "internalType": "address",
          "name": "_wallet",
          "type": "address"
        },
        {
          "internalType": "bytes",
          "name": "_data",
          "type": "bytes"
        }
      ],
      "name": "getRequiredSignatures",
      "outputs": [
        {
          "internalType": "uint256",
          "name": "",
          "type": "uint256"
        },
        {
          "internalType": "enum BaseModule.OwnerSignature",
          "name": "",
          "type": "uint8"
        }
      ],
      "stateMutability": "view",
      "type": "function"
    },
    {
      "inputs": [
        {
          "internalType": "address",
          "name": "_wallet",
          "type": "address"
        }
      ],
      "name": "getSession",
      "outputs": [
        {
          "internalType": "address",
          "name": "key",
          "type": "address"
        },
        {
          "internalType": "uint64",
          "name": "expires",
          "type": "uint64"
        }
      ],
      "stateMutability": "view",
      "type": "function"
    },
    {
      "inputs": [
        {
          "internalType": "address",
          "name": "_wallet",
          "type": "address"
        }
      ],
      "name": "guardianCount",
      "outputs": [
        {
          "internalType": "uint256",
          "name": "_count",
          "type": "uint256"
        }
      ],
      "stateMutability": "view",
      "type": "function"
    },
    {
      "inputs": [
        {
          "internalType": "address",
          "name": "_wallet",
          "type": "address"
        }
      ],
      "name": "init",
      "outputs": [],
      "stateMutability": "nonpayable",
      "type": "function"
    },
    {
      "inputs": [
        {
          "internalType": "address",
          "name": "_wallet",
          "type": "address"
        },
        {
          "internalType": "bytes32",
          "name": "_signHash",
          "type": "bytes32"
        }
      ],
      "name": "isExecutedTx",
      "outputs": [
        {
          "internalType": "bool",
          "name": "executed",
          "type": "bool"
        }
      ],
      "stateMutability": "view",
      "type": "function"
    },
    {
      "inputs": [
        {
          "internalType": "address",
          "name": "_wallet",
          "type": "address"
        },
        {
          "internalType": "address",
          "name": "_guardian",
          "type": "address"
        }
      ],
      "name": "isGuardian",
      "outputs": [
        {
          "internalType": "bool",
          "name": "_isGuardian",
          "type": "bool"
        }
      ],
      "stateMutability": "view",
      "type": "function"
    },
    {
      "inputs": [
        {
          "internalType": "address",
          "name": "_wallet",
          "type": "address"
        }
      ],
      "name": "isLocked",
      "outputs": [
        {
          "internalType": "bool",
          "name": "",
          "type": "bool"
        }
      ],
      "stateMutability": "view",
      "type": "function"
    },
    {
      "inputs": [],
      "name": "isSignatureModule",
      "outputs": [
        {
          "internalType": "bool",
          "name": "",
          "type": "bool"
        }
      ],
      "stateMutability": "pure",
      "type": "function"
    },
    {
      "inputs": [
        {
          "internalType": "bytes32",
          "name": "_msgHash",
          "type": "bytes32"
        },
        {
          "internalType": "bytes",
          "name": "_signature",
          "type": "bytes"
        }
      ],
      "name": "isValidSignature",
      "outputs": [
        {
          "internalType": "bytes4",
          "name": "",
          "type": "bytes4"
        }
      ],
      "stateMutability": "view",
      "type": "function"
    },
    {
      "inputs": [
        {
          "components": [
            {
              "internalType": "address",
              "name": "sender",
              "type": "address"
            },
            {
              "internalType": "uint256",
              "name": "nonce",
              "type": "uint256"
            },
            {
              "internalType": "bytes",
              "name": "initCode",
              "type": "bytes"
            },
            {
              "internalType": "bytes",
              "name": "callData",
              "type": "bytes"
            },
            {
              "internalType": "uint256",
              "name": "callGasLimit",
              "type": "uint256"
            },
            {
              "internalType": "uint256",
              "name": "verificationGasLimit",
              "type": "uint256"
            },
            {
              "internalType": "uint256",
              "name": "preVerificationGas",
              "type": "uint256"
            },
            {
              "internalType": "uint256",
              "name": "maxFeePerGas",
              "type": "uint256"
            },
            {
              "internalType": "uint256",
              "name": "maxPriorityFeePerGas",
              "type": "uint256"
            },
            {
              "internalType": "bytes",
              "name": "paymasterAndData",
              "type": "bytes"
            },
            {
              "internalType": "bytes",
              "name": "signature",
              "type": "bytes"
            }
          ],
          "internalType": "struct UserOperation",
          "name": "_userOp",
          "type": "tuple"
        },
        {
          "internalType": "bytes32",
          "name": "_userOpHash",
          "type": "bytes32"
        }
      ],
      "name": "isValidSignature",
      "outputs": [
        {
          "internalType": "uint256",
          "name": "validationData",
          "type": "uint256"
        }
      ],
      "stateMutability": "view",
      "type": "function"
    },
    {
      "inputs": [
        {
          "internalType": "address",
          "name": "_wallet",
          "type": "address"
        },
        {
          "internalType": "address",
          "name": "_target",
          "type": "address"
        }
      ],
      "name": "isWhitelisted",
      "outputs": [
        {
          "internalType": "bool",
          "name": "_isWhitelisted",
          "type": "bool"
        }
      ],
      "stateMutability": "view",
      "type": "function"
    },
    {
      "inputs": [
        {
          "internalType": "address",
          "name": "_wallet",
          "type": "address"
        }
      ],
      "name": "lock",
      "outputs": [],
      "stateMutability": "nonpayable",
      "type": "function"
    },
    {
      "inputs": [
        {
          "internalType": "address",
          "name": "_wallet",
          "type": "address"
        },
        {
          "components": [
            {
              "internalType": "address",
              "name": "to",
              "type": "address"
            },
            {
              "internalType": "uint256",
              "name": "value",
              "type": "uint256"
            },
            {
              "internalType": "bytes",
              "name": "data",
              "type": "bytes"
            }
          ],
          "internalType": "struct EnterpriseTransactionManager.Call[]",
          "name": "_transactions",
          "type": "tuple[]"
        }
      ],
      "name": "multiCall",
      "outputs": [
        {
          "internalType": "bytes[]",
          "name": "",
          "type": "bytes[]"
        }
      ],
      "stateMutability": "nonpayable",
      "type": "function"
    },
    {
      "inputs": [
        {
          "internalType": "address",
          "name": "_wallet",
          "type": "address"
        },
        {
          "components": [
            {
              "internalType": "address",
              "name": "to",
              "type": "address"
            },
            {
              "internalType": "uint256",
              "name": "value",
              "type": "uint256"
            },
            {
              "internalType": "bytes",
              "name": "data",
              "type": "bytes"
            }
          ],
          "internalType": "struct EnterpriseTransactionManager.Call[]",
          "name": "_transactions",
          "type": "tuple[]"
        }
      ],
      "name": "multiCallWithGuardians",
      "outputs": [
        {
          "internalType": "bytes[]",
          "name": "",
          "type": "bytes[]"
        }
      ],
      "stateMutability": "nonpayable",
      "type": "function"
    },
    {
      "inputs": [
        {
          "internalType": "address",
          "name": "_wallet",
          "type": "address"
        },
        {
          "components": [
            {
              "internalType": "address",
              "name": "to",
              "type": "address"
            },
            {
              "internalType": "uint256",
              "name": "value",
              "type": "uint256"
            },
            {
              "internalType": "bytes",
              "name": "data",
              "type": "bytes"
            }
          ],
          "internalType": "struct EnterpriseTransactionManager.Call[]",
          "name": "_transactions",
          "type": "tuple[]"
        },
        {
          "internalType": "address",
          "name": "_sessionUser",
          "type": "address"
        },
        {
          "internalType": "uint64",
          "name": "_duration",
          "type": "uint64"
        }
      ],
      "name": "multiCallWithGuardiansAndStartSession",
      "outputs": [
        {
          "internalType": "bytes[]",
          "name": "",
          "type": "bytes[]"
        }
      ],
      "stateMutability": "nonpayable",
      "type": "function"
    },
    {
      "inputs": [
        {
          "internalType": "address",
          "name": "_wallet",
          "type": "address"
        },
        {
          "components": [
            {
              "internalType": "address",
              "name": "to",
              "type": "address"
            },
            {
              "internalType": "uint256",
              "name": "value",
              "type": "uint256"
            },
            {
              "internalType": "bytes",
              "name": "data",
              "type": "bytes"
            }
          ],
          "internalType": "struct EnterpriseTransactionManager.Call[]",
          "name": "_transactions",
          "type": "tuple[]"
        }
      ],
      "name": "multiCallWithSession",
      "outputs": [
        {
          "internalType": "bytes[]",
          "name": "",
          "type": "bytes[]"
        }
      ],
      "stateMutability": "nonpayable",
      "type": "function"
    },
    {
      "inputs": [
        {
          "internalType": "address",
          "name": "_token",
          "type": "address"
        }
      ],
      "name": "recoverToken",
      "outputs": [],
      "stateMutability": "nonpayable",
      "type": "function"
    },
    {
      "inputs": [
        {
          "internalType": "address",
          "name": "_wallet",
          "type": "address"
        },
        {
          "internalType": "address",
          "name": "_target",
          "type": "address"
        }
      ],
      "name": "removeFromWhitelist",
      "outputs": [],
      "stateMutability": "nonpayable",
      "type": "function"
    },
    {
      "inputs": [
        {
          "internalType": "address",
          "name": "_wallet",
          "type": "address"
        },
        {
          "internalType": "address",
          "name": "_guardian",
          "type": "address"
        }
      ],
      "name": "revokeGuardian",
      "outputs": [],
      "stateMutability": "nonpayable",
      "type": "function"
    },
    {
      "inputs": [
        {
          "internalType": "bytes4",
          "name": "_methodId",
          "type": "bytes4"
        }
      ],
      "name": "supportsStaticCall",
      "outputs": [
        {
          "internalType": "bool",
          "name": "_isSupported",
          "type": "bool"
        }
      ],
      "stateMutability": "pure",
      "type": "function"
    },
    {
      "inputs": [
        {
          "internalType": "address",
          "name": "_wallet",
          "type": "address"
        },
        {
          "internalType": "address",
          "name": "_newOwner",
          "type": "address"
        }
      ],
      "name": "transferOwnership",
      "outputs": [],
      "stateMutability": "nonpayable",
      "type": "function"
    },
    {
      "inputs": [
        {
          "internalType": "address",
          "name": "_wallet",
          "type": "address"
        }
      ],
      "name": "unlock",
      "outputs": [],
      "stateMutability": "nonpayable",
      "type": "function"
    },
    {
      "inputs": [
        {
          "internalType": "address",
          "name": "_wallet",
          "type": "address"
        },
        {
          "internalType": "address",
          "name": "_newImplementation",
          "type": "address"
        }
      ],
      "name": "upgradeWallet",
      "outputs": [],
      "stateMutability": "nonpayable",
      "type": "function"
    }
  ],
  "bytecode": "0x6102806040523480156200001257600080fd5b5060405162005e1838038062005e18833981016040819052620000359162000397565b83828585846040518060400160405280600c81526020016b52656c617965724b6e6f627360a01b81525080604051806040016040528060018152602001603160f81b8152508f8f8f8f6a55736572734d6f64756c6560a81b846001600160a01b03166080816001600160a01b031681525050836001600160a01b031660a0816001600160a01b031681525050826001600160a01b031660c0816001600160a01b031681525050816001600160a01b031660e0816001600160a01b0316815250507f3019c8fc80239e3dff8f781212ae2004839c2cb61d6c70acd279ac65392145df816040516200012791815260200190565b60405180910390a150505050506200014f600283620002e860201b620035511790919060201c565b6101a0526200016c816003620002e8602090811b6200355117901c565b6101c052815160208084019190912061016052815190820120610180524661012052620001fd6101605161018051604080517f8b73c3c69bb8fe3d512ecc4cf759cc79239f7b179b0ffacaa9a75d522b39400f60208201529081019290925260608201524660808201523060a082015260009060c00160405160208183030381529060405280519060200120905090565b610100525050306101405250838110156200025f5760405162461bcd60e51b815260206004820152601860248201527f534d3a20696e736563757265206c6f636b20706572696f64000000000000000060448201526064015b60405180910390fd5b6200026b828462000426565b841015620002bc5760405162461bcd60e51b815260206004820152601d60248201527f534d3a20696e73656375726520736563757269747920706572696f6473000000604482015260640162000256565b6101e09390935261020092909252610240919091526102205261026052506200062e9650505050505050565b60006020835110156200030857620003008362000338565b905062000332565b826200031f836200037b60201b620035821760201c565b906200032c9082620004ed565b5060ff90505b92915050565b600080829050601f8151111562000366578260405163305a27a960e01b8152600401620002569190620005b9565b8051620003738262000609565b179392505050565b90565b6001600160a01b03811681146200039457600080fd5b50565b600080600080600080600080610100898b031215620003b557600080fd5b8851620003c2816200037e565b60208a0151909850620003d5816200037e565b60408a0151909750620003e8816200037e565b60608a0151909650620003fb816200037e565b60808a015160a08b015160c08c015160e0909c01519a9d999c50979a91999098919650945092505050565b808201808211156200033257634e487b7160e01b600052601160045260246000fd5b634e487b7160e01b600052604160045260246000fd5b600181811c908216806200047357607f821691505b6020821081036200049457634e487b7160e01b600052602260045260246000fd5b50919050565b601f821115620004e857600081815260208120601f850160051c81016020861015620004c35750805b601f850160051c820191505b81811015620004e457828155600101620004cf565b5050505b505050565b81516001600160401b0381111562000509576200050962000448565b62000521816200051a84546200045e565b846200049a565b602080601f831160018114620005595760008415620005405750858301515b600019600386901b1c1916600185901b178555620004e4565b600085815260208120601f198616915b828110156200058a5788860151825594840194600190910190840162000569565b5085821015620005a95787850151600019600388901b60f8161c191681555b5050505050600190811b01905550565b600060208083528351808285015260005b81811015620005e857858101830151858201604001528201620005ca565b506000604082860101526040601f19601f8301168501019250505092915050565b80516020808301519190811015620004945760001960209190910360031b1b16919050565b60805160a05160c05160e05161010051610120516101405161016051610180516101a0516101c0516101e051610200516102205161024051610260516156b16200076760003960006119410152600081816109c60152818161158601528181611e070152612f42015260008181610a3f01528181610aa701528181612fbb0152613023015260008181612ae90152818161340101526134630152600061299301526000612315015260006122ea0152600061453d01526000614515015260006144700152600061449a015260006144c401526000505060008181612b990152613be3015260008181611620015281816116e701528181611ea1015281816129fd0152818161326e0152818161330401528181613b060152613e5901526000818161182b01528181611a3201526124f801526156b16000f3fe608060405234801561001057600080fd5b50600436106102485760003560e01c806384b0196e1161013b578063b6b35272116100b8578063d4ee97341161007c578063d4ee9734146106d6578063f143ddba146104c1578063f18858ab146106e9578063f435f5a714610709578063f8d3277d1461071c57610248565b8063b6b3527214610677578063ba8210881461068a578063c68452101461069d578063c90db447146106b0578063d4bfea48146106c357610248565b80639be65a60116100ff5780639be65a6014610616578063a3f4df7e14610629578063a5efb2351461063e578063a6eb069014610651578063b0ba4da01461066457610248565b806384b0196e146104fa578063873bd184146105155780638c8e13b91461051c5780639769c3fe146105835780639add38d51461060357610248565b80634b3ef054116101c95780636b9db4e61161018d5780636b9db4e6146104835780636d435421146104ae5780636ff6ec7c146104c157806370135f52146104d45780637d1c2e78146104e757610248565b80634b3ef054146103f05780635040fb761461040357806357518243146104245780635a1db8c41461043757806360c0fdc01461044a57610248565b80632960739b116102105780632960739b146103835780632f6c493c14610396578063315a7af3146103a95780633b73d67f146103bc5780634a4fbeec146103dd57610248565b80631626ba7e146102e957806319ab453c1461031a5780631d97d8cc1461032d5780632437b75c1461034057806325b5093414610360575b600061028a6000368080601f01602080910402602001604051908101604052809392919081815260200183838082843760009201919091525061072f92505050565b90506001600160e01b03198116630a85bd0160e11b14806102bb57506001600160e01b0319811663f23a6e6160e01b145b806102d657506001600160e01b0319811663bc197c8160e01b145b156102e75760046000803760206000f35b005b6102fc6102f7366004614aa1565b610790565b6040516001600160e01b031990911681526020015b60405180910390f35b6102e7610328366004614b3f565b610869565b6102e761033b366004614b5c565b6108cf565b61035361034e366004614bd9565b610ae5565b6040516103119190614caf565b61037361036e366004614d11565b610b4e565b6040519015158152602001610311565b6102e7610391366004614b5c565b610bd5565b6102e76103a4366004614b3f565b610d1c565b6102e76103b7366004614b3f565b610e89565b6103cf6103ca366004614d7c565b61104d565b604051610311929190614de6565b6103736103eb366004614b3f565b61146b565b6102e76103fe366004614b5c565b611476565b610416610411366004614b3f565b6116c5565b604051908152602001610311565b6102e7610432366004614b5c565b611754565b6102e7610445366004614b5c565b6119bc565b610373610458366004614e18565b6001600160a01b03919091166000908152600460209081526040808320938352929052205460ff1690565b610496610491366004614b3f565b611b51565b6040516001600160401b039091168152602001610311565b6102e76104bc366004614b5c565b611b8c565b6103536104cf366004614e44565b611c74565b6102e76104e2366004614b5c565b611cd0565b6103736104f5366004614e8b565b611f47565b6105026122dc565b6040516103119796959493929190614f20565b6001610373565b61055c61052a366004614b3f565b6001600160a01b0390811660009081526020819052604090205490811691600160a01b9091046001600160401b031690565b604080516001600160a01b0390931683526001600160401b03909116602083015201610311565b6105d0610591366004614b3f565b6001600160a01b0390811660009081526005602052604090205490811691600160a01b82046001600160401b031691600160e01b900463ffffffff1690565b604080516001600160a01b0390941684526001600160401b03909216602084015263ffffffff1690820152606001610311565b610416610611366004614fb6565b612365565b6102e7610624366004614b3f565b612476565b6104166a55736572734d6f64756c6560a81b81565b61035361064c366004614e44565b61257d565b6102e761065f366004614b5c565b6127ad565b6102e7610672366004614b5c565b6128f4565b610373610685366004614b5c565b612b6d565b6102e7610698366004614b3f565b612c1d565b6102e76106ab366004614b5c565b612cce565b6102e76106be366004614b3f565b613062565b6102e76106d1366004614b5c565b613166565b6103736106e4366004614b5c565b613244565b6106fc6106f7366004614b3f565b6132e2565b6040516103119190614ff2565b6102e7610717366004614b3f565b613375565b6102e761072a366004614b5c565b6134a8565b60006004825110156107885760405162461bcd60e51b815260206004820152601d60248201527f5574696c733a20496e76616c69642066756e6374696f6e50726566697800000060448201526064015b60405180910390fd5b506020015190565b600081516041146107e35760405162461bcd60e51b815260206004820152601c60248201527f544d3a20696e76616c6964207369676e6174757265206c656e67746800000000604482015260640161077f565b60006107f184846000613585565b90506107fd33826136ba565b61083e5760405162461bcd60e51b81526020600482015260126024820152712a269d1024b73b30b634b21039b4b3b732b960711b604482015260640161077f565b7f1626ba7e356f5979dd355a3d2bfb43e80420a480c3b854edce286a82d74968699150505b92915050565b80336001600160a01b038216146108c25760405162461bcd60e51b815260206004820152601960248201527f424d3a2063616c6c6572206d7573742062652077616c6c657400000000000000604482015260640161077f565b6108cb82613739565b5050565b81303314806108e65750336001600160a01b038216145b6109025760405162461bcd60e51b815260040161077f9061503f565b61090c8383613244565b6109585760405162461bcd60e51b815260206004820152601d60248201527f534d3a206d757374206265206578697374696e6720677561726469616e000000604482015260640161077f565b6000838360405160200161096d929190615076565b60408051601f1981840301815291815281516020928301206001600160a01b03871660009081526006845282812082825293849052919091205490925015806109ee57506000828152602082905260409020546109eb907f0000000000000000000000000000000000000000000000000000000000000000906150c1565b42115b610a3a5760405162461bcd60e51b815260206004820152601c60248201527f534d3a206475706c69636174652070656e64696e67207265766f6b6500000000604482015260640161077f565b610a647f0000000000000000000000000000000000000000000000000000000000000000426150c1565b6000838152602083905260409020556001600160a01b038085169086167f9746f6868f544595794833da53250bd19e72334733336cfd5dd6fbc5f6a6ac42610acc7f0000000000000000000000000000000000000000000000000000000000000000426150c1565b6040519081526020015b60405180910390a35050505050565b6060303314610b065760405162461bcd60e51b815260040161077f906150d4565b85610b10816137a2565b15610b2d5760405162461bcd60e51b815260040161077f90615100565b610b388785856137cb565b610b43878787613938565b979650505050505050565b60006001600160e01b03198216630b135d3f60e11b1480610b7f57506001600160e01b03198216630a85bd0160e11b145b80610b9a57506001600160e01b031982166301ffc9a760e01b145b80610bb557506001600160e01b0319821663f23a6e6160e01b145b8061086357506001600160e01b0319821663bc197c8160e01b1492915050565b8130331480610bec5750336001600160a01b038216145b610c085760405162461bcd60e51b815260040161077f9061503f565b82610c12816137a2565b15610c2f5760405162461bcd60e51b815260040161077f90615100565b60008484604051602001610c44929190615076565b60408051601f1981840301815291815281516020928301206001600160a01b038816600090815260068452828120828252938490529190912054909250610ccd5760405162461bcd60e51b815260206004820152601a60248201527f534d3a20756e6b6e6f776e2070656e64696e67207265766f6b65000000000000604482015260640161077f565b600082815260208290526040808220829055516001600160a01b0380881692908916917fc0b205956d5e27c296695de329b5a014584a4f51824b1725a0eefc1174d6dbd59190a3505050505050565b8030331480610d305750610d308133613244565b610d785760405162461bcd60e51b815260206004820152601960248201527829a69d1036bab9ba1031329033bab0b93234b0b717b9b2b63360391b604482015260640161077f565b81610d82816137a2565b610dce5760405162461bcd60e51b815260206004820152601960248201527f424d3a2077616c6c6574206d757374206265206c6f636b656400000000000000604482015260640161077f565b6001600160a01b038316600090815260016020526040902054600160401b900460e01b6001600160e01b03191663f435f5a760e01b14610e445760405162461bcd60e51b8152602060048201526011602482015270534d3a2063616e6e6f7420756e6c6f636b60781b604482015260640161077f565b610e5083600080613a3e565b6040516001600160a01b038416907f7e6adfec7e3f286831a0200a754127c171a2da564078722cb97704741bbdb0ea90600090a2505050565b6001600160a01b0381166000908152600560205260409020548190600160a01b90046001600160401b0316610efa5760405162461bcd60e51b8152602060048201526017602482015276534d3a206e6f206f6e676f696e67207265636f7665727960481b604482015260640161077f565b6001600160a01b038216600090815260056020526040902080546001600160401b03600160a01b90910481164290911611610f775760405162461bcd60e51b815260206004820152601b60248201527f534d3a206f6e676f696e67207265636f7665727920706572696f640000000000604482015260640161077f565b80546001600160a01b0384811660009081526005602052604081205516610f9d84613ab9565b6040516313af403560e01b81526001600160a01b0382811660048301528516906313af403590602401600060405180830381600087803b158015610fe057600080fd5b505af1158015610ff4573d6000803e3d6000fd5b505050506110078460008060e01b613a3e565b806001600160a01b0316846001600160a01b03167fd8667de85dae2d56d76e700d16de53d21ac2ce4d5549cb0bf51c55fdc37f0bc160405160405180910390a350505050565b600080600061109185858080601f01602080910402602001604051908101604052809392919081815260200183838082843760009201919091525061072f92505050565b90506001600160e01b03198116630c68452160e41b14806110c257506001600160e01b03198116630765f63360e21b145b806110dd57506001600160e01b03198116630a6eb06960e41b145b806110f857506001600160e01b03198116632960739b60e01b145b8061111357506001600160e01b0319811663a5efb23560e01b145b8061112e57506001600160e01b03198116635751824360e01b145b8061114957506001600160e01b0319811663f8d3277d60e01b145b8061116457506001600160e01b03198116631750421160e31b145b15611193576001600160a01b0386163303611186576000809250925050611463565b6001809250925050611463565b63240244e160e21b6001600160e01b03198216016111d7576001600160a01b03861633036111c957600060049250925050611463565b600160049250925050611463565b63027a2d9360e51b6001600160e01b03198216016112595760006111fa87613ae0565b90506000811161124c5760405162461bcd60e51b815260206004820152601e60248201527f414d3a206e6f20677561726469616e7320736574206f6e2077616c6c65740000604482015260640161077f565b9250600391506114639050565b6336f24bb960e01b6001600160e01b03198216016112ea576001600160a01b0386166000908152600560205260408120546112b3906112a690600160e01b900463ffffffff16600161512b565b63ffffffff166002613b74565b90506001600160a01b03871633036112dd576112d0600182615148565b6003935093505050611463565b9250600291506114639050565b6001600160e01b03198116636d43542160e01b148061131957506001600160e01b031981166316876e3160e21b145b8061133457506001600160e01b03198116631a97fd4960e31b145b8061134f57506001600160e01b031981166378a1eedd60e11b145b8061136a57506001600160e01b0319811663090dedd760e21b145b1561138857600061137a87613ae0565b935060019250611463915050565b6001600160e01b0319811663315a7af360e01b14806113b757506001600160e01b03198116633809afa960e11b145b806113d257506001600160e01b031981166312cfbc1560e21b145b156113e4576000809250925050611463565b6001600160e01b0319811663f435f5a760e01b148061141357506001600160e01b03198116630bdb124f60e21b145b1561142657600160039250925050611463565b60405162461bcd60e51b815260206004820152601260248201527114d34e881d5b9adb9bdddb881b595d1a1bd960721b604482015260640161077f565b935093915050565b6000610863826137a2565b6000828260405160200161148b929190615076565b60408051601f1981840301815291815281516020928301206001600160a01b0386166000908152600684528281208282529384905291909120549092506115145760405162461bcd60e51b815260206004820152601a60248201527f534d3a20756e6b6e6f776e2070656e64696e67207265766f6b65000000000000604482015260640161077f565b60008281526020829052604090205442116115715760405162461bcd60e51b815260206004820152601b60248201527f534d3a2070656e64696e67207265766f6b65206e6f74206f7665720000000000604482015260640161077f565b6000828152602082905260409020546115ab907f0000000000000000000000000000000000000000000000000000000000000000906150c1565b42106115f95760405162461bcd60e51b815260206004820152601a60248201527f534d3a2070656e64696e67207265766f6b652065787069726564000000000000604482015260640161077f565b604051630765f63360e21b81526001600160a01b03858116600483015284811660248301527f00000000000000000000000000000000000000000000000000000000000000001690631d97d8cc90604401600060405180830381600087803b15801561166457600080fd5b505af1158015611678573d6000803e3d6000fd5b50506040516001600160a01b038087169350871691507f548f10dcba266544123ad8cf8284f25c4baa659cba25dbdf16a06ea11235de9b90600090a3600091825260205260408120555050565b6040516328207dbb60e11b81526001600160a01b0382811660048301526000917f000000000000000000000000000000000000000000000000000000000000000090911690635040fb7690602401602060405180830381865afa158015611730573d6000803e3d6000fd5b505050506040513d601f19601f82011682018060405250810190610863919061515b565b8130331480611768575061176881336136ba565b6117845760405162461bcd60e51b815260040161077f90615174565b8261178e816137a2565b156117ab5760405162461bcd60e51b815260040161077f90615100565b836001600160a01b0316836001600160a01b03160361180c5760405162461bcd60e51b815260206004820152601b60248201527f544d3a2043616e6e6f742077686974656c6973742077616c6c65740000000000604482015260640161077f565b604051630bcd4ebb60e01b81526001600160a01b0384811660048301527f00000000000000000000000000000000000000000000000000000000000000001690630bcd4ebb90602401602060405180830381865afa158015611872573d6000803e3d6000fd5b505050506040513d601f19601f8201168201806040525081019061189691906151ab565b156118e35760405162461bcd60e51b815260206004820152601b60248201527f544d3a2043616e6e6f742077686974656c697374206d6f64756c650000000000604482015260640161077f565b6118ed8484612b6d565b1561193a5760405162461bcd60e51b815260206004820152601e60248201527f544d3a2074617267657420616c72656164792077686974656c69737465640000604482015260640161077f565b60006119667f0000000000000000000000000000000000000000000000000000000000000000426150c1565b9050611973858583613bb5565b6040516001600160401b03821681526001600160a01b0380861691908716907f1f57f9641d3e8733ed672fef5ac85464bd7215ef2f21e83428e8408248b13dcd90602001610ad6565b81303314806119d057506119d081336136ba565b6119ec5760405162461bcd60e51b815260040161077f90615174565b826119f6816137a2565b15611a135760405162461bcd60e51b815260040161077f90615100565b604051630bcd4ebb60e01b81526001600160a01b0384811660048301527f00000000000000000000000000000000000000000000000000000000000000001690630bcd4ebb90602401602060405180830381865afa158015611a79573d6000803e3d6000fd5b505050506040513d601f19601f82011682018060405250810190611a9d91906151ab565b611ae95760405162461bcd60e51b815260206004820152601c60248201527f414d3a206d6f64756c65206973206e6f74207265676973746572656400000000604482015260640161077f565b604051631f17732d60e01b81526001600160a01b03848116600483015260016024830152851690631f17732d90604401600060405180830381600087803b158015611b3357600080fd5b505af1158015611b47573d6000803e3d6000fd5b5050505050505050565b6000611b5c826137a2565b611b67576000610863565b506001600160a01b03166000908152600160205260409020546001600160401b031690565b303314611bab5760405162461bcd60e51b815260040161077f906150d4565b81611bb5816137a2565b15611bd25760405162461bcd60e51b815260040161077f90615100565b611bdc8383613c44565b6040516313af403560e01b81526001600160a01b0383811660048301528416906313af403590602401600060405180830381600087803b158015611c1f57600080fd5b505af1158015611c33573d6000803e3d6000fd5b50506040516001600160a01b038086169350861691507f0d18b5fd22306e373229b9439188228edca81207d1667f604daf6cef8aa3ee6790600090a3505050565b6060303314611c955760405162461bcd60e51b815260040161077f906150d4565b83611c9f816137a2565b15611cbc5760405162461bcd60e51b815260040161077f90615100565b611cc7858585613938565b95945050505050565b81611cda816137a2565b15611cf75760405162461bcd60e51b815260040161077f90615100565b60008383604051602001611d0c9291906151cd565b60408051601f1981840301815291815281516020928301206001600160a01b038716600090815260068452828120828252938490529190912054909250611d955760405162461bcd60e51b815260206004820152601c60248201527f534d3a20756e6b6e6f776e2070656e64696e67206164646974696f6e00000000604482015260640161077f565b6000828152602082905260409020544211611df25760405162461bcd60e51b815260206004820152601d60248201527f534d3a2070656e64696e67206164646974696f6e206e6f74206f766572000000604482015260640161077f565b600082815260208290526040902054611e2c907f0000000000000000000000000000000000000000000000000000000000000000906150c1565b4210611e7a5760405162461bcd60e51b815260206004820152601c60248201527f534d3a2070656e64696e67206164646974696f6e206578706972656400000000604482015260640161077f565b604051630c68452160e41b81526001600160a01b03868116600483015285811660248301527f0000000000000000000000000000000000000000000000000000000000000000169063c684521090604401600060405180830381600087803b158015611ee557600080fd5b505af1158015611ef9573d6000803e3d6000fd5b50506040516001600160a01b038088169350881691507fbc3292102fa77e083913064b282926717cdfaede4d35f553d66366c0a3da755a90600090a360009182526020526040812055505050565b6000611f54888888613cf1565b611fa05760405162461bcd60e51b815260206004820152601e60248201527f524d3a20546172676574206f66205f6461746120213d205f77616c6c65740000604482015260640161077f565b611fa9886137a2565b15611ff65760405162461bcd60e51b815260206004820152601860248201527f524d3a204c6f636b65642077616c6c657420726566756e640000000000000000604482015260640161077f565b600080600060606120088c8c8c61104d565b90945092508315158061202c5750600083600481111561202a5761202a614dd0565b145b6120785760405162461bcd60e51b815260206004820152601f60248201527f524d3a2057726f6e67207369676e617475726520726571756972656d656e7400604482015260640161077f565b85612084856041615200565b146120d15760405162461bcd60e51b815260206004820152601e60248201527f524d3a2057726f6e67206e756d626572206f66207369676e6174757265730000604482015260640161077f565b60007fbf1af91af6bb21cb6f3df695a3f72929c8cc95124bb13aad4c9d2ff670a214318d8d8d604051612105929190615217565b6040519081900381206121479392918e908e906020019485526001600160a01b0393909316602085015260408401919091526060830152608082015260a00190565b604051602081830303815290604052805190602001209050600061216a82613d72565b9050600485600481111561218057612180614dd0565b036121d55761218e8e613d9f565b6121d05760405162461bcd60e51b815260206004820152601360248201527229269d1024b73b30b634b21039b2b9b9b4b7b760691b604482015260640161077f565b612227565b6121e28e828b8b89613dff565b6122275760405162461bcd60e51b8152602060048201526016602482015275524d3a20496e76616c6964207369676e61747572657360501b604482015260640161077f565b6040513090612239908f908f90615217565b6000604051808303816000865af19150503d8060008114612276576040519150601f19603f3d011682016040523d82523d6000602084013e61227b565b606091505b5080945081955050508315158e6001600160a01b03167f7da4525a280527268ba2e963ee6c1b18f43c9507bcb1d2560f652ab17c76e90a85846040516122c2929190615227565b60405180910390a350919c9b505050505050505050505050565b6000606080828080836123107f00000000000000000000000000000000000000000000000000000000000000006002614153565b61233b7f00000000000000000000000000000000000000000000000000000000000000006003614153565b60408051600080825260208201909252600f60f81b9b939a50919850469750309650945092509050565b7f19457468657265756d205369676e6564204d6573736167653a0a3332000000006000908152601c829052603c81206000336001600160a01b0316638da5cb5b6040518163ffffffff1660e01b8152600401602060405180830381865afa1580156123d4573d6000803e3d6000fd5b505050506040513d601f19601f820116820180604052508101906123f89190615249565b905061244861240b610140870187615266565b8080601f01602080910402602001604051908101604052809392919081815260200183838082843760009201919091525086939250506141f79050565b6001600160a01b0316816001600160a01b03161461246b57600192505050610863565b506000949350505050565b6040516370a0823160e01b81523060048201526000906001600160a01b038316906370a0823190602401602060405180830381865afa1580156124bd573d6000803e3d6000fd5b505050506040513d601f19601f820116820180604052508101906124e1919061515b565b60405163a9059cbb60e01b81526001600160a01b037f000000000000000000000000000000000000000000000000000000000000000081166004830152602482018390529192509083169063a9059cbb906044016020604051808303816000875af1158015612554573d6000803e3d6000fd5b505050506040513d601f19601f8201168201806040525081019061257891906151ab565b505050565b606030331461259e5760405162461bcd60e51b815260040161077f906150d4565b836125a8816137a2565b156125c55760405162461bcd60e51b815260040161077f90615100565b6000836001600160401b038111156125df576125df614a34565b60405190808252806020026020018201604052801561261257816020015b60608152602001906001900390816125fd5790505b50905060005b848110156127a35730868683818110612633576126336152ac565b905060200281019061264591906152c2565b612653906020810190614b3f565b6001600160a01b0316036126a95760405162461bcd60e51b815260206004820152601760248201527f544d3a2063616c6c206e6f7420617574686f7269736564000000000000000000604482015260640161077f565b612773878787848181106126bf576126bf6152ac565b90506020028101906126d191906152c2565b6126df906020810190614b3f565b8888858181106126f1576126f16152ac565b905060200281019061270391906152c2565b60200135898986818110612719576127196152ac565b905060200281019061272b91906152c2565b612739906040810190615266565b8080601f01602080910402602001604051908101604052809392919081815260200183838082843760009201919091525061421b92505050565b828281518110612785576127856152ac565b6020026020010181905250808061279b906152e2565b915050612618565b5095945050505050565b81303314806127c45750336001600160a01b038216145b6127e05760405162461bcd60e51b815260040161077f9061503f565b826127ea816137a2565b156128075760405162461bcd60e51b815260040161077f90615100565b6000848460405160200161281c9291906151cd565b60408051601f1981840301815291815281516020928301206001600160a01b0388166000908152600684528281208282529384905291909120549092506128a55760405162461bcd60e51b815260206004820152601c60248201527f534d3a20756e6b6e6f776e2070656e64696e67206164646974696f6e00000000604482015260640161077f565b600082815260208290526040808220829055516001600160a01b0380881692908916917faa13b27c23e9e3f3d5f3861a53b7a2931e019170a6a19ed64942e26a1dd5987a9190a3505050505050565b3033146129135760405162461bcd60e51b815260040161077f906150d4565b6001600160a01b0382166000908152600560205260409020548290600160a01b90046001600160401b0316156129825760405162461bcd60e51b8152602060048201526014602482015273534d3a206f6e676f696e67207265636f7665727960601b604482015260640161077f565b61298c8383613c44565b60006129b87f0000000000000000000000000000000000000000000000000000000000000000426150c1565b604080516060810182526001600160a01b0380871682526001600160401b038416602083015282516328207dbb60e11b815288821660048201529394509092918301917f000000000000000000000000000000000000000000000000000000000000000090911690635040fb7690602401602060405180830381865afa158015612a46573d6000803e3d6000fd5b505050506040513d601f19601f82011682018060405250810190612a6a919061515b565b63ffffffff9081169091526001600160a01b0380871660009081526005602090815260409182902085518154928701519690930151909416600160e01b026001600160e01b036001600160401b03909616600160a01b026001600160e01b031990921692909316919091171792909216919091179055612b1b84612b0e7f0000000000000000000000000000000000000000000000000000000000000000426150c1565b630585d26d60e51b613a3e565b6040516001600160401b03821681526001600160a01b0380851691908616907f5f59bfd9baba55ae30bb440923cbbe30987d50e12a4e9134ffac3fd9afc3526d9060200160405180910390a350505050565b6040516309fa507560e11b81526001600160a01b038381166004830152828116602483015260009182917f000000000000000000000000000000000000000000000000000000000000000016906313f4a0ea90604401602060405180830381865afa158015612be0573d6000803e3d6000fd5b505050506040513d601f19601f82011682018060405250810190612c04919061515b565b9050600081118015612c1557504281105b949350505050565b8030331480612c315750612c3181336136ba565b612c4d5760405162461bcd60e51b815260040161077f90615174565b81612c57816137a2565b15612c745760405162461bcd60e51b815260040161077f90615100565b6001600160a01b038381166000818152602081815260409182902054915191909316815290917feb290a597820eccc6b8b31f942bd97c633d5138f4d849751f770f3cb3900e57a910160405180910390a261257883613ab9565b8130331480612ce55750336001600160a01b038216145b612d015760405162461bcd60e51b815260040161077f9061503f565b82612d0b816137a2565b15612d285760405162461bcd60e51b815260040161077f90615100565b612d546040518060400160405280600b81526020016a30b23223bab0b93234b0b760a91b815250614373565b612d5e84846136ba565b15612dab5760405162461bcd60e51b815260206004820152601c60248201527f534d3a20677561726469616e2063616e6e6f74206265206f776e657200000000604482015260640161077f565b612db58484613244565b15612dfb5760405162461bcd60e51b815260206004820152601660248201527529a69d10323ab83634b1b0ba329033bab0b93234b0b760511b604482015260640161077f565b60408051600481526024810182526020810180516001600160e01b0316638da5cb5b60e01b17905290516000916001600160a01b038616916161a891612e40916152fb565b60006040518083038160008787f1925050503d8060008114612e7e576040519150601f19603f3d011682016040523d82523d6000602084013e612e83565b606091505b5050905080612ed45760405162461bcd60e51b815260206004820152601d60248201527f534d3a206d75737420626520454f412f417267656e742077616c6c6574000000604482015260640161077f565b60008585604051602001612ee99291906151cd565b60408051601f1981840301815291815281516020928301206001600160a01b0389166000908152600684528281208282529384905291909120549092501580612f6a5750600082815260208290526040902054612f67907f0000000000000000000000000000000000000000000000000000000000000000906150c1565b42115b612fb65760405162461bcd60e51b815260206004820152601e60248201527f534d3a206475706c69636174652070656e64696e67206164646974696f6e0000604482015260640161077f565b612fe07f0000000000000000000000000000000000000000000000000000000000000000426150c1565b6000838152602083905260409020556001600160a01b038087169088167fe4166e4bc55a182bd13d933553241bb3441b91d15fbc74c5c752f96965563bde6130487f0000000000000000000000000000000000000000000000000000000000000000426150c1565b60405190815260200160405180910390a350505050505050565b3033146130815760405162461bcd60e51b815260040161077f906150d4565b6001600160a01b0381166000908152600560205260409020548190600160a01b90046001600160401b03166130f25760405162461bcd60e51b8152602060048201526017602482015276534d3a206e6f206f6e676f696e67207265636f7665727960481b604482015260640161077f565b6001600160a01b0380831660009081526005602052604081208054908290559091169061312190849080613a3e565b806001600160a01b0316836001600160a01b03167fc45926607303da71dbeffd2ed5c6b00f581982586b697655d19ae4c4d558f25960405160405180910390a3505050565b3033146131855760405162461bcd60e51b815260040161077f906150d4565b8161318f816137a2565b156131ac5760405162461bcd60e51b815260040161077f90615100565b604051631b2ce7f360e11b81526001600160a01b038381166004830152841690633659cfe690602401600060405180830381600087803b1580156131ef57600080fd5b505af1158015613203573d6000803e3d6000fd5b50506040516001600160a01b038086169350861691507f5c92b3979a73cef77d1416cc6817a9094d4fd8d62e4d93189c8e2b06c5c5919790600090a3505050565b60405163353ba5cd60e21b81526001600160a01b03838116600483015282811660248301526000917f00000000000000000000000000000000000000000000000000000000000000009091169063d4ee973490604401602060405180830381865afa1580156132b7573d6000803e3d6000fd5b505050506040513d601f19601f820116820180604052508101906132db91906151ab565b9392505050565b60405163f18858ab60e01b81526001600160a01b0382811660048301526060917f00000000000000000000000000000000000000000000000000000000000000009091169063f18858ab90602401600060405180830381865afa15801561334d573d6000803e3d6000fd5b505050506040513d6000823e601f3d908101601f19168201604052610863919081019061530d565b803033148061338957506133898133613244565b6133d15760405162461bcd60e51b815260206004820152601960248201527829a69d1036bab9ba1031329033bab0b93234b0b717b9b2b63360391b604482015260640161077f565b816133db816137a2565b156133f85760405162461bcd60e51b815260040161077f90615100565b613433836134267f0000000000000000000000000000000000000000000000000000000000000000426150c1565b63f435f5a760e01b613a3e565b6001600160a01b0383167f6395bace6e0acbe4f22761b149d3cc2e88c7dde6bf4d8481825eef404cf989a16134887f0000000000000000000000000000000000000000000000000000000000000000426150c1565b6040516001600160401b03909116815260200160405180910390a2505050565b81303314806134bc57506134bc81336136ba565b6134d85760405162461bcd60e51b815260040161077f90615174565b826134e2816137a2565b156134ff5760405162461bcd60e51b815260040161077f90615100565b61350b84846000613bb5565b826001600160a01b0316846001600160a01b03167fd288ab5da2e1f37cf384a1565a3f905ad289b092fbdd31950dbbfef148c04f8860405160405180910390a350505050565b600060208351101561356d57613566836143b9565b9050610863565b816135788482615446565b5060ff9050610863565b90565b6041808202830160208101516040820151919092015160009260ff9190911691601b8314806135b757508260ff16601c145b6136035760405162461bcd60e51b815260206004820152601f60248201527f5574696c733a2062616420762076616c756520696e207369676e617475726500604482015260640161077f565b604080516000808252602082018084528a905260ff861692820192909252606081018490526080810183905260019060a0016020604051602081039080840390855afa158015613657573d6000803e3d6000fd5b5050604051601f1901519150506001600160a01b038116610b435760405162461bcd60e51b815260206004820152601b60248201527f5574696c733a2065637265636f7665722072657475726e656420300000000000604482015260640161077f565b6000816001600160a01b0316836001600160a01b0316638da5cb5b6040518163ffffffff1660e01b8152600401602060405180830381865afa158015613704573d6000803e3d6000fd5b505050506040513d601f19601f820116820180604052508101906137289190615249565b6001600160a01b0316149392505050565b6040516309ed185960e11b8152306004820152630b135d3f60e11b60248201526001600160a01b038216906313da30b290604401600060405180830381600087803b15801561378757600080fd5b505af115801561379b573d6000803e3d6000fd5b5050505050565b6001600160a01b03166000908152600160205260409020546001600160401b0342811691161190565b6001600160a01b0382166138215760405162461bcd60e51b815260206004820152601860248201527f544d3a20496e76616c69642073657373696f6e20757365720000000000000000604482015260640161077f565b6000816001600160401b03161161387a5760405162461bcd60e51b815260206004820152601c60248201527f544d3a20496e76616c69642073657373696f6e206475726174696f6e00000000604482015260640161077f565b60006138976138926001600160401b038416426150c1565b6143f7565b6040805180820182526001600160a01b038681168083526001600160401b0385811660208086018281528c86166000818152808452899020975188549251909516600160a01b026001600160e01b031990921694909616939093179290921790945584519182528101929092529293507f2ecea11087d1dc1431b517cbb5a559a9e33e58a1afeaac288f782c1c8bed8b8a910160405180910390a250505050565b60606000826001600160401b0381111561395457613954614a34565b60405190808252806020026020018201604052801561398757816020015b60608152602001906001900390816139725790505b50905060005b83811015613a3557613a05868686848181106139ab576139ab6152ac565b90506020028101906139bd91906152c2565b6139cb906020810190614b3f565b8787858181106139dd576139dd6152ac565b90506020028101906139ef91906152c2565b60200135888886818110612719576127196152ac565b828281518110613a1757613a176152ac565b60200260200101819052508080613a2d906152e2565b91505061398d565b50949350505050565b6040518060400160405280613a52846143f7565b6001600160401b0390811682526001600160e01b03199093166020918201526001600160a01b039094166000908152600185526040902081518154929095015160e01c600160401b026001600160601b031990921694909216939093179290921790915550565b6001600160a01b0316600090815260208190526040902080546001600160e01b0319169055565b6040516328207dbb60e11b81526001600160a01b038281166004830152600091610863917f00000000000000000000000000000000000000000000000000000000000000001690635040fb7690602401602060405180830381865afa158015613b4d573d6000803e3d6000fd5b505050506040513d601f19601f82011682018060405250810190613b71919061515b565b60025b600080613b81838561551b565b9050613b8d838561552f565b600003613b9b579050610863565b613ba68160016150c1565b915050610863565b5092915050565b604051631017f7cd60e31b81526001600160a01b0384811660048301528381166024830152604482018390527f000000000000000000000000000000000000000000000000000000000000000016906380bfbe6890606401600060405180830381600087803b158015613c2757600080fd5b505af1158015613c3b573d6000803e3d6000fd5b50505050505050565b6001600160a01b038116613c9a5760405162461bcd60e51b815260206004820152601c60248201527f534d3a206e6577206f776e65722063616e6e6f74206265206e756c6c00000000604482015260640161077f565b613ca48282613244565b156108cb5760405162461bcd60e51b815260206004820181905260248201527f534d3a206e6577206f776e65722063616e6e6f7420626520677561726469616e604482015260640161077f565b60006024821015613d3d5760405162461bcd60e51b815260206004820152601660248201527514934e88125b9d985b1a590819185d1855d85b1b195d60521b604482015260640161077f565b6000613d4c8360048187615543565b810190613d599190614b3f565b6001600160a01b03908116908616149150509392505050565b6000610863613d7f614463565b8360405161190160f01b8152600281019290925260228201526042902090565b6001600160a01b038181166000818152602081815260408083208151808301909252549485168152600160a01b9094046001600160401b0316908401529190331480156132db57504281602001516001600160401b031610159392505050565b6000828103613e1057506001611cc7565b600060606001846004811115613e2857613e28614dd0565b141580613e355750604185115b15613ecb5760405163f18858ab60e01b81526001600160a01b0389811660048301527f0000000000000000000000000000000000000000000000000000000000000000169063f18858ab90602401600060405180830381865afa158015613ea0573d6000803e3d6000fd5b505050506040513d6000823e601f3d908101601f19168201604052613ec8919081019061530d565b90505b6001600160a01b03881660009081526004602090815260408083208a845290915290205460ff1615613f535760405162461bcd60e51b815260206004820152602b60248201527f524d3a2076616c69646174655369676e6174757265733a20747820616c72656160448201526a191e48195e1958dd5d195960aa1b606482015260840161077f565b60005b613f6160418761551b565b81101561414457604080516041808252608082019092526000916020820181803683370190505090508760418302016041816020840137508160000361406d57600061400f8b6001600160a01b0316638da5cb5b6040518163ffffffff1660e01b8152600401602060405180830381865afa158015613fe4573d6000803e3d6000fd5b505050506040513d601f19601f820116820180604052508101906140089190615249565b8b84614593565b9050600187600481111561402557614025614dd0565b03614045578015614037575050614132565b600095505050505050611cc7565b600287600481111561405957614059614dd0565b0361406b57801561406b575050614132565b505b6000805b845181101561411b5761409e85828151811061408f5761408f6152ac565b60200260200101518c85614593565b1561410957856001600160a01b03168582815181106140bf576140bf6152ac565b60200260200101516001600160a01b0316116140e45760009650505050505050611cc7565b8481815181106140f6576140f66152ac565b602002602001015195506001915061411b565b80614113816152e2565b915050614071565b508061412f57600095505050505050611cc7565b50505b8061413c816152e2565b915050613f56565b50600198975050505050505050565b606060ff83146141665761356683614628565b818054614172906153be565b80601f016020809104026020016040519081016040528092919081815260200182805461419e906153be565b80156141eb5780601f106141c0576101008083540402835291602001916141eb565b820191906000526020600020905b8154815290600101906020018083116141ce57829003601f168201915b50505050509050610863565b60008060006142068585614667565b91509150614213816146ac565b509392505050565b6060600061424c6040518060400160405280600c81526020016b1a5b9d9bdad955d85b1b195d60a21b815250614373565b856001600160a01b031685858560405160240161426b9392919061556d565b60408051601f198184030181529181526020820180516001600160e01b03166347b7819960e11b179052516142a091906152fb565b6000604051808303816000865af19150503d80600081146142dd576040519150601f19603f3d011682016040523d82523d6000602084013e6142e2565b606091505b50925090508080156142f5575060008251115b15614315578180602001905181019061430e9190615594565b9150613a35565b815115614326573d6000803e3d6000fd5b80613a355760405162461bcd60e51b815260206004820152601a60248201527f424d3a2077616c6c657420696e766f6b65207265766572746564000000000000604482015260640161077f565b6143b6816040516024016143879190615601565b60408051601f198184030181529190526020810180516001600160e01b031663104c13eb60e21b1790526147f6565b50565b600080829050601f815111156143e4578260405163305a27a960e01b815260040161077f9190615601565b80516143ef82615614565b179392505050565b60006001600160401b0382111561445f5760405162461bcd60e51b815260206004820152602660248201527f53616665436173743a2076616c756520646f65736e27742066697420696e203660448201526534206269747360d01b606482015260840161077f565b5090565b6000306001600160a01b037f0000000000000000000000000000000000000000000000000000000000000000161480156144bc57507f000000000000000000000000000000000000000000000000000000000000000046145b156144e657507f000000000000000000000000000000000000000000000000000000000000000090565b61458e604080517f8b73c3c69bb8fe3d512ecc4cf759cc79239f7b179b0ffacaa9a75d522b39400f60208201527f0000000000000000000000000000000000000000000000000000000000000000918101919091527f000000000000000000000000000000000000000000000000000000000000000060608201524660808201523060a082015260009060c00160405160208183030381529060405280519060200120905090565b905090565b60008060006145a28585614667565b915091506145db60405180604001604052806013815260200172697356616c69645369676e61747572654e6f7760681b81525083614817565b60008160048111156145ef576145ef614dd0565b14801561460d5750856001600160a01b0316826001600160a01b0316145b8061461e575061461e86868661485c565b9695505050505050565b6060600061463583614948565b604080516020808252818301909252919250600091906020820181803683375050509182525060208101929092525090565b600080825160410361469d5760208301516040840151606085015160001a61469187828585614970565b945094505050506146a5565b506000905060025b9250929050565b60008160048111156146c0576146c0614dd0565b036146c85750565b60018160048111156146dc576146dc614dd0565b036147295760405162461bcd60e51b815260206004820152601860248201527f45434453413a20696e76616c6964207369676e61747572650000000000000000604482015260640161077f565b600281600481111561473d5761473d614dd0565b0361478a5760405162461bcd60e51b815260206004820152601f60248201527f45434453413a20696e76616c6964207369676e6174757265206c656e67746800604482015260640161077f565b600381600481111561479e5761479e614dd0565b036143b65760405162461bcd60e51b815260206004820152602260248201527f45434453413a20696e76616c6964207369676e6174757265202773272076616c604482015261756560f01b606482015260840161077f565b60006a636f6e736f6c652e6c6f679050600080835160208501845afa505050565b6108cb828260405160240161482d929190615638565b60408051601f198184030181529190526020810180516001600160e01b031663319af33360e01b1790526147f6565b6000806000856001600160a01b0316631626ba7e60e01b8686604051602401614886929190615662565b60408051601f198184030181529181526020820180516001600160e01b03166001600160e01b03199094169390931790925290516148c491906152fb565b600060405180830381855afa9150503d80600081146148ff576040519150601f19603f3d011682016040523d82523d6000602084013e614904565b606091505b509150915081801561491857506020815110155b801561461e57508051630b135d3f60e11b9061493d908301602090810190840161515b565b149695505050505050565b600060ff8216601f81111561086357604051632cd44ac360e21b815260040160405180910390fd5b6000807f7fffffffffffffffffffffffffffffff5d576e7357a4501ddfe92f46681b20a08311156149a75750600090506003614a2b565b6040805160008082526020820180845289905260ff881692820192909252606081018690526080810185905260019060a0016020604051602081039080840390855afa1580156149fb573d6000803e3d6000fd5b5050604051601f1901519150506001600160a01b038116614a2457600060019250925050614a2b565b9150600090505b94509492505050565b634e487b7160e01b600052604160045260246000fd5b604051601f8201601f191681016001600160401b0381118282101715614a7257614a72614a34565b604052919050565b60006001600160401b03821115614a9357614a93614a34565b50601f01601f191660200190565b60008060408385031215614ab457600080fd5b8235915060208301356001600160401b03811115614ad157600080fd5b8301601f81018513614ae257600080fd5b8035614af5614af082614a7a565b614a4a565b818152866020838501011115614b0a57600080fd5b816020840160208301376000602083830101528093505050509250929050565b6001600160a01b03811681146143b657600080fd5b600060208284031215614b5157600080fd5b81356132db81614b2a565b60008060408385031215614b6f57600080fd5b8235614b7a81614b2a565b91506020830135614b8a81614b2a565b809150509250929050565b60008083601f840112614ba757600080fd5b5081356001600160401b03811115614bbe57600080fd5b6020830191508360208260051b85010111156146a557600080fd5b600080600080600060808688031215614bf157600080fd5b8535614bfc81614b2a565b945060208601356001600160401b0380821115614c1857600080fd5b614c2489838a01614b95565b909650945060408801359150614c3982614b2a565b9092506060870135908082168214614c5057600080fd5b50809150509295509295909350565b60005b83811015614c7a578181015183820152602001614c62565b50506000910152565b60008151808452614c9b816020860160208601614c5f565b601f01601f19169290920160200192915050565b6000602080830181845280855180835260408601915060408160051b870101925083870160005b82811015614d0457603f19888603018452614cf2858351614c83565b94509285019290850190600101614cd6565b5092979650505050505050565b600060208284031215614d2357600080fd5b81356001600160e01b0319811681146132db57600080fd5b60008083601f840112614d4d57600080fd5b5081356001600160401b03811115614d6457600080fd5b6020830191508360208285010111156146a557600080fd5b600080600060408486031215614d9157600080fd5b8335614d9c81614b2a565b925060208401356001600160401b03811115614db757600080fd5b614dc386828701614d3b565b9497909650939450505050565b634e487b7160e01b600052602160045260246000fd5b8281526040810160058310614e0b57634e487b7160e01b600052602160045260246000fd5b8260208301529392505050565b60008060408385031215614e2b57600080fd5b8235614e3681614b2a565b946020939093013593505050565b600080600060408486031215614e5957600080fd5b8335614e6481614b2a565b925060208401356001600160401b03811115614e7f57600080fd5b614dc386828701614b95565b600080600080600080600060a0888a031215614ea657600080fd5b8735614eb181614b2a565b965060208801356001600160401b0380821115614ecd57600080fd5b614ed98b838c01614d3b565b909850965060408a0135955060608a0135945060808a0135915080821115614f0057600080fd5b50614f0d8a828b01614d3b565b989b979a50959850939692959293505050565b60ff60f81b881681526000602060e081840152614f4060e084018a614c83565b8381036040850152614f52818a614c83565b606085018990526001600160a01b038816608086015260a0850187905284810360c0860152855180825283870192509083019060005b81811015614fa457835183529284019291840191600101614f88565b50909c9b505050505050505050505050565b60008060408385031215614fc957600080fd5b82356001600160401b03811115614fdf57600080fd5b83016101608186031215614e3657600080fd5b6020808252825182820181905260009190848201906040850190845b818110156150335783516001600160a01b03168352928401929184019160010161500e565b50909695505050505050565b60208082526017908201527f424d3a206d7573742062652077616c6c65742f73656c66000000000000000000604082015260600190565b6001600160601b0319606093841b811682529190921b166014820152693932bb37b5b0ba34b7b760b11b602882015260320190565b634e487b7160e01b600052601160045260246000fd5b80820180821115610863576108636150ab565b602080825260129082015271424d3a206d757374206265206d6f64756c6560701b604082015260600190565b60208082526011908201527010934e881dd85b1b195d081b1bd8dad959607a1b604082015260600190565b63ffffffff818116838216019080821115613bae57613bae6150ab565b81810381811115610863576108636150ab565b60006020828403121561516d57600080fd5b5051919050565b6020808252601d908201527f424d3a206d7573742062652077616c6c6574206f776e65722f73656c66000000604082015260600190565b6000602082840312156151bd57600080fd5b815180151581146132db57600080fd5b6001600160601b0319606093841b811682529190921b1660148201526730b23234ba34b7b760c11b602882015260300190565b8082028115828204841417610863576108636150ab565b8183823760009101908152919050565b60408152600061523a6040830185614c83565b90508260208301529392505050565b60006020828403121561525b57600080fd5b81516132db81614b2a565b6000808335601e1984360301811261527d57600080fd5b8301803591506001600160401b0382111561529757600080fd5b6020019150368190038213156146a557600080fd5b634e487b7160e01b600052603260045260246000fd5b60008235605e198336030181126152d857600080fd5b9190910192915050565b6000600182016152f4576152f46150ab565b5060010190565b600082516152d8818460208701614c5f565b6000602080838503121561532057600080fd5b82516001600160401b038082111561533757600080fd5b818501915085601f83011261534b57600080fd5b81518181111561535d5761535d614a34565b8060051b915061536e848301614a4a565b818152918301840191848101908884111561538857600080fd5b938501935b838510156153b257845192506153a283614b2a565b828252938501939085019061538d565b98975050505050505050565b600181811c908216806153d257607f821691505b6020821081036153f257634e487b7160e01b600052602260045260246000fd5b50919050565b601f82111561257857600081815260208120601f850160051c8101602086101561541f5750805b601f850160051c820191505b8181101561543e5782815560010161542b565b505050505050565b81516001600160401b0381111561545f5761545f614a34565b6154738161546d84546153be565b846153f8565b602080601f8311600181146154a857600084156154905750858301515b600019600386901b1c1916600185901b17855561543e565b600085815260208120601f198616915b828110156154d7578886015182559484019460019091019084016154b8565b50858210156154f55787850151600019600388901b60f8161c191681555b5050505050600190811b01905550565b634e487b7160e01b600052601260045260246000fd5b60008261552a5761552a615505565b500490565b60008261553e5761553e615505565b500690565b6000808585111561555357600080fd5b8386111561556057600080fd5b5050820193919092039150565b60018060a01b0384168152826020820152606060408201526000611cc76060830184614c83565b6000602082840312156155a657600080fd5b81516001600160401b038111156155bc57600080fd5b8201601f810184136155cd57600080fd5b80516155db614af082614a7a565b8181528560208385010111156155f057600080fd5b611cc7826020830160208601614c5f565b6020815260006132db6020830184614c83565b805160208083015191908110156153f25760001960209190910360031b1b16919050565b60408152600061564b6040830185614c83565b905060018060a01b03831660208301529392505050565b828152604060208201526000612c156040830184614c8356fea26469706673582212208b2956f53a38484c61eac7c0afad50d65dab91e227b79e774697bd402eb09e4164736f6c63430008120033",
  "linkReferences": {},
  "deployedLinkReferences": {}
}