{
  "_format": "hh-sol-artifact-1",
  "contractName": "UsersModule",
  "sourceName": "contracts/modules/UsersModule.sol",
  "abi": [
    {
      "inputs": [
        {
          "internalType": "contract IModuleRegistry",
          "name": "_registry",
          "type": "address"
        },
        {
          "internalType": "contract IGuardianStorage",
          "name": "_guardianStorage",
          "type": "address"
        },
        {
          "internalType": "contract ITransferStorage",
          "name": "_userWhitelist",
          "type": "address"
        },
        {
          "internalType": "contract IAuthoriser",
          "name": "_authoriser",
          "type": "address"
        },
        {
          "internalType": "uint256",
          "name": "_securityPeriod",
          "type": "uint256"
        },
        {
          "internalType": "uint256",
          "name": "_securityWindow",
          "type": "uint256"
        },
        {
          "internalType": "uint256",
          "name": "_recoveryPeriod",
          "type": "uint256"
        },
        {
          "internalType": "uint256",
          "name": "_lockPeriod",
          "type": "uint256"
        }
      ],
      "stateMutability": "nonpayable",
      "type": "constructor"
    },
    {
      "inputs": [],
      "name": "InvalidShortString",
      "type": "error"
    },
    {
      "inputs": [
        {
          "internalType": "string",
          "name": "str",
          "type": "string"
        }
      ],
      "name": "StringTooLong",
      "type": "error"
    },
    {
      "anonymous": false,
      "inputs": [
        {
          "indexed": true,
          "internalType": "address",
          "name": "wallet",
          "type": "address"
        },
        {
          "indexed": true,
          "internalType": "address",
          "name": "target",
          "type": "address"
        },
        {
          "indexed": false,
          "internalType": "uint64",
          "name": "whitelistAfter",
          "type": "uint64"
        }
      ],
      "name": "AddedToWhitelist",
      "type": "event"
    },
    {
      "anonymous": false,
      "inputs": [],
      "name": "EIP712DomainChanged",
      "type": "event"
    },
    {
      "anonymous": false,
      "inputs": [
        {
          "indexed": true,
          "internalType": "address",
          "name": "wallet",
          "type": "address"
        },
        {
          "indexed": true,
          "internalType": "address",
          "name": "guardian",
          "type": "address"
        }
      ],
      "name": "GuardianAdded",
      "type": "event"
    },
    {
      "anonymous": false,
      "inputs": [
        {
          "indexed": true,
          "internalType": "address",
          "name": "wallet",
          "type": "address"
        },
        {
          "indexed": true,
          "internalType": "address",
          "name": "guardian",
          "type": "address"
        }
      ],
      "name": "GuardianAdditionCancelled",
      "type": "event"
    },
    {
      "anonymous": false,
      "inputs": [
        {
          "indexed": true,
          "internalType": "address",
          "name": "wallet",
          "type": "address"
        },
        {
          "indexed": true,
          "internalType": "address",
          "name": "guardian",
          "type": "address"
        },
        {
          "indexed": false,
          "internalType": "uint256",
          "name": "executeAfter",
          "type": "uint256"
        }
      ],
      "name": "GuardianAdditionRequested",
      "type": "event"
    },
    {
      "anonymous": false,
      "inputs": [
        {
          "indexed": true,
          "internalType": "address",
          "name": "wallet",
          "type": "address"
        },
        {
          "indexed": true,
          "internalType": "address",
          "name": "guardian",
          "type": "address"
        }
      ],
      "name": "GuardianRevokationCancelled",
      "type": "event"
    },
    {
      "anonymous": false,
      "inputs": [
        {
          "indexed": true,
          "internalType": "address",
          "name": "wallet",
          "type": "address"
        },
        {
          "indexed": true,
          "internalType": "address",
          "name": "guardian",
          "type": "address"
        },
        {
          "indexed": false,
          "internalType": "uint256",
          "name": "executeAfter",
          "type": "uint256"
        }
      ],
      "name": "GuardianRevokationRequested",
      "type": "event"
    },
    {
      "anonymous": false,
      "inputs": [
        {
          "indexed": true,
          "internalType": "address",
          "name": "wallet",
          "type": "address"
        },
        {
          "indexed": true,
          "internalType": "address",
          "name": "guardian",
          "type": "address"
        }
      ],
      "name": "GuardianRevoked",
      "type": "event"
    },
    {
      "anonymous": false,
      "inputs": [
        {
          "indexed": true,
          "internalType": "address",
          "name": "wallet",
          "type": "address"
        },
        {
          "indexed": false,
          "internalType": "bool",
          "name": "success",
          "type": "bool"
        },
        {
          "indexed": false,
          "internalType": "uint256",
          "name": "value",
          "type": "uint256"
        },
        {
          "indexed": false,
          "internalType": "string",
          "name": "reason",
          "type": "string"
        }
      ],
      "name": "InvokeWalletResult",
      "type": "event"
    },
    {
      "anonymous": false,
      "inputs": [
        {
          "indexed": true,
          "internalType": "address",
          "name": "wallet",
          "type": "address"
        },
        {
          "indexed": false,
          "internalType": "uint64",
          "name": "releaseAfter",
          "type": "uint64"
        }
      ],
      "name": "Locked",
      "type": "event"
    },
    {
      "anonymous": false,
      "inputs": [
        {
          "indexed": false,
          "internalType": "bytes32",
          "name": "name",
          "type": "bytes32"
        }
      ],
      "name": "ModuleCreated",
      "type": "event"
    },
    {
      "anonymous": false,
      "inputs": [
        {
          "indexed": true,
          "internalType": "address",
          "name": "wallet",
          "type": "address"
        },
        {
          "indexed": true,
          "internalType": "address",
          "name": "_newOwner",
          "type": "address"
        }
      ],
      "name": "OwnershipTransfered",
      "type": "event"
    },
    {
      "anonymous": false,
      "inputs": [
        {
          "indexed": true,
          "internalType": "address",
          "name": "wallet",
          "type": "address"
        },
        {
          "indexed": true,
          "internalType": "address",
          "name": "_recovery",
          "type": "address"
        }
      ],
      "name": "RecoveryCanceled",
      "type": "event"
    },
    {
      "anonymous": false,
      "inputs": [
        {
          "indexed": true,
          "internalType": "address",
          "name": "wallet",
          "type": "address"
        },
        {
          "indexed": true,
          "internalType": "address",
          "name": "_recovery",
          "type": "address"
        },
        {
          "indexed": false,
          "internalType": "uint64",
          "name": "executeAfter",
          "type": "uint64"
        }
      ],
      "name": "RecoveryExecuted",
      "type": "event"
    },
    {
      "anonymous": false,
      "inputs": [
        {
          "indexed": true,
          "internalType": "address",
          "name": "wallet",
          "type": "address"
        },
        {
          "indexed": true,
          "internalType": "address",
          "name": "_recovery",
          "type": "address"
        }
      ],
      "name": "RecoveryFinalized",
      "type": "event"
    },
    {
      "anonymous": false,
      "inputs": [
        {
          "indexed": true,
          "internalType": "address",
          "name": "wallet",
          "type": "address"
        },
        {
          "indexed": true,
          "internalType": "address",
          "name": "refundAddress",
          "type": "address"
        },
        {
          "indexed": false,
          "internalType": "address",
          "name": "refundToken",
          "type": "address"
        },
        {
          "indexed": false,
          "internalType": "uint256",
          "name": "refundAmount",
          "type": "uint256"
        }
      ],
      "name": "Refund",
      "type": "event"
    },
    {
      "anonymous": false,
      "inputs": [
        {
          "indexed": true,
          "internalType": "address",
          "name": "wallet",
          "type": "address"
        },
        {
          "indexed": true,
          "internalType": "address",
          "name": "target",
          "type": "address"
        }
      ],
      "name": "RemovedFromWhitelist",
      "type": "event"
    },
    {
      "anonymous": false,
      "inputs": [
        {
          "indexed": true,
          "internalType": "address",
          "name": "wallet",
          "type": "address"
        },
        {
          "indexed": false,
          "internalType": "address",
          "name": "sessionKey",
          "type": "address"
        }
      ],
      "name": "SessionCleared",
      "type": "event"
    },
    {
      "anonymous": false,
      "inputs": [
        {
          "indexed": true,
          "internalType": "address",
          "name": "wallet",
          "type": "address"
        },
        {
          "indexed": false,
          "internalType": "address",
          "name": "sessionKey",
          "type": "address"
        },
        {
          "indexed": false,
          "internalType": "uint64",
          "name": "expires",
          "type": "uint64"
        }
      ],
      "name": "SessionCreated",
      "type": "event"
    },
    {
      "anonymous": false,
      "inputs": [
        {
          "indexed": true,
          "internalType": "address",
          "name": "wallet",
          "type": "address"
        },
        {
          "indexed": true,
          "internalType": "bool",
          "name": "success",
          "type": "bool"
        },
        {
          "indexed": false,
          "internalType": "bytes",
          "name": "returnData",
          "type": "bytes"
        },
        {
          "indexed": false,
          "internalType": "bytes32",
          "name": "signedHash",
          "type": "bytes32"
        }
      ],
      "name": "TransactionExecuted",
      "type": "event"
    },
    {
      "anonymous": false,
      "inputs": [
        {
          "indexed": true,
          "internalType": "address",
          "name": "wallet",
          "type": "address"
        }
      ],
      "name": "Unlocked",
      "type": "event"
    },
    {
      "anonymous": false,
      "inputs": [
        {
          "indexed": true,
          "internalType": "address",
          "name": "wallet",
          "type": "address"
        },
        {
          "indexed": true,
          "internalType": "address",
          "name": "_newImplementation",
          "type": "address"
        }
      ],
      "name": "WalletUpgraded",
      "type": "event"
    },
    {
      "stateMutability": "nonpayable",
      "type": "fallback"
    },
    {
      "inputs": [
        {
          "internalType": "string",
          "name": "text",
          "type": "string"
        }
      ],
      "name": "Error",
      "outputs": [
        {
          "internalType": "string",
          "name": "",
          "type": "string"
        }
      ],
      "stateMutability": "pure",
      "type": "function"
    },
    {
      "inputs": [],
      "name": "NAME",
      "outputs": [
        {
          "internalType": "bytes32",
          "name": "",
          "type": "bytes32"
        }
      ],
      "stateMutability": "view",
      "type": "function"
    },
    {
      "inputs": [
        {
          "internalType": "uint256",
          "name": "code",
          "type": "uint256"
        }
      ],
      "name": "Panic",
      "outputs": [
        {
          "internalType": "uint256",
          "name": "",
          "type": "uint256"
        }
      ],
      "stateMutability": "pure",
      "type": "function"
    },
    {
      "inputs": [
        {
          "internalType": "address",
          "name": "_wallet",
          "type": "address"
        },
        {
          "internalType": "address",
          "name": "_guardian",
          "type": "address"
        }
      ],
      "name": "addGuardian",
      "outputs": [],
      "stateMutability": "nonpayable",
      "type": "function"
    },
    {
      "inputs": [
        {
          "internalType": "address",
          "name": "_wallet",
          "type": "address"
        },
        {
          "internalType": "address",
          "name": "_module",
          "type": "address"
        }
      ],
      "name": "addModule",
      "outputs": [],
      "stateMutability": "nonpayable",
      "type": "function"
    },
    {
      "inputs": [
        {
          "internalType": "address",
          "name": "_wallet",
          "type": "address"
        },
        {
          "internalType": "address",
          "name": "_target",
          "type": "address"
        }
      ],
      "name": "addToWhitelist",
      "outputs": [],
      "stateMutability": "nonpayable",
      "type": "function"
    },
    {
      "inputs": [
        {
          "internalType": "address",
          "name": "_wallet",
          "type": "address"
        },
        {
          "internalType": "address",
          "name": "_guardian",
          "type": "address"
        }
      ],
      "name": "cancelGuardianAddition",
      "outputs": [],
      "stateMutability": "nonpayable",
      "type": "function"
    },
    {
      "inputs": [
        {
          "internalType": "address",
          "name": "_wallet",
          "type": "address"
        },
        {
          "internalType": "address",
          "name": "_guardian",
          "type": "address"
        }
      ],
      "name": "cancelGuardianRevokation",
      "outputs": [],
      "stateMutability": "nonpayable",
      "type": "function"
    },
    {
      "inputs": [
        {
          "internalType": "address",
          "name": "_wallet",
          "type": "address"
        }
      ],
      "name": "cancelRecovery",
      "outputs": [],
      "stateMutability": "nonpayable",
      "type": "function"
    },
    {
      "inputs": [
        {
          "internalType": "address",
          "name": "_wallet",
          "type": "address"
        }
      ],
      "name": "clearSession",
      "outputs": [],
      "stateMutability": "nonpayable",
      "type": "function"
    },
    {
      "inputs": [
        {
          "internalType": "address",
          "name": "_wallet",
          "type": "address"
        },
        {
          "internalType": "address",
          "name": "_guardian",
          "type": "address"
        }
      ],
      "name": "confirmGuardianAddition",
      "outputs": [],
      "stateMutability": "nonpayable",
      "type": "function"
    },
    {
      "inputs": [
        {
          "internalType": "address",
          "name": "_wallet",
          "type": "address"
        },
        {
          "internalType": "address",
          "name": "_guardian",
          "type": "address"
        }
      ],
      "name": "confirmGuardianRevokation",
      "outputs": [],
      "stateMutability": "nonpayable",
      "type": "function"
    },
    {
      "inputs": [],
      "name": "eip712Domain",
      "outputs": [
        {
          "internalType": "bytes1",
          "name": "fields",
          "type": "bytes1"
        },
        {
          "internalType": "string",
          "name": "name",
          "type": "string"
        },
        {
          "internalType": "string",
          "name": "version",
          "type": "string"
        },
        {
          "internalType": "uint256",
          "name": "chainId",
          "type": "uint256"
        },
        {
          "internalType": "address",
          "name": "verifyingContract",
          "type": "address"
        },
        {
          "internalType": "bytes32",
          "name": "salt",
          "type": "bytes32"
        },
        {
          "internalType": "uint256[]",
          "name": "extensions",
          "type": "uint256[]"
        }
      ],
      "stateMutability": "view",
      "type": "function"
    },
    {
      "inputs": [
        {
          "internalType": "address",
          "name": "_wallet",
          "type": "address"
        },
        {
          "internalType": "bytes",
          "name": "_data",
          "type": "bytes"
        },
        {
          "internalType": "uint256",
          "name": "_nonce",
          "type": "uint256"
        },
        {
          "internalType": "uint256",
          "name": "_deadline",
          "type": "uint256"
        },
        {
          "internalType": "bytes",
          "name": "_signatures",
          "type": "bytes"
        }
      ],
      "name": "execute",
      "outputs": [
        {
          "internalType": "bool",
          "name": "",
          "type": "bool"
        }
      ],
      "stateMutability": "nonpayable",
      "type": "function"
    },
    {
      "inputs": [
        {
          "internalType": "address",
          "name": "_wallet",
          "type": "address"
        },
        {
          "internalType": "address",
          "name": "_recovery",
          "type": "address"
        }
      ],
      "name": "executeRecovery",
      "outputs": [],
      "stateMutability": "nonpayable",
      "type": "function"
    },
    {
      "inputs": [
        {
          "internalType": "address",
          "name": "_wallet",
          "type": "address"
        }
      ],
      "name": "finalizeRecovery",
      "outputs": [],
      "stateMutability": "nonpayable",
      "type": "function"
    },
    {
      "inputs": [
        {
          "internalType": "address",
          "name": "_wallet",
          "type": "address"
        }
      ],
      "name": "getGuardians",
      "outputs": [
        {
          "internalType": "address[]",
          "name": "_guardians",
          "type": "address[]"
        }
      ],
      "stateMutability": "view",
      "type": "function"
    },
    {
      "inputs": [
        {
          "internalType": "address",
          "name": "_wallet",
          "type": "address"
        }
      ],
      "name": "getLock",
      "outputs": [
        {
          "internalType": "uint64",
          "name": "_releaseAfter",
          "type": "uint64"
        }
      ],
      "stateMutability": "view",
      "type": "function"
    },
    {
      "inputs": [
        {
          "internalType": "address",
          "name": "_wallet",
          "type": "address"
        }
      ],
      "name": "getRecovery",
      "outputs": [
        {
          "internalType": "address",
          "name": "_address",
          "type": "address"
        },
        {
          "internalType": "uint64",
          "name": "_executeAfter",
          "type": "uint64"
        },
        {
          "internalType": "uint32",
          "name": "_guardianCount",
          "type": "uint32"
        }
      ],
      "stateMutability": "view",
      "type": "function"
    },
    {
      "inputs": [
        {
          "internalType": "address",
          "name": "_wallet",
          "type": "address"
        },
        {
          "internalType": "bytes",
          "name": "_data",
          "type": "bytes"
        }
      ],
      "name": "getRequiredSignatures",
      "outputs": [
        {
          "internalType": "uint256",
          "name": "",
          "type": "uint256"
        },
        {
          "internalType": "enum BaseModule.OwnerSignature",
          "name": "",
          "type": "uint8"
        }
      ],
      "stateMutability": "view",
      "type": "function"
    },
    {
      "inputs": [
        {
          "internalType": "address",
          "name": "_wallet",
          "type": "address"
        }
      ],
      "name": "getSession",
      "outputs": [
        {
          "internalType": "address",
          "name": "key",
          "type": "address"
        },
        {
          "internalType": "uint64",
          "name": "expires",
          "type": "uint64"
        }
      ],
      "stateMutability": "view",
      "type": "function"
    },
    {
      "inputs": [
        {
          "internalType": "address",
          "name": "_wallet",
          "type": "address"
        }
      ],
      "name": "guardianCount",
      "outputs": [
        {
          "internalType": "uint256",
          "name": "_count",
          "type": "uint256"
        }
      ],
      "stateMutability": "view",
      "type": "function"
    },
    {
      "inputs": [
        {
          "internalType": "address",
          "name": "_wallet",
          "type": "address"
        }
      ],
      "name": "init",
      "outputs": [],
      "stateMutability": "nonpayable",
      "type": "function"
    },
    {
      "inputs": [
        {
          "internalType": "address",
          "name": "_wallet",
          "type": "address"
        },
        {
          "internalType": "bytes32",
          "name": "_signHash",
          "type": "bytes32"
        }
      ],
      "name": "isExecutedTx",
      "outputs": [
        {
          "internalType": "bool",
          "name": "executed",
          "type": "bool"
        }
      ],
      "stateMutability": "view",
      "type": "function"
    },
    {
      "inputs": [
        {
          "internalType": "address",
          "name": "_wallet",
          "type": "address"
        },
        {
          "internalType": "address",
          "name": "_guardian",
          "type": "address"
        }
      ],
      "name": "isGuardian",
      "outputs": [
        {
          "internalType": "bool",
          "name": "_isGuardian",
          "type": "bool"
        }
      ],
      "stateMutability": "view",
      "type": "function"
    },
    {
      "inputs": [
        {
          "internalType": "address",
          "name": "_wallet",
          "type": "address"
        }
      ],
      "name": "isLocked",
      "outputs": [
        {
          "internalType": "bool",
          "name": "",
          "type": "bool"
        }
      ],
      "stateMutability": "view",
      "type": "function"
    },
    {
      "inputs": [],
      "name": "isSignatureModule",
      "outputs": [
        {
          "internalType": "bool",
          "name": "",
          "type": "bool"
        }
      ],
      "stateMutability": "pure",
      "type": "function"
    },
    {
      "inputs": [
        {
          "internalType": "bytes32",
          "name": "_msgHash",
          "type": "bytes32"
        },
        {
          "internalType": "bytes",
          "name": "_signature",
          "type": "bytes"
        }
      ],
      "name": "isValidSignature",
      "outputs": [
        {
          "internalType": "bytes4",
          "name": "",
          "type": "bytes4"
        }
      ],
      "stateMutability": "view",
      "type": "function"
    },
    {
      "inputs": [
        {
          "components": [
            {
              "internalType": "address",
              "name": "sender",
              "type": "address"
            },
            {
              "internalType": "uint256",
              "name": "nonce",
              "type": "uint256"
            },
            {
              "internalType": "bytes",
              "name": "initCode",
              "type": "bytes"
            },
            {
              "internalType": "bytes",
              "name": "callData",
              "type": "bytes"
            },
            {
              "internalType": "uint256",
              "name": "callGasLimit",
              "type": "uint256"
            },
            {
              "internalType": "uint256",
              "name": "verificationGasLimit",
              "type": "uint256"
            },
            {
              "internalType": "uint256",
              "name": "preVerificationGas",
              "type": "uint256"
            },
            {
              "internalType": "uint256",
              "name": "maxFeePerGas",
              "type": "uint256"
            },
            {
              "internalType": "uint256",
              "name": "maxPriorityFeePerGas",
              "type": "uint256"
            },
            {
              "internalType": "bytes",
              "name": "paymasterAndData",
              "type": "bytes"
            },
            {
              "internalType": "bytes",
              "name": "signature",
              "type": "bytes"
            }
          ],
          "internalType": "struct UserOperation",
          "name": "_userOp",
          "type": "tuple"
        },
        {
          "internalType": "bytes32",
          "name": "_userOpHash",
          "type": "bytes32"
        }
      ],
      "name": "isValidSignature",
      "outputs": [
        {
          "internalType": "uint256",
          "name": "validationData",
          "type": "uint256"
        }
      ],
      "stateMutability": "view",
      "type": "function"
    },
    {
      "inputs": [
        {
          "internalType": "address",
          "name": "_wallet",
          "type": "address"
        },
        {
          "internalType": "address",
          "name": "_target",
          "type": "address"
        }
      ],
      "name": "isWhitelisted",
      "outputs": [
        {
          "internalType": "bool",
          "name": "_isWhitelisted",
          "type": "bool"
        }
      ],
      "stateMutability": "view",
      "type": "function"
    },
    {
      "inputs": [
        {
          "internalType": "address",
          "name": "_wallet",
          "type": "address"
        }
      ],
      "name": "lock",
      "outputs": [],
      "stateMutability": "nonpayable",
      "type": "function"
    },
    {
      "inputs": [
        {
          "internalType": "address",
          "name": "_wallet",
          "type": "address"
        },
        {
          "components": [
            {
              "internalType": "address",
              "name": "to",
              "type": "address"
            },
            {
              "internalType": "uint256",
              "name": "value",
              "type": "uint256"
            },
            {
              "internalType": "bytes",
              "name": "data",
              "type": "bytes"
            }
          ],
          "internalType": "struct EnterpriseTransactionManager.Call[]",
          "name": "_transactions",
          "type": "tuple[]"
        }
      ],
      "name": "multiCall",
      "outputs": [
        {
          "internalType": "bytes[]",
          "name": "",
          "type": "bytes[]"
        }
      ],
      "stateMutability": "nonpayable",
      "type": "function"
    },
    {
      "inputs": [
        {
          "internalType": "address",
          "name": "_wallet",
          "type": "address"
        },
        {
          "components": [
            {
              "internalType": "address",
              "name": "to",
              "type": "address"
            },
            {
              "internalType": "uint256",
              "name": "value",
              "type": "uint256"
            },
            {
              "internalType": "bytes",
              "name": "data",
              "type": "bytes"
            }
          ],
          "internalType": "struct EnterpriseTransactionManager.Call[]",
          "name": "_transactions",
          "type": "tuple[]"
        }
      ],
      "name": "multiCallNoRevert",
      "outputs": [
        {
          "internalType": "bytes[]",
          "name": "",
          "type": "bytes[]"
        }
      ],
      "stateMutability": "nonpayable",
      "type": "function"
    },
    {
      "inputs": [
        {
          "internalType": "address",
          "name": "_wallet",
          "type": "address"
        },
        {
          "components": [
            {
              "internalType": "address",
              "name": "to",
              "type": "address"
            },
            {
              "internalType": "uint256",
              "name": "value",
              "type": "uint256"
            },
            {
              "internalType": "bytes",
              "name": "data",
              "type": "bytes"
            }
          ],
          "internalType": "struct EnterpriseTransactionManager.Call[]",
          "name": "_transactions",
          "type": "tuple[]"
        }
      ],
      "name": "multiCallWithGuardians",
      "outputs": [
        {
          "internalType": "bytes[]",
          "name": "",
          "type": "bytes[]"
        }
      ],
      "stateMutability": "nonpayable",
      "type": "function"
    },
    {
      "inputs": [
        {
          "internalType": "address",
          "name": "_wallet",
          "type": "address"
        },
        {
          "components": [
            {
              "internalType": "address",
              "name": "to",
              "type": "address"
            },
            {
              "internalType": "uint256",
              "name": "value",
              "type": "uint256"
            },
            {
              "internalType": "bytes",
              "name": "data",
              "type": "bytes"
            }
          ],
          "internalType": "struct EnterpriseTransactionManager.Call[]",
          "name": "_transactions",
          "type": "tuple[]"
        },
        {
          "internalType": "address",
          "name": "_sessionUser",
          "type": "address"
        },
        {
          "internalType": "uint64",
          "name": "_duration",
          "type": "uint64"
        }
      ],
      "name": "multiCallWithGuardiansAndStartSession",
      "outputs": [
        {
          "internalType": "bytes[]",
          "name": "",
          "type": "bytes[]"
        }
      ],
      "stateMutability": "nonpayable",
      "type": "function"
    },
    {
      "inputs": [
        {
          "internalType": "address",
          "name": "_wallet",
          "type": "address"
        },
        {
          "components": [
            {
              "internalType": "address",
              "name": "to",
              "type": "address"
            },
            {
              "internalType": "uint256",
              "name": "value",
              "type": "uint256"
            },
            {
              "internalType": "bytes",
              "name": "data",
              "type": "bytes"
            }
          ],
          "internalType": "struct EnterpriseTransactionManager.Call[]",
          "name": "_transactions",
          "type": "tuple[]"
        }
      ],
      "name": "multiCallWithSession",
      "outputs": [
        {
          "internalType": "bytes[]",
          "name": "",
          "type": "bytes[]"
        }
      ],
      "stateMutability": "nonpayable",
      "type": "function"
    },
    {
      "inputs": [
        {
          "internalType": "address",
          "name": "_token",
          "type": "address"
        }
      ],
      "name": "recoverToken",
      "outputs": [],
      "stateMutability": "nonpayable",
      "type": "function"
    },
    {
      "inputs": [
        {
          "internalType": "address",
          "name": "_wallet",
          "type": "address"
        },
        {
          "internalType": "address",
          "name": "_target",
          "type": "address"
        }
      ],
      "name": "removeFromWhitelist",
      "outputs": [],
      "stateMutability": "nonpayable",
      "type": "function"
    },
    {
      "inputs": [
        {
          "internalType": "address",
          "name": "_wallet",
          "type": "address"
        },
        {
          "internalType": "address",
          "name": "_guardian",
          "type": "address"
        }
      ],
      "name": "revokeGuardian",
      "outputs": [],
      "stateMutability": "nonpayable",
      "type": "function"
    },
    {
      "inputs": [
        {
          "internalType": "bytes4",
          "name": "_methodId",
          "type": "bytes4"
        }
      ],
      "name": "supportsStaticCall",
      "outputs": [
        {
          "internalType": "bool",
          "name": "_isSupported",
          "type": "bool"
        }
      ],
      "stateMutability": "pure",
      "type": "function"
    },
    {
      "inputs": [
        {
          "internalType": "address",
          "name": "_wallet",
          "type": "address"
        },
        {
          "internalType": "address",
          "name": "_newOwner",
          "type": "address"
        }
      ],
      "name": "transferOwnership",
      "outputs": [],
      "stateMutability": "nonpayable",
      "type": "function"
    },
    {
      "inputs": [
        {
          "internalType": "address",
          "name": "_wallet",
          "type": "address"
        }
      ],
      "name": "unlock",
      "outputs": [],
      "stateMutability": "nonpayable",
      "type": "function"
    },
    {
      "inputs": [
        {
          "internalType": "address",
          "name": "_wallet",
          "type": "address"
        },
        {
          "internalType": "address",
          "name": "_newImplementation",
          "type": "address"
        }
      ],
      "name": "upgradeWallet",
      "outputs": [],
      "stateMutability": "nonpayable",
      "type": "function"
    }
  ],
  "bytecode": "0x6102806040523480156200001257600080fd5b5060405162006b2e38038062006b2e833981016040819052620000359162000397565b83828585846040518060400160405280600c81526020016b52656c617965724b6e6f627360a01b81525080604051806040016040528060018152602001603160f81b8152508f8f8f8f6a55736572734d6f64756c6560a81b846001600160a01b03166080816001600160a01b031681525050836001600160a01b031660a0816001600160a01b031681525050826001600160a01b031660c0816001600160a01b031681525050816001600160a01b031660e0816001600160a01b0316815250507f3019c8fc80239e3dff8f781212ae2004839c2cb61d6c70acd279ac65392145df816040516200012791815260200190565b60405180910390a150505050506200014f600283620002e860201b620038ac1790919060201c565b6101a0526200016c816003620002e8602090811b620038ac17901c565b6101c052815160208084019190912061016052815190820120610180524661012052620001fd6101605161018051604080517f8b73c3c69bb8fe3d512ecc4cf759cc79239f7b179b0ffacaa9a75d522b39400f60208201529081019290925260608201524660808201523060a082015260009060c00160405160208183030381529060405280519060200120905090565b610100525050306101405250838110156200025f5760405162461bcd60e51b815260206004820152601860248201527f534d3a20696e736563757265206c6f636b20706572696f64000000000000000060448201526064015b60405180910390fd5b6200026b828462000426565b841015620002bc5760405162461bcd60e51b815260206004820152601d60248201527f534d3a20696e73656375726520736563757269747920706572696f6473000000604482015260640162000256565b6101e09390935261020092909252610240919091526102205261026052506200062e9650505050505050565b60006020835110156200030857620003008362000338565b905062000332565b826200031f836200037b60201b620003181760201c565b906200032c9082620004ed565b5060ff90505b92915050565b600080829050601f8151111562000366578260405163305a27a960e01b8152600401620002569190620005b9565b8051620003738262000609565b179392505050565b90565b6001600160a01b03811681146200039457600080fd5b50565b600080600080600080600080610100898b031215620003b557600080fd5b8851620003c2816200037e565b60208a0151909850620003d5816200037e565b60408a0151909750620003e8816200037e565b60608a0151909650620003fb816200037e565b60808a015160a08b015160c08c015160e0909c01519a9d999c50979a91999098919650945092505050565b808201808211156200033257634e487b7160e01b600052601160045260246000fd5b634e487b7160e01b600052604160045260246000fd5b600181811c908216806200047357607f821691505b6020821081036200049457634e487b7160e01b600052602260045260246000fd5b50919050565b601f821115620004e857600081815260208120601f850160051c81016020861015620004c35750805b601f850160051c820191505b81811015620004e457828155600101620004cf565b5050505b505050565b81516001600160401b0381111562000509576200050962000448565b62000521816200051a84546200045e565b846200049a565b602080601f831160018114620005595760008415620005405750858301515b600019600386901b1c1916600185901b178555620004e4565b600085815260208120601f198616915b828110156200058a5788860151825594840194600190910190840162000569565b5085821015620005a95787850151600019600388901b60f8161c191681555b5050505050600190811b01905550565b600060208083528351808285015260005b81811015620005e857858101830151858201604001528201620005ca565b506000604082860101526040601f19601f8301168501019250505092915050565b80516020808301519190811015620004945760001960209190910360031b1b16919050565b60805160a05160c05160e05161010051610120516101405161016051610180516101a0516101c0516101e051610200516102205161024051610260516163c76200076760003960006119c8015260008181610a3d0152818161160d015281816120b80152613222015260008181610ab601528181610b1e0152818161329b0152613303015260008181612dc90152818161375c01526137be01526000612c7301526000612605015260006125da01526000614ed501526000614ead01526000614e0801526000614e3201526000614e5c01526000505060008181612e79015261401d0152600081816116a70152818161176e0152818161215201528181612cdd0152818161354e0152818161365f01528181613f4001526147160152600081816118b201528181611ab901526127e801526163c76000f3fe608060405234801561001057600080fd5b50600436106102695760003560e01c806370135f5211610151578063b0ba4da0116100c3578063d4bfea4811610087578063d4bfea4814610727578063d4ee97341461073a578063f143ddba1461074d578063f18858ab14610760578063f435f5a714610780578063f8d3277d1461079357610269565b8063b0ba4da0146106c8578063b6b35272146106db578063ba821088146106ee578063c684521014610701578063c90db4471461071457610269565b80639769c3fe116101155780639769c3fe146105e75780639add38d5146106675780639be65a601461067a578063a3f4df7e1461068d578063a5efb235146106a2578063a6eb0690146106b557610269565b806370135f52146105385780637d1c2e781461054b57806384b0196e1461055e578063873bd184146105795780638c8e13b91461058057610269565b80634a4fbeec116101ea5780635a1db8c4116101ae5780635a1db8c41461048857806360c0fdc01461049b57806366dd7111146104d45780636b9db4e6146104e75780636d435421146105125780636ff6ec7c1461052557610269565b80634a4fbeec146104205780634b3ef054146104335780634e487b71146104465780635040fb7614610462578063575182431461047557610269565b806325b509341161023157806325b50934146103a35780632960739b146103c65780632f6c493c146103d9578063315a7af3146103ec5780633b73d67f146103ff57610269565b806308c379a01461030a5780631626ba7e1461033157806319ab453c1461035d5780631d97d8cc146103705780632437b75c14610383575b60006102ab6000368080601f0160208091040260200160405190810160405280939291908181526020018383808284376000920191909152506107a692505050565b90506001600160e01b03198116630a85bd0160e11b14806102dc57506001600160e01b0319811663f23a6e6160e01b145b806102f757506001600160e01b0319811663bc197c8160e01b145b156103085760046000803760206000f35b005b61031b61031836600461565b565b90565b60405161032891906156f3565b60405180910390f35b61034461033f366004615706565b610807565b6040516001600160e01b03199091168152602001610328565b61030861036b366004615775565b6108e0565b61030861037e366004615792565b610946565b61039661039136600461580f565b610b5c565b6040516103289190615895565b6103b66103b13660046158f7565b610bc5565b6040519015158152602001610328565b6103086103d4366004615792565b610c4c565b6103086103e7366004615775565b610d93565b6103086103fa366004615775565b610f00565b61041261040d366004615962565b6110c4565b6040516103289291906159cc565b6103b661042e366004615775565b6114f2565b610308610441366004615792565b6114fd565b6104546103183660046159fe565b604051908152602001610328565b610454610470366004615775565b61174c565b610308610483366004615792565b6117db565b610308610496366004615792565b611a43565b6103b66104a9366004615a17565b6001600160a01b03919091166000908152600460209081526040808320938352929052205460ff1690565b6103966104e2366004615a43565b611bd8565b6104fa6104f5366004615775565b611e02565b6040516001600160401b039091168152602001610328565b610308610520366004615792565b611e3d565b610396610533366004615a43565b611f25565b610308610546366004615792565b611f81565b6103b6610559366004615a8a565b6121f8565b6105666125cc565b6040516103289796959493929190615b1f565b60016103b6565b6105c061058e366004615775565b6001600160a01b0390811660009081526020819052604090205490811691600160a01b9091046001600160401b031690565b604080516001600160a01b0390931683526001600160401b03909116602083015201610328565b6106346105f5366004615775565b6001600160a01b0390811660009081526005602052604090205490811691600160a01b82046001600160401b031691600160e01b900463ffffffff1690565b604080516001600160a01b0390941684526001600160401b03909216602084015263ffffffff1690820152606001610328565b610454610675366004615bb5565b612655565b610308610688366004615775565b612766565b6104546a55736572734d6f64756c6560a81b81565b6103966106b0366004615a43565b61286d565b6103086106c3366004615792565b612a8d565b6103086106d6366004615792565b612bd4565b6103b66106e9366004615792565b612e4d565b6103086106fc366004615775565b612efd565b61030861070f366004615792565b612fae565b610308610722366004615775565b613342565b610308610735366004615792565b613446565b6103b6610748366004615792565b613524565b61039661075b366004615a43565b6135c2565b61077361076e366004615775565b61363d565b6040516103289190615bf1565b61030861078e366004615775565b6136d0565b6103086107a1366004615792565b613803565b60006004825110156107ff5760405162461bcd60e51b815260206004820152601d60248201527f5574696c733a20496e76616c69642066756e6374696f6e50726566697800000060448201526064015b60405180910390fd5b506020015190565b6000815160411461085a5760405162461bcd60e51b815260206004820152601c60248201527f544d3a20696e76616c6964207369676e6174757265206c656e6774680000000060448201526064016107f6565b6000610868848460006138dd565b90506108743382613a12565b6108b55760405162461bcd60e51b81526020600482015260126024820152712a269d1024b73b30b634b21039b4b3b732b960711b60448201526064016107f6565b7f1626ba7e356f5979dd355a3d2bfb43e80420a480c3b854edce286a82d74968699150505b92915050565b80336001600160a01b038216146109395760405162461bcd60e51b815260206004820152601960248201527f424d3a2063616c6c6572206d7573742062652077616c6c65740000000000000060448201526064016107f6565b61094282613a91565b5050565b813033148061095d5750336001600160a01b038216145b6109795760405162461bcd60e51b81526004016107f690615c3e565b6109838383613524565b6109cf5760405162461bcd60e51b815260206004820152601d60248201527f534d3a206d757374206265206578697374696e6720677561726469616e00000060448201526064016107f6565b600083836040516020016109e4929190615c75565b60408051601f1981840301815291815281516020928301206001600160a01b0387166000908152600684528281208282529384905291909120549092501580610a655750600082815260208290526040902054610a62907f000000000000000000000000000000000000000000000000000000000000000090615cc0565b42115b610ab15760405162461bcd60e51b815260206004820152601c60248201527f534d3a206475706c69636174652070656e64696e67207265766f6b650000000060448201526064016107f6565b610adb7f000000000000000000000000000000000000000000000000000000000000000042615cc0565b6000838152602083905260409020556001600160a01b038085169086167f9746f6868f544595794833da53250bd19e72334733336cfd5dd6fbc5f6a6ac42610b437f000000000000000000000000000000000000000000000000000000000000000042615cc0565b6040519081526020015b60405180910390a35050505050565b6060303314610b7d5760405162461bcd60e51b81526004016107f690615cd3565b85610b8781613afa565b15610ba45760405162461bcd60e51b81526004016107f690615cff565b610baf878585613b23565b610bba878787613c90565b979650505050505050565b60006001600160e01b03198216630b135d3f60e11b1480610bf657506001600160e01b03198216630a85bd0160e11b145b80610c1157506001600160e01b031982166301ffc9a760e01b145b80610c2c57506001600160e01b0319821663f23a6e6160e01b145b806108da57506001600160e01b0319821663bc197c8160e01b1492915050565b8130331480610c635750336001600160a01b038216145b610c7f5760405162461bcd60e51b81526004016107f690615c3e565b82610c8981613afa565b15610ca65760405162461bcd60e51b81526004016107f690615cff565b60008484604051602001610cbb929190615c75565b60408051601f1981840301815291815281516020928301206001600160a01b038816600090815260068452828120828252938490529190912054909250610d445760405162461bcd60e51b815260206004820152601a60248201527f534d3a20756e6b6e6f776e2070656e64696e67207265766f6b6500000000000060448201526064016107f6565b600082815260208290526040808220829055516001600160a01b0380881692908916917fc0b205956d5e27c296695de329b5a014584a4f51824b1725a0eefc1174d6dbd59190a3505050505050565b8030331480610da75750610da78133613524565b610def5760405162461bcd60e51b815260206004820152601960248201527829a69d1036bab9ba1031329033bab0b93234b0b717b9b2b63360391b60448201526064016107f6565b81610df981613afa565b610e455760405162461bcd60e51b815260206004820152601960248201527f424d3a2077616c6c6574206d757374206265206c6f636b65640000000000000060448201526064016107f6565b6001600160a01b038316600090815260016020526040902054600160401b900460e01b6001600160e01b03191663f435f5a760e01b14610ebb5760405162461bcd60e51b8152602060048201526011602482015270534d3a2063616e6e6f7420756e6c6f636b60781b60448201526064016107f6565b610ec783600080613e78565b6040516001600160a01b038416907f7e6adfec7e3f286831a0200a754127c171a2da564078722cb97704741bbdb0ea90600090a2505050565b6001600160a01b0381166000908152600560205260409020548190600160a01b90046001600160401b0316610f715760405162461bcd60e51b8152602060048201526017602482015276534d3a206e6f206f6e676f696e67207265636f7665727960481b60448201526064016107f6565b6001600160a01b038216600090815260056020526040902080546001600160401b03600160a01b90910481164290911611610fee5760405162461bcd60e51b815260206004820152601b60248201527f534d3a206f6e676f696e67207265636f7665727920706572696f64000000000060448201526064016107f6565b80546001600160a01b038481166000908152600560205260408120551661101484613ef3565b6040516313af403560e01b81526001600160a01b0382811660048301528516906313af403590602401600060405180830381600087803b15801561105757600080fd5b505af115801561106b573d6000803e3d6000fd5b5050505061107e8460008060e01b613e78565b806001600160a01b0316846001600160a01b03167fd8667de85dae2d56d76e700d16de53d21ac2ce4d5549cb0bf51c55fdc37f0bc160405160405180910390a350505050565b600080600061110885858080601f0160208091040260200160405190810160405280939291908181526020018383808284376000920191909152506107a692505050565b90506001600160e01b03198116630c68452160e41b148061113957506001600160e01b03198116630765f63360e21b145b8061115457506001600160e01b03198116630a6eb06960e41b145b8061116f57506001600160e01b03198116632960739b60e01b145b8061118a57506001600160e01b0319811663a5efb23560e01b145b806111a557506001600160e01b03198116635751824360e01b145b806111c057506001600160e01b0319811663f8d3277d60e01b145b806111db57506001600160e01b03198116631750421160e31b145b1561120a576001600160a01b03861633036111fd5760008092509250506114ea565b60018092509250506114ea565b63240244e160e21b6001600160e01b031982160161124e576001600160a01b0386163303611240576000600492509250506114ea565b6001600492509250506114ea565b63027a2d9360e51b6001600160e01b03198216016112d057600061127187613f1a565b9050600081116112c35760405162461bcd60e51b815260206004820152601e60248201527f414d3a206e6f20677561726469616e7320736574206f6e2077616c6c6574000060448201526064016107f6565b9250600391506114ea9050565b6336f24bb960e01b6001600160e01b0319821601611361576001600160a01b03861660009081526005602052604081205461132a9061131d90600160e01b900463ffffffff166001615d2a565b63ffffffff166002613fae565b90506001600160a01b038716330361135457611347600182615d47565b60039350935050506114ea565b9250600291506114ea9050565b6001600160e01b03198116636d43542160e01b148061139057506001600160e01b031981166316876e3160e21b145b806113ab57506001600160e01b03198116631a97fd4960e31b145b806113c657506001600160e01b031981166378a1eedd60e11b145b806113e157506001600160e01b0319811663090dedd760e21b145b1561140f5760006113f187613f1a565b90506000611400826001615cc0565b9450600193506114ea92505050565b6001600160e01b0319811663315a7af360e01b148061143e57506001600160e01b03198116633809afa960e11b145b8061145957506001600160e01b031981166312cfbc1560e21b145b1561146b5760008092509250506114ea565b6001600160e01b0319811663f435f5a760e01b148061149a57506001600160e01b03198116630bdb124f60e21b145b156114ad576001600392509250506114ea565b60405162461bcd60e51b815260206004820152601260248201527114d34e881d5b9adb9bdddb881b595d1a1bd960721b60448201526064016107f6565b935093915050565b60006108da82613afa565b60008282604051602001611512929190615c75565b60408051601f1981840301815291815281516020928301206001600160a01b03861660009081526006845282812082825293849052919091205490925061159b5760405162461bcd60e51b815260206004820152601a60248201527f534d3a20756e6b6e6f776e2070656e64696e67207265766f6b6500000000000060448201526064016107f6565b60008281526020829052604090205442116115f85760405162461bcd60e51b815260206004820152601b60248201527f534d3a2070656e64696e67207265766f6b65206e6f74206f766572000000000060448201526064016107f6565b600082815260208290526040902054611632907f000000000000000000000000000000000000000000000000000000000000000090615cc0565b42106116805760405162461bcd60e51b815260206004820152601a60248201527f534d3a2070656e64696e67207265766f6b65206578706972656400000000000060448201526064016107f6565b604051630765f63360e21b81526001600160a01b03858116600483015284811660248301527f00000000000000000000000000000000000000000000000000000000000000001690631d97d8cc90604401600060405180830381600087803b1580156116eb57600080fd5b505af11580156116ff573d6000803e3d6000fd5b50506040516001600160a01b038087169350871691507f548f10dcba266544123ad8cf8284f25c4baa659cba25dbdf16a06ea11235de9b90600090a3600091825260205260408120555050565b6040516328207dbb60e11b81526001600160a01b0382811660048301526000917f000000000000000000000000000000000000000000000000000000000000000090911690635040fb7690602401602060405180830381865afa1580156117b7573d6000803e3d6000fd5b505050506040513d601f19601f820116820180604052508101906108da9190615d5a565b81303314806117ef57506117ef8133613a12565b61180b5760405162461bcd60e51b81526004016107f690615d73565b8261181581613afa565b156118325760405162461bcd60e51b81526004016107f690615cff565b836001600160a01b0316836001600160a01b0316036118935760405162461bcd60e51b815260206004820152601b60248201527f544d3a2043616e6e6f742077686974656c6973742077616c6c6574000000000060448201526064016107f6565b604051630bcd4ebb60e01b81526001600160a01b0384811660048301527f00000000000000000000000000000000000000000000000000000000000000001690630bcd4ebb90602401602060405180830381865afa1580156118f9573d6000803e3d6000fd5b505050506040513d601f19601f8201168201806040525081019061191d9190615daa565b1561196a5760405162461bcd60e51b815260206004820152601b60248201527f544d3a2043616e6e6f742077686974656c697374206d6f64756c65000000000060448201526064016107f6565b6119748484612e4d565b156119c15760405162461bcd60e51b815260206004820152601e60248201527f544d3a2074617267657420616c72656164792077686974656c6973746564000060448201526064016107f6565b60006119ed7f000000000000000000000000000000000000000000000000000000000000000042615cc0565b90506119fa858583613fef565b6040516001600160401b03821681526001600160a01b0380861691908716907f1f57f9641d3e8733ed672fef5ac85464bd7215ef2f21e83428e8408248b13dcd90602001610b4d565b8130331480611a575750611a578133613a12565b611a735760405162461bcd60e51b81526004016107f690615d73565b82611a7d81613afa565b15611a9a5760405162461bcd60e51b81526004016107f690615cff565b604051630bcd4ebb60e01b81526001600160a01b0384811660048301527f00000000000000000000000000000000000000000000000000000000000000001690630bcd4ebb90602401602060405180830381865afa158015611b00573d6000803e3d6000fd5b505050506040513d601f19601f82011682018060405250810190611b249190615daa565b611b705760405162461bcd60e51b815260206004820152601c60248201527f414d3a206d6f64756c65206973206e6f7420726567697374657265640000000060448201526064016107f6565b604051631f17732d60e01b81526001600160a01b03848116600483015260016024830152851690631f17732d90604401600060405180830381600087803b158015611bba57600080fd5b505af1158015611bce573d6000803e3d6000fd5b5050505050505050565b6060303314611bf95760405162461bcd60e51b81526004016107f690615cd3565b83611c0381613afa565b15611c205760405162461bcd60e51b81526004016107f690615cff565b6000836001600160401b03811115611c3a57611c3a6155b0565b604051908082528060200260200182016040528015611c6d57816020015b6060815260200190600190039081611c585790505b50905060005b84811015611df85730868683818110611c8e57611c8e615dcc565b9050602002810190611ca09190615de2565b611cae906020810190615775565b6001600160a01b031603611cfe5760405162461bcd60e51b815260206004820152601760248201527615134e8818d85b1b081b9bdd08185d5d1a1bdc9a5cd959604a1b60448201526064016107f6565b611dc887878784818110611d1457611d14615dcc565b9050602002810190611d269190615de2565b611d34906020810190615775565b888885818110611d4657611d46615dcc565b9050602002810190611d589190615de2565b60200135898986818110611d6e57611d6e615dcc565b9050602002810190611d809190615de2565b611d8e906040810190615e02565b8080601f01602080910402602001604051908101604052809392919081815260200183838082843760009201919091525061407e92505050565b828281518110611dda57611dda615dcc565b60200260200101819052508080611df090615e48565b915050611c73565b5095945050505050565b6000611e0d82613afa565b611e185760006108da565b506001600160a01b03166000908152600160205260409020546001600160401b031690565b303314611e5c5760405162461bcd60e51b81526004016107f690615cd3565b81611e6681613afa565b15611e835760405162461bcd60e51b81526004016107f690615cff565b611e8d83836144bc565b6040516313af403560e01b81526001600160a01b0383811660048301528416906313af403590602401600060405180830381600087803b158015611ed057600080fd5b505af1158015611ee4573d6000803e3d6000fd5b50506040516001600160a01b038086169350861691507f0d18b5fd22306e373229b9439188228edca81207d1667f604daf6cef8aa3ee6790600090a3505050565b6060303314611f465760405162461bcd60e51b81526004016107f690615cd3565b83611f5081613afa565b15611f6d5760405162461bcd60e51b81526004016107f690615cff565b611f78858585613c90565b95945050505050565b81611f8b81613afa565b15611fa85760405162461bcd60e51b81526004016107f690615cff565b60008383604051602001611fbd929190615e61565b60408051601f1981840301815291815281516020928301206001600160a01b0387166000908152600684528281208282529384905291909120549092506120465760405162461bcd60e51b815260206004820152601c60248201527f534d3a20756e6b6e6f776e2070656e64696e67206164646974696f6e0000000060448201526064016107f6565b60008281526020829052604090205442116120a35760405162461bcd60e51b815260206004820152601d60248201527f534d3a2070656e64696e67206164646974696f6e206e6f74206f76657200000060448201526064016107f6565b6000828152602082905260409020546120dd907f000000000000000000000000000000000000000000000000000000000000000090615cc0565b421061212b5760405162461bcd60e51b815260206004820152601c60248201527f534d3a2070656e64696e67206164646974696f6e20657870697265640000000060448201526064016107f6565b604051630c68452160e41b81526001600160a01b03868116600483015285811660248301527f0000000000000000000000000000000000000000000000000000000000000000169063c684521090604401600060405180830381600087803b15801561219657600080fd5b505af11580156121aa573d6000803e3d6000fd5b50506040516001600160a01b038088169350881691507fbc3292102fa77e083913064b282926717cdfaede4d35f553d66366c0a3da755a90600090a360009182526020526040812055505050565b6000612205888888614569565b6122515760405162461bcd60e51b815260206004820152601e60248201527f524d3a20546172676574206f66205f6461746120213d205f77616c6c6574000060448201526064016107f6565b61225a88613afa565b156122a75760405162461bcd60e51b815260206004820152601860248201527f524d3a204c6f636b65642077616c6c657420726566756e64000000000000000060448201526064016107f6565b600080600060606122b98c8c8c6110c4565b9094509250831515806122dd575060008360048111156122db576122db6159b6565b145b6123295760405162461bcd60e51b815260206004820152601f60248201527f524d3a2057726f6e67207369676e617475726520726571756972656d656e740060448201526064016107f6565b6123686040518060400160405280601a81526020017f524d3a2072657175697265645369676e6174757265733a202573000000000000815250856145ea565b85612374856041615e94565b146123c15760405162461bcd60e51b815260206004820152601e60248201527f524d3a2057726f6e67206e756d626572206f66207369676e617475726573000060448201526064016107f6565b60007fbf1af91af6bb21cb6f3df695a3f72929c8cc95124bb13aad4c9d2ff670a214318d8d8d6040516123f5929190615eab565b6040519081900381206124379392918e908e906020019485526001600160a01b0393909316602085015260408401919091526060830152608082015260a00190565b604051602081830303815290604052805190602001209050600061245a8261462f565b90506004856004811115612470576124706159b6565b036124c55761247e8e61465c565b6124c05760405162461bcd60e51b815260206004820152601360248201527229269d1024b73b30b634b21039b2b9b9b4b7b760691b60448201526064016107f6565b612517565b6124d28e828b8b896146bc565b6125175760405162461bcd60e51b8152602060048201526016602482015275524d3a20496e76616c6964207369676e61747572657360501b60448201526064016107f6565b6040513090612529908f908f90615eab565b6000604051808303816000865af19150503d8060008114612566576040519150601f19603f3d011682016040523d82523d6000602084013e61256b565b606091505b5080945081955050508315158e6001600160a01b03167f7da4525a280527268ba2e963ee6c1b18f43c9507bcb1d2560f652ab17c76e90a85846040516125b2929190615ebb565b60405180910390a350919c9b505050505050505050505050565b6000606080828080836126007f00000000000000000000000000000000000000000000000000000000000000006002614a10565b61262b7f00000000000000000000000000000000000000000000000000000000000000006003614a10565b60408051600080825260208201909252600f60f81b9b939a50919850469750309650945092509050565b7f19457468657265756d205369676e6564204d6573736167653a0a3332000000006000908152601c829052603c81206000336001600160a01b0316638da5cb5b6040518163ffffffff1660e01b8152600401602060405180830381865afa1580156126c4573d6000803e3d6000fd5b505050506040513d601f19601f820116820180604052508101906126e89190615edd565b90506127386126fb610140870187615e02565b8080601f0160208091040260200160405190810160405280939291908181526020018383808284376000920191909152508693925050614ab49050565b6001600160a01b0316816001600160a01b03161461275b576001925050506108da565b506000949350505050565b6040516370a0823160e01b81523060048201526000906001600160a01b038316906370a0823190602401602060405180830381865afa1580156127ad573d6000803e3d6000fd5b505050506040513d601f19601f820116820180604052508101906127d19190615d5a565b60405163a9059cbb60e01b81526001600160a01b037f000000000000000000000000000000000000000000000000000000000000000081166004830152602482018390529192509083169063a9059cbb906044016020604051808303816000875af1158015612844573d6000803e3d6000fd5b505050506040513d601f19601f820116820180604052508101906128689190615daa565b505050565b606030331461288e5760405162461bcd60e51b81526004016107f690615cd3565b8361289881613afa565b156128b55760405162461bcd60e51b81526004016107f690615cff565b6000836001600160401b038111156128cf576128cf6155b0565b60405190808252806020026020018201604052801561290257816020015b60608152602001906001900390816128ed5790505b50905060005b84811015611df8573086868381811061292357612923615dcc565b90506020028101906129359190615de2565b612943906020810190615775565b6001600160a01b0316036129935760405162461bcd60e51b815260206004820152601760248201527615134e8818d85b1b081b9bdd08185d5d1a1bdc9a5cd959604a1b60448201526064016107f6565b612a5d878787848181106129a9576129a9615dcc565b90506020028101906129bb9190615de2565b6129c9906020810190615775565b8888858181106129db576129db615dcc565b90506020028101906129ed9190615de2565b60200135898986818110612a0357612a03615dcc565b9050602002810190612a159190615de2565b612a23906040810190615e02565b8080601f016020809104026020016040519081016040528093929190818152602001838380828437600092019190915250614ad892505050565b828281518110612a6f57612a6f615dcc565b60200260200101819052508080612a8590615e48565b915050612908565b8130331480612aa45750336001600160a01b038216145b612ac05760405162461bcd60e51b81526004016107f690615c3e565b82612aca81613afa565b15612ae75760405162461bcd60e51b81526004016107f690615cff565b60008484604051602001612afc929190615e61565b60408051601f1981840301815291815281516020928301206001600160a01b038816600090815260068452828120828252938490529190912054909250612b855760405162461bcd60e51b815260206004820152601c60248201527f534d3a20756e6b6e6f776e2070656e64696e67206164646974696f6e0000000060448201526064016107f6565b600082815260208290526040808220829055516001600160a01b0380881692908916917faa13b27c23e9e3f3d5f3861a53b7a2931e019170a6a19ed64942e26a1dd5987a9190a3505050505050565b303314612bf35760405162461bcd60e51b81526004016107f690615cd3565b6001600160a01b0382166000908152600560205260409020548290600160a01b90046001600160401b031615612c625760405162461bcd60e51b8152602060048201526014602482015273534d3a206f6e676f696e67207265636f7665727960601b60448201526064016107f6565b612c6c83836144bc565b6000612c987f000000000000000000000000000000000000000000000000000000000000000042615cc0565b604080516060810182526001600160a01b0380871682526001600160401b038416602083015282516328207dbb60e11b815288821660048201529394509092918301917f000000000000000000000000000000000000000000000000000000000000000090911690635040fb7690602401602060405180830381865afa158015612d26573d6000803e3d6000fd5b505050506040513d601f19601f82011682018060405250810190612d4a9190615d5a565b63ffffffff9081169091526001600160a01b0380871660009081526005602090815260409182902085518154928701519690930151909416600160e01b026001600160e01b036001600160401b03909616600160a01b026001600160e01b031990921692909316919091171792909216919091179055612dfb84612dee7f000000000000000000000000000000000000000000000000000000000000000042615cc0565b630585d26d60e51b613e78565b6040516001600160401b03821681526001600160a01b0380851691908616907f5f59bfd9baba55ae30bb440923cbbe30987d50e12a4e9134ffac3fd9afc3526d9060200160405180910390a350505050565b6040516309fa507560e11b81526001600160a01b038381166004830152828116602483015260009182917f000000000000000000000000000000000000000000000000000000000000000016906313f4a0ea90604401602060405180830381865afa158015612ec0573d6000803e3d6000fd5b505050506040513d601f19601f82011682018060405250810190612ee49190615d5a565b9050600081118015612ef557504281105b949350505050565b8030331480612f115750612f118133613a12565b612f2d5760405162461bcd60e51b81526004016107f690615d73565b81612f3781613afa565b15612f545760405162461bcd60e51b81526004016107f690615cff565b6001600160a01b038381166000818152602081815260409182902054915191909316815290917feb290a597820eccc6b8b31f942bd97c633d5138f4d849751f770f3cb3900e57a910160405180910390a261286883613ef3565b8130331480612fc55750336001600160a01b038216145b612fe15760405162461bcd60e51b81526004016107f690615c3e565b82612feb81613afa565b156130085760405162461bcd60e51b81526004016107f690615cff565b6130346040518060400160405280600b81526020016a30b23223bab0b93234b0b760a91b815250614c03565b61303e8484613a12565b1561308b5760405162461bcd60e51b815260206004820152601c60248201527f534d3a20677561726469616e2063616e6e6f74206265206f776e65720000000060448201526064016107f6565b6130958484613524565b156130db5760405162461bcd60e51b815260206004820152601660248201527529a69d10323ab83634b1b0ba329033bab0b93234b0b760511b60448201526064016107f6565b60408051600481526024810182526020810180516001600160e01b0316638da5cb5b60e01b17905290516000916001600160a01b038616916161a89161312091615efa565b60006040518083038160008787f1925050503d806000811461315e576040519150601f19603f3d011682016040523d82523d6000602084013e613163565b606091505b50509050806131b45760405162461bcd60e51b815260206004820152601d60248201527f534d3a206d75737420626520454f412f417267656e742077616c6c657400000060448201526064016107f6565b600085856040516020016131c9929190615e61565b60408051601f1981840301815291815281516020928301206001600160a01b038916600090815260068452828120828252938490529190912054909250158061324a5750600082815260208290526040902054613247907f000000000000000000000000000000000000000000000000000000000000000090615cc0565b42115b6132965760405162461bcd60e51b815260206004820152601e60248201527f534d3a206475706c69636174652070656e64696e67206164646974696f6e000060448201526064016107f6565b6132c07f000000000000000000000000000000000000000000000000000000000000000042615cc0565b6000838152602083905260409020556001600160a01b038087169088167fe4166e4bc55a182bd13d933553241bb3441b91d15fbc74c5c752f96965563bde6133287f000000000000000000000000000000000000000000000000000000000000000042615cc0565b60405190815260200160405180910390a350505050505050565b3033146133615760405162461bcd60e51b81526004016107f690615cd3565b6001600160a01b0381166000908152600560205260409020548190600160a01b90046001600160401b03166133d25760405162461bcd60e51b8152602060048201526017602482015276534d3a206e6f206f6e676f696e67207265636f7665727960481b60448201526064016107f6565b6001600160a01b0380831660009081526005602052604081208054908290559091169061340190849080613e78565b806001600160a01b0316836001600160a01b03167fc45926607303da71dbeffd2ed5c6b00f581982586b697655d19ae4c4d558f25960405160405180910390a3505050565b3033146134655760405162461bcd60e51b81526004016107f690615cd3565b8161346f81613afa565b1561348c5760405162461bcd60e51b81526004016107f690615cff565b604051631b2ce7f360e11b81526001600160a01b038381166004830152841690633659cfe690602401600060405180830381600087803b1580156134cf57600080fd5b505af11580156134e3573d6000803e3d6000fd5b50506040516001600160a01b038086169350861691507f5c92b3979a73cef77d1416cc6817a9094d4fd8d62e4d93189c8e2b06c5c5919790600090a3505050565b60405163353ba5cd60e21b81526001600160a01b03838116600483015282811660248301526000917f00000000000000000000000000000000000000000000000000000000000000009091169063d4ee973490604401602060405180830381865afa158015613597573d6000803e3d6000fd5b505050506040513d601f19601f820116820180604052508101906135bb9190615daa565b9392505050565b60603033146135e35760405162461bcd60e51b81526004016107f690615cd3565b836135ed81613afa565b1561360a5760405162461bcd60e51b81526004016107f690615cff565b613634604051806040016040528060098152602001681b5d5b1d1a50d85b1b60ba1b815250614c03565b611f6d83614c49565b60405163f18858ab60e01b81526001600160a01b0382811660048301526060917f00000000000000000000000000000000000000000000000000000000000000009091169063f18858ab90602401600060405180830381865afa1580156136a8573d6000803e3d6000fd5b505050506040513d6000823e601f3d908101601f191682016040526108da9190810190615f0c565b80303314806136e457506136e48133613524565b61372c5760405162461bcd60e51b815260206004820152601960248201527829a69d1036bab9ba1031329033bab0b93234b0b717b9b2b63360391b60448201526064016107f6565b8161373681613afa565b156137535760405162461bcd60e51b81526004016107f690615cff565b61378e836137817f000000000000000000000000000000000000000000000000000000000000000042615cc0565b63f435f5a760e01b613e78565b6001600160a01b0383167f6395bace6e0acbe4f22761b149d3cc2e88c7dde6bf4d8481825eef404cf989a16137e37f000000000000000000000000000000000000000000000000000000000000000042615cc0565b6040516001600160401b03909116815260200160405180910390a2505050565b813033148061381757506138178133613a12565b6138335760405162461bcd60e51b81526004016107f690615d73565b8261383d81613afa565b1561385a5760405162461bcd60e51b81526004016107f690615cff565b61386684846000613fef565b826001600160a01b0316846001600160a01b03167fd288ab5da2e1f37cf384a1565a3f905ad289b092fbdd31950dbbfef148c04f8860405160405180910390a350505050565b60006020835110156138c8576138c183614c8e565b90506108da565b816138d38482616045565b5060ff90506108da565b6041808202830160208101516040820151919092015160009260ff9190911691601b83148061390f57508260ff16601c145b61395b5760405162461bcd60e51b815260206004820152601f60248201527f5574696c733a2062616420762076616c756520696e207369676e61747572650060448201526064016107f6565b604080516000808252602082018084528a905260ff861692820192909252606081018490526080810183905260019060a0016020604051602081039080840390855afa1580156139af573d6000803e3d6000fd5b5050604051601f1901519150506001600160a01b038116610bba5760405162461bcd60e51b815260206004820152601b60248201527f5574696c733a2065637265636f7665722072657475726e65642030000000000060448201526064016107f6565b6000816001600160a01b0316836001600160a01b0316638da5cb5b6040518163ffffffff1660e01b8152600401602060405180830381865afa158015613a5c573d6000803e3d6000fd5b505050506040513d601f19601f82011682018060405250810190613a809190615edd565b6001600160a01b0316149392505050565b6040516309ed185960e11b8152306004820152630b135d3f60e11b60248201526001600160a01b038216906313da30b290604401600060405180830381600087803b158015613adf57600080fd5b505af1158015613af3573d6000803e3d6000fd5b5050505050565b6001600160a01b03166000908152600160205260409020546001600160401b0342811691161190565b6001600160a01b038216613b795760405162461bcd60e51b815260206004820152601860248201527f544d3a20496e76616c69642073657373696f6e2075736572000000000000000060448201526064016107f6565b6000816001600160401b031611613bd25760405162461bcd60e51b815260206004820152601c60248201527f544d3a20496e76616c69642073657373696f6e206475726174696f6e0000000060448201526064016107f6565b6000613bef613bea6001600160401b03841642615cc0565b614ccc565b6040805180820182526001600160a01b038681168083526001600160401b0385811660208086018281528c86166000818152808452899020975188549251909516600160a01b026001600160e01b031990921694909616939093179290921790945584519182528101929092529293507f2ecea11087d1dc1431b517cbb5a559a9e33e58a1afeaac288f782c1c8bed8b8a910160405180910390a250505050565b60606000826001600160401b03811115613cac57613cac6155b0565b604051908082528060200260200182016040528015613cdf57816020015b6060815260200190600190039081613cca5790505b509050613ceb83614c49565b60005b83811015613e6f57613d30858583818110613d0b57613d0b615dcc565b9050602002810190613d1d9190615de2565b613d2b906020810190615775565b614d38565b613d9f858583818110613d4557613d45615dcc565b9050602002810190613d579190615de2565b613d65906040810190615e02565b8080601f016020809104026020016040519081016040528093929190818152602001838380828437600092019190915250614d8092505050565b613dcf858583818110613db457613db4615dcc565b9050602002810190613dc69190615de2565b60200135614c49565b613e3f86868684818110613de557613de5615dcc565b9050602002810190613df79190615de2565b613e05906020810190615775565b878785818110613e1757613e17615dcc565b9050602002810190613e299190615de2565b60200135888886818110612a0357612a03615dcc565b828281518110613e5157613e51615dcc565b60200260200101819052508080613e6790615e48565b915050613cee565b50949350505050565b6040518060400160405280613e8c84614ccc565b6001600160401b0390811682526001600160e01b03199093166020918201526001600160a01b039094166000908152600185526040902081518154929095015160e01c600160401b026001600160601b031990921694909216939093179290921790915550565b6001600160a01b0316600090815260208190526040902080546001600160e01b0319169055565b6040516328207dbb60e11b81526001600160a01b0382811660048301526000916108da917f00000000000000000000000000000000000000000000000000000000000000001690635040fb7690602401602060405180830381865afa158015613f87573d6000803e3d6000fd5b505050506040513d601f19601f82011682018060405250810190613fab9190615d5a565b60025b600080613fbb838561611a565b9050613fc7838561612e565b600003613fd55790506108da565b613fe0816001615cc0565b9150506108da565b5092915050565b604051631017f7cd60e31b81526001600160a01b0384811660048301528381166024830152604482018390527f000000000000000000000000000000000000000000000000000000000000000016906380bfbe6890606401600060405180830381600087803b15801561406157600080fd5b505af1158015614075573d6000803e3d6000fd5b50505050505050565b60606000856001600160a01b03168585856040516024016140a193929190616142565b60408051601f198184030181529181526020820180516001600160e01b03166347b7819960e11b179052516140d69190615efa565b6000604051808303816000865af19150503d8060008114614113576040519150601f19603f3d011682016040523d82523d6000602084013e614118565b606091505b509250905062461bcd60e51b634e487b7160e01b82801561413a575060008451115b156141de57838060200190518101906141539190616199565b9350876001600160a01b03167fa5f660a9554be6c508927b46fe0ee63c8795cf61dcb9f1b05b1084f6707e1c226001886040516141d1929190911515825260208201526060604082018190526019908201527f424d3a2077616c6c657420696e766f6b65207375636365737300000000000000608082015260a00190565b60405180910390a26144b1565b8351156144105760606001600160e01b031983166141fb866161e1565b6001600160e01b031916036142a5576000306001600160a01b0316866040516142249190615efa565b6000604051808303816000865af19150503d8060008114614261576040519150601f19603f3d011682016040523d82523d6000602084013e614266565b606091505b509150508080602001905181019061427e9190616199565b60405160200161428e9190616218565b6040516020818303038152906040529150506143a7565b6001600160e01b031982166142b9866161e1565b6001600160e01b03191603614371576000306001600160a01b0316866040516142e29190615efa565b6000604051808303816000865af19150503d806000811461431f576040519150601f19603f3d011682016040523d82523d6000602084013e614324565b606091505b5091505060008180602001905181019061433e9190615d5a565b905061434981614dc3565b604051602001614359919061624f565b604051602081830303815290604052925050506143a7565b5060408051808201909152601e81527f556e61626c6520746f206465636f64652072657665727420726561736f6e000060208201525b886001600160a01b03167fa5f660a9554be6c508927b46fe0ee63c8795cf61dcb9f1b05b1084f6707e1c22600089846040516020016143e69190616283565b60408051601f19818403018152908290526144029392916162c8565b60405180910390a2506144b1565b826144b157876001600160a01b03167fa5f660a9554be6c508927b46fe0ee63c8795cf61dcb9f1b05b1084f6707e1c226000886040516144a892919091151582526020820152606060408201819052602e908201527f424d3a2077616c6c657420696e766f6b65206661696c656420776974686f757460808201526d103932bb32b93a103932b0b9b7b760911b60a082015260c00190565b60405180910390a25b505050949350505050565b6001600160a01b0381166145125760405162461bcd60e51b815260206004820152601c60248201527f534d3a206e6577206f776e65722063616e6e6f74206265206e756c6c0000000060448201526064016107f6565b61451c8282613524565b156109425760405162461bcd60e51b815260206004820181905260248201527f534d3a206e6577206f776e65722063616e6e6f7420626520677561726469616e60448201526064016107f6565b600060248210156145b55760405162461bcd60e51b815260206004820152601660248201527514934e88125b9d985b1a590819185d1855d85b1b195d60521b60448201526064016107f6565b60006145c483600481876162e9565b8101906145d19190615775565b6001600160a01b03908116908616149150509392505050565b6109428282604051602401614600929190615ebb565b60408051601f198184030181529190526020810180516001600160e01b0316632d839cb360e21b179052614dda565b60006108da61463c614dfb565b8360405161190160f01b8152600281019290925260228201526042902090565b6001600160a01b038181166000818152602081815260408083208151808301909252549485168152600160a01b9094046001600160401b0316908401529190331480156135bb57504281602001516001600160401b031610159392505050565b60008281036146cd57506001611f78565b6000606060018460048111156146e5576146e56159b6565b1415806146f25750604185115b156147885760405163f18858ab60e01b81526001600160a01b0389811660048301527f0000000000000000000000000000000000000000000000000000000000000000169063f18858ab90602401600060405180830381865afa15801561475d573d6000803e3d6000fd5b505050506040513d6000823e601f3d908101601f191682016040526147859190810190615f0c565b90505b6001600160a01b03881660009081526004602090815260408083208a845290915290205460ff16156148105760405162461bcd60e51b815260206004820152602b60248201527f524d3a2076616c69646174655369676e6174757265733a20747820616c72656160448201526a191e48195e1958dd5d195960aa1b60648201526084016107f6565b60005b61481e60418761611a565b811015614a0157604080516041808252608082019092526000916020820181803683370190505090508760418302016041816020840137508160000361492a5760006148cc8b6001600160a01b0316638da5cb5b6040518163ffffffff1660e01b8152600401602060405180830381865afa1580156148a1573d6000803e3d6000fd5b505050506040513d601f19601f820116820180604052508101906148c59190615edd565b8b84614f2b565b905060018760048111156148e2576148e26159b6565b036149025780156148f45750506149ef565b600095505050505050611f78565b6002876004811115614916576149166159b6565b036149285780156149285750506149ef565b505b6000805b84518110156149d85761495b85828151811061494c5761494c615dcc565b60200260200101518c85614f2b565b156149c657856001600160a01b031685828151811061497c5761497c615dcc565b60200260200101516001600160a01b0316116149a15760009650505050505050611f78565b8481815181106149b3576149b3615dcc565b60200260200101519550600191506149d8565b806149d081615e48565b91505061492e565b50806149ec57600095505050505050611f78565b50505b806149f981615e48565b915050614813565b50600198975050505050505050565b606060ff8314614a23576138c183614fc0565b818054614a2f90615fbd565b80601f0160208091040260200160405190810160405280929190818152602001828054614a5b90615fbd565b8015614aa85780601f10614a7d57610100808354040283529160200191614aa8565b820191906000526020600020905b815481529060010190602001808311614a8b57829003601f168201915b505050505090506108da565b6000806000614ac38585614fff565b91509150614ad081615044565b509392505050565b60606000856001600160a01b0316858585604051602401614afb93929190616142565b60408051601f198184030181529181526020820180516001600160e01b03166347b7819960e11b17905251614b309190615efa565b6000604051808303816000865af19150503d8060008114614b6d576040519150601f19603f3d011682016040523d82523d6000602084013e614b72565b606091505b5092509050808015614b85575060008251115b15614ba55781806020019051810190614b9e9190616199565b9150613e6f565b815115614bb6573d6000803e3d6000fd5b80613e6f5760405162461bcd60e51b815260206004820152601a60248201527f424d3a2077616c6c657420696e766f6b6520726576657274656400000000000060448201526064016107f6565b614c4681604051602401614c1791906156f3565b60408051601f198184030181529190526020810180516001600160e01b031663104c13eb60e21b179052614dda565b50565b614c4681604051602401614c5f91815260200190565b60408051601f198184030181529190526020810180516001600160e01b031663f82c50f160e01b179052614dda565b600080829050601f81511115614cb9578260405163305a27a960e01b81526004016107f691906156f3565b8051614cc482616313565b179392505050565b60006001600160401b03821115614d345760405162461bcd60e51b815260206004820152602660248201527f53616665436173743a2076616c756520646f65736e27742066697420696e203660448201526534206269747360d01b60648201526084016107f6565b5090565b6040516001600160a01b0382166024820152614c469060440160408051601f198184030181529190526020810180516001600160e01b031663161765e160e11b179052614dda565b614c4681604051602401614d9491906156f3565b60408051601f198184030181529190526020810180516001600160e01b03166305f3bfab60e11b179052614dda565b60606108da82614dd28461518e565b6001016151f8565b60006a636f6e736f6c652e6c6f679050600080835160208501845afa505050565b6000306001600160a01b037f000000000000000000000000000000000000000000000000000000000000000016148015614e5457507f000000000000000000000000000000000000000000000000000000000000000046145b15614e7e57507f000000000000000000000000000000000000000000000000000000000000000090565b614f26604080517f8b73c3c69bb8fe3d512ecc4cf759cc79239f7b179b0ffacaa9a75d522b39400f60208201527f0000000000000000000000000000000000000000000000000000000000000000918101919091527f000000000000000000000000000000000000000000000000000000000000000060608201524660808201523060a082015260009060c00160405160208183030381529060405280519060200120905090565b905090565b6000806000614f3a8585614fff565b91509150614f7360405180604001604052806013815260200172697356616c69645369676e61747572654e6f7760681b81525083615393565b6000816004811115614f8757614f876159b6565b148015614fa55750856001600160a01b0316826001600160a01b0316145b80614fb65750614fb68686866153d8565b9695505050505050565b60606000614fcd836154c4565b604080516020808252818301909252919250600091906020820181803683375050509182525060208101929092525090565b60008082516041036150355760208301516040840151606085015160001a615029878285856154ec565b9450945050505061503d565b506000905060025b9250929050565b6000816004811115615058576150586159b6565b036150605750565b6001816004811115615074576150746159b6565b036150c15760405162461bcd60e51b815260206004820152601860248201527f45434453413a20696e76616c6964207369676e6174757265000000000000000060448201526064016107f6565b60028160048111156150d5576150d56159b6565b036151225760405162461bcd60e51b815260206004820152601f60248201527f45434453413a20696e76616c6964207369676e6174757265206c656e6774680060448201526064016107f6565b6003816004811115615136576151366159b6565b03614c465760405162461bcd60e51b815260206004820152602260248201527f45434453413a20696e76616c6964207369676e6174757265202773272076616c604482015261756560f01b60648201526084016107f6565b600080608083901c156151a65760809290921c916010015b604083901c156151bb5760409290921c916008015b602083901c156151d05760209290921c916004015b601083901c156151e55760109290921c916002015b600883901c156108da5760010192915050565b60606000615207836002615e94565b615212906002615cc0565b6001600160401b03811115615229576152296155b0565b6040519080825280601f01601f191660200182016040528015615253576020820181803683370190505b509050600360fc1b8160008151811061526e5761526e615dcc565b60200101906001600160f81b031916908160001a905350600f60fb1b8160018151811061529d5761529d615dcc565b60200101906001600160f81b031916908160001a90535060006152c1846002615e94565b6152cc906001615cc0565b90505b6001811115615344576f181899199a1a9b1b9c1cb0b131b232b360811b85600f166010811061530057615300615dcc565b1a60f81b82828151811061531657615316615dcc565b60200101906001600160f81b031916908160001a90535060049490941c9361533d81616337565b90506152cf565b5083156135bb5760405162461bcd60e51b815260206004820181905260248201527f537472696e67733a20686578206c656e67746820696e73756666696369656e7460448201526064016107f6565b61094282826040516024016153a992919061634e565b60408051601f198184030181529190526020810180516001600160e01b031663319af33360e01b179052614dda565b6000806000856001600160a01b0316631626ba7e60e01b8686604051602401615402929190616378565b60408051601f198184030181529181526020820180516001600160e01b03166001600160e01b03199094169390931790925290516154409190615efa565b600060405180830381855afa9150503d806000811461547b576040519150601f19603f3d011682016040523d82523d6000602084013e615480565b606091505b509150915081801561549457506020815110155b8015614fb657508051630b135d3f60e11b906154b99083016020908101908401615d5a565b149695505050505050565b600060ff8216601f8111156108da57604051632cd44ac360e21b815260040160405180910390fd5b6000807f7fffffffffffffffffffffffffffffff5d576e7357a4501ddfe92f46681b20a083111561552357506000905060036155a7565b6040805160008082526020820180845289905260ff881692820192909252606081018690526080810185905260019060a0016020604051602081039080840390855afa158015615577573d6000803e3d6000fd5b5050604051601f1901519150506001600160a01b0381166155a0576000600192509250506155a7565b9150600090505b94509492505050565b634e487b7160e01b600052604160045260246000fd5b604051601f8201601f191681016001600160401b03811182821017156155ee576155ee6155b0565b604052919050565b60006001600160401b0382111561560f5761560f6155b0565b50601f01601f191660200190565b600061563061562b846155f6565b6155c6565b905082815283838301111561564457600080fd5b828260208301376000602084830101529392505050565b60006020828403121561566d57600080fd5b81356001600160401b0381111561568357600080fd5b8201601f8101841361569457600080fd5b612ef58482356020840161561d565b60005b838110156156be5781810151838201526020016156a6565b50506000910152565b600081518084526156df8160208601602086016156a3565b601f01601f19169290920160200192915050565b6020815260006135bb60208301846156c7565b6000806040838503121561571957600080fd5b8235915060208301356001600160401b0381111561573657600080fd5b8301601f8101851361574757600080fd5b6157568582356020840161561d565b9150509250929050565b6001600160a01b0381168114614c4657600080fd5b60006020828403121561578757600080fd5b81356135bb81615760565b600080604083850312156157a557600080fd5b82356157b081615760565b915060208301356157c081615760565b809150509250929050565b60008083601f8401126157dd57600080fd5b5081356001600160401b038111156157f457600080fd5b6020830191508360208260051b850101111561503d57600080fd5b60008060008060006080868803121561582757600080fd5b853561583281615760565b945060208601356001600160401b038082111561584e57600080fd5b61585a89838a016157cb565b90965094506040880135915061586f82615760565b909250606087013590808216821461588657600080fd5b50809150509295509295909350565b6000602080830181845280855180835260408601915060408160051b870101925083870160005b828110156158ea57603f198886030184526158d88583516156c7565b945092850192908501906001016158bc565b5092979650505050505050565b60006020828403121561590957600080fd5b81356001600160e01b0319811681146135bb57600080fd5b60008083601f84011261593357600080fd5b5081356001600160401b0381111561594a57600080fd5b60208301915083602082850101111561503d57600080fd5b60008060006040848603121561597757600080fd5b833561598281615760565b925060208401356001600160401b0381111561599d57600080fd5b6159a986828701615921565b9497909650939450505050565b634e487b7160e01b600052602160045260246000fd5b82815260408101600583106159f157634e487b7160e01b600052602160045260246000fd5b8260208301529392505050565b600060208284031215615a1057600080fd5b5035919050565b60008060408385031215615a2a57600080fd5b8235615a3581615760565b946020939093013593505050565b600080600060408486031215615a5857600080fd5b8335615a6381615760565b925060208401356001600160401b03811115615a7e57600080fd5b6159a9868287016157cb565b600080600080600080600060a0888a031215615aa557600080fd5b8735615ab081615760565b965060208801356001600160401b0380821115615acc57600080fd5b615ad88b838c01615921565b909850965060408a0135955060608a0135945060808a0135915080821115615aff57600080fd5b50615b0c8a828b01615921565b989b979a50959850939692959293505050565b60ff60f81b881681526000602060e081840152615b3f60e084018a6156c7565b8381036040850152615b51818a6156c7565b606085018990526001600160a01b038816608086015260a0850187905284810360c0860152855180825283870192509083019060005b81811015615ba357835183529284019291840191600101615b87565b50909c9b505050505050505050505050565b60008060408385031215615bc857600080fd5b82356001600160401b03811115615bde57600080fd5b83016101608186031215615a3557600080fd5b6020808252825182820181905260009190848201906040850190845b81811015615c325783516001600160a01b031683529284019291840191600101615c0d565b50909695505050505050565b60208082526017908201527f424d3a206d7573742062652077616c6c65742f73656c66000000000000000000604082015260600190565b6001600160601b0319606093841b811682529190921b166014820152693932bb37b5b0ba34b7b760b11b602882015260320190565b634e487b7160e01b600052601160045260246000fd5b808201808211156108da576108da615caa565b602080825260129082015271424d3a206d757374206265206d6f64756c6560701b604082015260600190565b60208082526011908201527010934e881dd85b1b195d081b1bd8dad959607a1b604082015260600190565b63ffffffff818116838216019080821115613fe857613fe8615caa565b818103818111156108da576108da615caa565b600060208284031215615d6c57600080fd5b5051919050565b6020808252601d908201527f424d3a206d7573742062652077616c6c6574206f776e65722f73656c66000000604082015260600190565b600060208284031215615dbc57600080fd5b815180151581146135bb57600080fd5b634e487b7160e01b600052603260045260246000fd5b60008235605e19833603018112615df857600080fd5b9190910192915050565b6000808335601e19843603018112615e1957600080fd5b8301803591506001600160401b03821115615e3357600080fd5b60200191503681900382131561503d57600080fd5b600060018201615e5a57615e5a615caa565b5060010190565b6001600160601b0319606093841b811682529190921b1660148201526730b23234ba34b7b760c11b602882015260300190565b80820281158282048414176108da576108da615caa565b8183823760009101908152919050565b604081526000615ece60408301856156c7565b90508260208301529392505050565b600060208284031215615eef57600080fd5b81516135bb81615760565b60008251615df88184602087016156a3565b60006020808385031215615f1f57600080fd5b82516001600160401b0380821115615f3657600080fd5b818501915085601f830112615f4a57600080fd5b815181811115615f5c57615f5c6155b0565b8060051b9150615f6d8483016155c6565b8181529183018401918481019088841115615f8757600080fd5b938501935b83851015615fb15784519250615fa183615760565b8282529385019390850190615f8c565b98975050505050505050565b600181811c90821680615fd157607f821691505b602082108103615ff157634e487b7160e01b600052602260045260246000fd5b50919050565b601f82111561286857600081815260208120601f850160051c8101602086101561601e5750805b601f850160051c820191505b8181101561603d5782815560010161602a565b505050505050565b81516001600160401b0381111561605e5761605e6155b0565b6160728161606c8454615fbd565b84615ff7565b602080601f8311600181146160a7576000841561608f5750858301515b600019600386901b1c1916600185901b17855561603d565b600085815260208120601f198616915b828110156160d6578886015182559484019460019091019084016160b7565b50858210156160f45787850151600019600388901b60f8161c191681555b5050505050600190811b01905550565b634e487b7160e01b600052601260045260246000fd5b60008261612957616129616104565b500490565b60008261613d5761613d616104565b500690565b60018060a01b0384168152826020820152606060408201526000611f7860608301846156c7565b600061617761562b846155f6565b905082815283838301111561618b57600080fd5b6135bb8360208301846156a3565b6000602082840312156161ab57600080fd5b81516001600160401b038111156161c157600080fd5b8201601f810184136161d257600080fd5b612ef584825160208401616169565b805160208201516001600160e01b031980821692919060048310156162105780818460040360031b1b83161693505b505050919050565b6e03932bb32b93a103932b0b9b7b71d1608d1b81526000825161624281600f8501602087016156a3565b91909101600f0192915050565b6b03830b734b19031b7b2329d160a51b81526000825161627681600c8501602087016156a3565b91909101600c0192915050565b7f424d3a2077616c6c657420696e766f6b65206661696c656420776974682000008152600082516162bb81601e8501602087016156a3565b91909101601e0192915050565b8315158152826020820152606060408201526000611f7860608301846156c7565b600080858511156162f957600080fd5b8386111561630657600080fd5b5050820193919092039150565b80516020808301519190811015615ff15760001960209190910360031b1b16919050565b60008161634657616346615caa565b506000190190565b60408152600061636160408301856156c7565b905060018060a01b03831660208301529392505050565b828152604060208201526000612ef560408301846156c756fea2646970667358221220e8c255b94de31ab4dab31a921f835a34540a63667c3bf7bbed1da53e9c62af1664736f6c63430008120033",
  "linkReferences": {},
  "deployedLinkReferences": {}
}